{
  "_format": "hh-sol-artifact-1",
  "contractName": "Marketplace",
  "sourceName": "contracts/Marketplace.sol",
  "abi": [
    {
      "inputs": [],
      "stateMutability": "nonpayable",
      "type": "constructor"
    },
    {
      "inputs": [
        {
          "internalType": "address",
          "name": "sender",
          "type": "address"
        },
        {
          "internalType": "uint256",
          "name": "tokenId",
          "type": "uint256"
        },
        {
          "internalType": "address",
          "name": "owner",
          "type": "address"
        }
      ],
      "name": "ERC721IncorrectOwner",
      "type": "error"
    },
    {
      "inputs": [
        {
          "internalType": "address",
          "name": "operator",
          "type": "address"
        },
        {
          "internalType": "uint256",
          "name": "tokenId",
          "type": "uint256"
        }
      ],
      "name": "ERC721InsufficientApproval",
      "type": "error"
    },
    {
      "inputs": [
        {
          "internalType": "address",
          "name": "approver",
          "type": "address"
        }
      ],
      "name": "ERC721InvalidApprover",
      "type": "error"
    },
    {
      "inputs": [
        {
          "internalType": "address",
          "name": "operator",
          "type": "address"
        }
      ],
      "name": "ERC721InvalidOperator",
      "type": "error"
    },
    {
      "inputs": [
        {
          "internalType": "address",
          "name": "owner",
          "type": "address"
        }
      ],
      "name": "ERC721InvalidOwner",
      "type": "error"
    },
    {
      "inputs": [
        {
          "internalType": "address",
          "name": "receiver",
          "type": "address"
        }
      ],
      "name": "ERC721InvalidReceiver",
      "type": "error"
    },
    {
      "inputs": [
        {
          "internalType": "address",
          "name": "sender",
          "type": "address"
        }
      ],
      "name": "ERC721InvalidSender",
      "type": "error"
    },
    {
      "inputs": [
        {
          "internalType": "uint256",
          "name": "tokenId",
          "type": "uint256"
        }
      ],
      "name": "ERC721NonexistentToken",
      "type": "error"
    },
    {
      "anonymous": false,
      "inputs": [
        {
          "indexed": true,
          "internalType": "address",
          "name": "owner",
          "type": "address"
        },
        {
          "indexed": true,
          "internalType": "address",
          "name": "approved",
          "type": "address"
        },
        {
          "indexed": true,
          "internalType": "uint256",
          "name": "tokenId",
          "type": "uint256"
        }
      ],
      "name": "Approval",
      "type": "event"
    },
    {
      "anonymous": false,
      "inputs": [
        {
          "indexed": true,
          "internalType": "address",
          "name": "owner",
          "type": "address"
        },
        {
          "indexed": true,
          "internalType": "address",
          "name": "operator",
          "type": "address"
        },
        {
          "indexed": false,
          "internalType": "bool",
          "name": "approved",
          "type": "bool"
        }
      ],
      "name": "ApprovalForAll",
      "type": "event"
    },
    {
      "anonymous": false,
      "inputs": [
        {
          "indexed": true,
          "internalType": "uint256",
          "name": "tokenId",
          "type": "uint256"
        },
        {
          "indexed": false,
          "internalType": "string",
          "name": "tokenURI",
          "type": "string"
        },
        {
          "indexed": false,
          "internalType": "address",
          "name": "owner",
          "type": "address"
        },
        {
          "indexed": false,
          "internalType": "address",
          "name": "seller",
          "type": "address"
        },
        {
          "indexed": false,
          "internalType": "uint256",
          "name": "price",
          "type": "uint256"
        },
        {
          "indexed": false,
          "internalType": "bool",
          "name": "currentlyListed",
          "type": "bool"
        }
      ],
      "name": "TokenListedSuccess",
      "type": "event"
    },
    {
      "anonymous": false,
      "inputs": [
        {
          "indexed": true,
          "internalType": "address",
          "name": "from",
          "type": "address"
        },
        {
          "indexed": true,
          "internalType": "address",
          "name": "to",
          "type": "address"
        },
        {
          "indexed": true,
          "internalType": "uint256",
          "name": "tokenId",
          "type": "uint256"
        }
      ],
      "name": "Transfer",
      "type": "event"
    },
    {
      "inputs": [
        {
          "internalType": "address",
          "name": "to",
          "type": "address"
        },
        {
          "internalType": "uint256",
          "name": "tokenId",
          "type": "uint256"
        }
      ],
      "name": "approve",
      "outputs": [],
      "stateMutability": "nonpayable",
      "type": "function"
    },
    {
      "inputs": [
        {
          "internalType": "address",
          "name": "fractionalTokenAddress",
          "type": "address"
        },
        {
          "internalType": "uint256",
          "name": "amount",
          "type": "uint256"
        }
      ],
      "name": "approveFractionTransfer",
      "outputs": [],
      "stateMutability": "nonpayable",
      "type": "function"
    },
    {
      "inputs": [
        {
          "internalType": "address",
          "name": "owner",
          "type": "address"
        }
      ],
      "name": "balanceOf",
      "outputs": [
        {
          "internalType": "uint256",
          "name": "",
          "type": "uint256"
        }
      ],
      "stateMutability": "view",
      "type": "function"
    },
    {
      "inputs": [
        {
          "internalType": "uint256",
          "name": "tokenId",
          "type": "uint256"
        },
        {
          "internalType": "uint256",
          "name": "fractionAmount",
          "type": "uint256"
        }
      ],
      "name": "buyFraction",
      "outputs": [],
      "stateMutability": "payable",
      "type": "function"
    },
    {
      "inputs": [
        {
          "internalType": "uint256",
          "name": "tokenId",
          "type": "uint256"
        },
        {
          "internalType": "uint256",
          "name": "fractionSupply",
          "type": "uint256"
        }
      ],
      "name": "fractionalizeToken",
      "outputs": [],
      "stateMutability": "nonpayable",
      "type": "function"
    },
    {
      "inputs": [],
      "name": "getAllFractions",
      "outputs": [
        {
          "components": [
            {
              "internalType": "uint256",
              "name": "tokenId",
              "type": "uint256"
            },
            {
              "internalType": "uint256",
              "name": "fractionAmount",
              "type": "uint256"
            }
          ],
          "internalType": "struct Marketplace.FractOwner[]",
          "name": "",
          "type": "tuple[]"
        }
      ],
      "stateMutability": "view",
      "type": "function"
    },
    {
      "inputs": [],
      "name": "getAllNFTs",
      "outputs": [
        {
          "components": [
            {
              "internalType": "uint256",
              "name": "tokenId",
              "type": "uint256"
            },
            {
              "internalType": "string",
              "name": "tokenURI",
              "type": "string"
            },
            {
              "internalType": "address payable",
              "name": "owner",
              "type": "address"
            },
            {
              "internalType": "address payable",
              "name": "seller",
              "type": "address"
            },
            {
              "internalType": "uint256",
              "name": "price",
              "type": "uint256"
            },
            {
              "internalType": "bool",
              "name": "currentlyListed",
              "type": "bool"
            },
            {
              "internalType": "address",
              "name": "fractionalTokenAddress",
              "type": "address"
            }
          ],
          "internalType": "struct Marketplace.ListedToken[]",
          "name": "",
          "type": "tuple[]"
        }
      ],
      "stateMutability": "view",
      "type": "function"
    },
    {
      "inputs": [
        {
          "internalType": "uint256",
          "name": "tokenId",
          "type": "uint256"
        }
      ],
      "name": "getApproved",
      "outputs": [
        {
          "internalType": "address",
          "name": "",
          "type": "address"
        }
      ],
      "stateMutability": "view",
      "type": "function"
    },
    {
      "inputs": [
        {
          "internalType": "address",
          "name": "fractionalTokenAddress",
          "type": "address"
        }
      ],
      "name": "getBalanceSupplyOfTokens",
      "outputs": [
        {
          "internalType": "uint256",
          "name": "",
          "type": "uint256"
        }
      ],
      "stateMutability": "view",
      "type": "function"
    },
    {
      "inputs": [],
      "name": "getMyNFTs",
      "outputs": [
        {
          "components": [
            {
              "internalType": "uint256",
              "name": "tokenId",
              "type": "uint256"
            },
            {
              "internalType": "string",
              "name": "tokenURI",
              "type": "string"
            },
            {
              "internalType": "address payable",
              "name": "owner",
              "type": "address"
            },
            {
              "internalType": "address payable",
              "name": "seller",
              "type": "address"
            },
            {
              "internalType": "uint256",
              "name": "price",
              "type": "uint256"
            },
            {
              "internalType": "bool",
              "name": "currentlyListed",
              "type": "bool"
            },
            {
              "internalType": "address",
              "name": "fractionalTokenAddress",
              "type": "address"
            }
          ],
          "internalType": "struct Marketplace.ListedToken[]",
          "name": "",
          "type": "tuple[]"
        }
      ],
      "stateMutability": "view",
      "type": "function"
    },
    {
      "inputs": [
        {
          "internalType": "address",
          "name": "owner",
          "type": "address"
        },
        {
          "internalType": "address",
          "name": "operator",
          "type": "address"
        }
      ],
      "name": "isApprovedForAll",
      "outputs": [
        {
          "internalType": "bool",
          "name": "",
          "type": "bool"
        }
      ],
      "stateMutability": "view",
      "type": "function"
    },
    {
      "inputs": [
        {
          "internalType": "uint256",
          "name": "tokenId",
          "type": "uint256"
        }
      ],
      "name": "listTheNFT",
      "outputs": [],
      "stateMutability": "payable",
      "type": "function"
    },
    {
      "inputs": [],
      "name": "name",
      "outputs": [
        {
          "internalType": "string",
          "name": "",
          "type": "string"
        }
      ],
      "stateMutability": "view",
      "type": "function"
    },
    {
      "inputs": [
        {
          "internalType": "uint256",
          "name": "tokenId",
          "type": "uint256"
        }
      ],
      "name": "ownerOf",
      "outputs": [
        {
          "internalType": "address",
          "name": "",
          "type": "address"
        }
      ],
      "stateMutability": "view",
      "type": "function"
    },
    {
      "inputs": [
        {
          "internalType": "address",
          "name": "from",
          "type": "address"
        },
        {
          "internalType": "address",
          "name": "to",
          "type": "address"
        },
        {
          "internalType": "uint256",
          "name": "tokenId",
          "type": "uint256"
        }
      ],
      "name": "safeTransferFrom",
      "outputs": [],
      "stateMutability": "nonpayable",
      "type": "function"
    },
    {
      "inputs": [
        {
          "internalType": "address",
          "name": "from",
          "type": "address"
        },
        {
          "internalType": "address",
          "name": "to",
          "type": "address"
        },
        {
          "internalType": "uint256",
          "name": "tokenId",
          "type": "uint256"
        },
        {
          "internalType": "bytes",
          "name": "data",
          "type": "bytes"
        }
      ],
      "name": "safeTransferFrom",
      "outputs": [],
      "stateMutability": "nonpayable",
      "type": "function"
    },
    {
      "inputs": [
        {
          "internalType": "address",
          "name": "operator",
          "type": "address"
        },
        {
          "internalType": "bool",
          "name": "approved",
          "type": "bool"
        }
      ],
      "name": "setApprovalForAll",
      "outputs": [],
      "stateMutability": "nonpayable",
      "type": "function"
    },
    {
      "inputs": [
        {
          "internalType": "bytes4",
          "name": "interfaceId",
          "type": "bytes4"
        }
      ],
      "name": "supportsInterface",
      "outputs": [
        {
          "internalType": "bool",
          "name": "",
          "type": "bool"
        }
      ],
      "stateMutability": "view",
      "type": "function"
    },
    {
      "inputs": [],
      "name": "symbol",
      "outputs": [
        {
          "internalType": "string",
          "name": "",
          "type": "string"
        }
      ],
      "stateMutability": "view",
      "type": "function"
    },
    {
      "inputs": [
        {
          "internalType": "uint256",
          "name": "tokenId",
          "type": "uint256"
        }
      ],
      "name": "tokenURI",
      "outputs": [
        {
          "internalType": "string",
          "name": "",
          "type": "string"
        }
      ],
      "stateMutability": "view",
      "type": "function"
    },
    {
      "inputs": [
        {
          "internalType": "address",
          "name": "from",
          "type": "address"
        },
        {
          "internalType": "address",
          "name": "to",
          "type": "address"
        },
        {
          "internalType": "uint256",
          "name": "tokenId",
          "type": "uint256"
        }
      ],
      "name": "transferFrom",
      "outputs": [],
      "stateMutability": "nonpayable",
      "type": "function"
    }
  ],
  "bytecode": "0x60806040526601c6bf526340006009553480156200001c57600080fd5b506040518060400160405280600e81526020017f4e46544d61726b6574706c6163650000000000000000000000000000000000008152506040518060400160405280600481526020017f4e46544d0000000000000000000000000000000000000000000000000000000081525081600090816200009a919062000370565b508060019081620000ac919062000370565b50505033600860006101000a81548173ffffffffffffffffffffffffffffffffffffffff021916908373ffffffffffffffffffffffffffffffffffffffff16021790555062000457565b600081519050919050565b7f4e487b7100000000000000000000000000000000000000000000000000000000600052604160045260246000fd5b7f4e487b7100000000000000000000000000000000000000000000000000000000600052602260045260246000fd5b600060028204905060018216806200017857607f821691505b6020821081036200018e576200018d62000130565b5b50919050565b60008190508160005260206000209050919050565b60006020601f8301049050919050565b600082821b905092915050565b600060088302620001f87fffffffffffffffffffffffffffffffffffffffffffffffffffffffffffffffff82620001b9565b620002048683620001b9565b95508019841693508086168417925050509392505050565b6000819050919050565b6000819050919050565b6000620002516200024b62000245846200021c565b62000226565b6200021c565b9050919050565b6000819050919050565b6200026d8362000230565b620002856200027c8262000258565b848454620001c6565b825550505050565b600090565b6200029c6200028d565b620002a981848462000262565b505050565b5b81811015620002d157620002c560008262000292565b600181019050620002af565b5050565b601f8211156200032057620002ea8162000194565b620002f584620001a9565b8101602085101562000305578190505b6200031d6200031485620001a9565b830182620002ae565b50505b505050565b600082821c905092915050565b6000620003456000198460080262000325565b1980831691505092915050565b600062000360838362000332565b9150826002028217905092915050565b6200037b82620000f6565b67ffffffffffffffff81111562000397576200039662000101565b5b620003a382546200015f565b620003b0828285620002d5565b600060209050601f831160018114620003e85760008415620003d3578287015190505b620003df858262000352565b8655506200044f565b601f198416620003f88662000194565b60005b828110156200042257848901518255600182019150602085019450602081019050620003fb565b868310156200044257848901516200043e601f89168262000332565b8355505b6001600288020188555050505b505050505050565b615b5b80620004676000396000f3fe608060405260043610620001465760003560e01c80636d78ab2311620000bb578063a6f804ab1162000079578063a6f804ab1462000465578063b88d4fde1462000493578063c87b56dd14620004c1578063d40b02141462000505578063e0391b091462000525578063e985e9c514620005555762000146565b80636d78ab23146200035157806370a08231146200039557806395d89b4114620003d9578063a22cb4651462000409578063a2afc65b14620004375762000146565b806323b872dd116200010957806323b872dd146200025157806342842e0e146200027f5780634e1327ad14620002ad578063629cb2e414620002dd5780636352211e146200030d5762000146565b806301ffc9a7146200014b57806306fdde03146200018f578063081812fc14620001bf578063095ea7b314620002035780630ee6b29c1462000231575b600080fd5b3480156200015857600080fd5b506200017760048036038101906200017191906200328f565b62000599565b604051620001869190620032de565b60405180910390f35b3480156200019c57600080fd5b50620001a76200067f565b604051620001b6919062003395565b60405180910390f35b348015620001cc57600080fd5b50620001eb6004803603810190620001e59190620033f4565b62000719565b604051620001fa91906200346b565b60405180910390f35b3480156200021057600080fd5b506200022f6004803603810190620002299190620034b9565b62000739565b005b6200024f6004803603810190620002499190620033f4565b62000753565b005b3480156200025e57600080fd5b506200027d600480360381019062000277919062003500565b6200082c565b005b3480156200028c57600080fd5b50620002ab6004803603810190620002a5919062003500565b62000938565b005b348015620002ba57600080fd5b50620002c56200095a565b604051620002d491906200365d565b60405180910390f35b348015620002ea57600080fd5b50620002f562000a0c565b60405162000304919062003894565b60405180910390f35b3480156200031a57600080fd5b50620003396004803603810190620003339190620033f4565b62000ef7565b6040516200034891906200346b565b60405180910390f35b3480156200035e57600080fd5b506200037d6004803603810190620003779190620038b8565b62000f0b565b6040516200038c9190620038fb565b60405180910390f35b348015620003a257600080fd5b50620003c16004803603810190620003bb9190620038b8565b62000f9e565b604051620003d09190620038fb565b60405180910390f35b348015620003e657600080fd5b50620003f16200105b565b60405162000400919062003395565b60405180910390f35b3480156200041657600080fd5b506200043560048036038101906200042f919062003949565b620010f5565b005b3480156200044457600080fd5b506200046360048036038101906200045d919062003990565b6200110f565b005b3480156200047257600080fd5b506200049160048036038101906200048b9190620034b9565b620012de565b005b348015620004a057600080fd5b50620004bf6004803603810190620004b9919062003b28565b6200136c565b005b348015620004ce57600080fd5b50620004ed6004803603810190620004e79190620033f4565b6200138d565b604051620004fc919062003395565b60405180910390f35b6200052360048036038101906200051d919062003990565b62001400565b005b3480156200053257600080fd5b506200053d62001a33565b6040516200054c919062003894565b60405180910390f35b3480156200056257600080fd5b506200058160048036038101906200057b919062003bb9565b62001cfd565b604051620005909190620032de565b60405180910390f35b60007f80ac58cd000000000000000000000000000000000000000000000000000000007bffffffffffffffffffffffffffffffffffffffffffffffffffffffff1916827bffffffffffffffffffffffffffffffffffffffffffffffffffffffff191614806200066557507f5b5e139f000000000000000000000000000000000000000000000000000000007bffffffffffffffffffffffffffffffffffffffffffffffffffffffff1916827bffffffffffffffffffffffffffffffffffffffffffffffffffffffff1916145b80620006785750620006778262001d91565b5b9050919050565b606060008054620006909062003c2f565b80601f0160208091040260200160405190810160405280929190818152602001828054620006be9062003c2f565b80156200070f5780601f10620006e3576101008083540402835291602001916200070f565b820191906000526020600020905b815481529060010190602001808311620006f157829003601f168201915b5050505050905090565b6000620007268262001dfb565b50620007328262001e88565b9050919050565b6200074f82826200074962001ec5565b62001ecd565b5050565b3373ffffffffffffffffffffffffffffffffffffffff16600b600083815260200190815260200160002060020160009054906101000a900473ffffffffffffffffffffffffffffffffffffffff1673ffffffffffffffffffffffffffffffffffffffff1614620007fa576040517f08c379a0000000000000000000000000000000000000000000000000000000008152600401620007f19062003cb4565b60405180910390fd5b6001600b600083815260200190815260200160002060050160006101000a81548160ff02191690831515021790555050565b600073ffffffffffffffffffffffffffffffffffffffff168273ffffffffffffffffffffffffffffffffffffffff1603620008a15760006040517f64a0ae920000000000000000000000000000000000000000000000000000000081526004016200089891906200346b565b60405180910390fd5b6000620008b98383620008b362001ec5565b62001ee1565b90508373ffffffffffffffffffffffffffffffffffffffff168173ffffffffffffffffffffffffffffffffffffffff161462000932578382826040517f64283d7b000000000000000000000000000000000000000000000000000000008152600401620009299392919062003cd6565b60405180910390fd5b50505050565b62000955838383604051806020016040528060008152506200136c565b505050565b6060600a60003373ffffffffffffffffffffffffffffffffffffffff1673ffffffffffffffffffffffffffffffffffffffff168152602001908152602001600020805480602002602001604051908101604052809291908181526020016000905b8282101562000a0357838290600052602060002090600202016040518060400160405290816000820154815260200160018201548152505081526020019060010190620009bb565b50505050905090565b60606000600654905060008060005b8381101562000b40573373ffffffffffffffffffffffffffffffffffffffff16600b600060018462000a4e919062003d42565b815260200190815260200160002060020160009054906101000a900473ffffffffffffffffffffffffffffffffffffffff1673ffffffffffffffffffffffffffffffffffffffff16148062000b1257503373ffffffffffffffffffffffffffffffffffffffff16600b600060018462000ac8919062003d42565b815260200190815260200160002060030160009054906101000a900473ffffffffffffffffffffffffffffffffffffffff1673ffffffffffffffffffffffffffffffffffffffff16145b1562000b2a5760018362000b27919062003d42565b92505b808062000b379062003d7d565b91505062000a1b565b5060008267ffffffffffffffff81111562000b605762000b5f620039e1565b5b60405190808252806020026020018201604052801562000b9d57816020015b62000b896200318f565b81526020019060019003908162000b7f5790505b50905060005b8481101562000eec573373ffffffffffffffffffffffffffffffffffffffff16600b600060018462000bd6919062003d42565b815260200190815260200160002060020160009054906101000a900473ffffffffffffffffffffffffffffffffffffffff1673ffffffffffffffffffffffffffffffffffffffff16148062000c9a57503373ffffffffffffffffffffffffffffffffffffffff16600b600060018462000c50919062003d42565b815260200190815260200160002060030160009054906101000a900473ffffffffffffffffffffffffffffffffffffffff1673ffffffffffffffffffffffffffffffffffffffff16145b1562000ed657600060018262000cb1919062003d42565b90506000600b60008381526020019081526020016000209050806040518060e00160405290816000820154815260200160018201805462000cf29062003c2f565b80601f016020809104026020016040519081016040528092919081815260200182805462000d209062003c2f565b801562000d715780601f1062000d455761010080835404028352916020019162000d71565b820191906000526020600020905b81548152906001019060200180831162000d5357829003601f168201915b505050505081526020016002820160009054906101000a900473ffffffffffffffffffffffffffffffffffffffff1673ffffffffffffffffffffffffffffffffffffffff1673ffffffffffffffffffffffffffffffffffffffff1681526020016003820160009054906101000a900473ffffffffffffffffffffffffffffffffffffffff1673ffffffffffffffffffffffffffffffffffffffff1673ffffffffffffffffffffffffffffffffffffffff168152602001600482015481526020016005820160009054906101000a900460ff161515151581526020016005820160019054906101000a900473ffffffffffffffffffffffffffffffffffffffff1673ffffffffffffffffffffffffffffffffffffffff1673ffffffffffffffffffffffffffffffffffffffff168152505084868151811062000eb75762000eb662003dca565b5b602002602001018190525060018562000ed1919062003d42565b945050505b808062000ee39062003d7d565b91505062000ba3565b508094505050505090565b600062000f048262001dfb565b9050919050565b60008082905060008173ffffffffffffffffffffffffffffffffffffffff166370a08231306040518263ffffffff1660e01b815260040162000f4e91906200346b565b602060405180830381865afa15801562000f6c573d6000803e3d6000fd5b505050506040513d601f19601f8201168201806040525081019062000f92919062003e10565b90508092505050919050565b60008073ffffffffffffffffffffffffffffffffffffffff168273ffffffffffffffffffffffffffffffffffffffff1603620010145760006040517f89c62b640000000000000000000000000000000000000000000000000000000081526004016200100b91906200346b565b60405180910390fd5b600360008373ffffffffffffffffffffffffffffffffffffffff1673ffffffffffffffffffffffffffffffffffffffff168152602001908152602001600020549050919050565b6060600180546200106c9062003c2f565b80601f01602080910402602001604051908101604052809291908181526020018280546200109a9062003c2f565b8015620010eb5780601f10620010bf57610100808354040283529160200191620010eb565b820191906000526020600020905b815481529060010190602001808311620010cd57829003601f168201915b5050505050905090565b6200110b6200110362001ec5565b838362002104565b5050565b600073ffffffffffffffffffffffffffffffffffffffff16600b600084815260200190815260200160002060050160019054906101000a900473ffffffffffffffffffffffffffffffffffffffff1673ffffffffffffffffffffffffffffffffffffffff1614620011b7576040517f08c379a0000000000000000000000000000000000000000000000000000000008152600401620011ae9062003e92565b60405180910390fd5b600081604051620011c89062003210565b620011d49190620038fb565b604051809103906000f080158015620011f1573d6000803e3d6000fd5b50905080600b600085815260200190815260200160002060050160016101000a81548173ffffffffffffffffffffffffffffffffffffffff021916908373ffffffffffffffffffffffffffffffffffffffff1602179055508073ffffffffffffffffffffffffffffffffffffffff1663a9059cbb30846040518363ffffffff1660e01b81526004016200128692919062003eb4565b6020604051808303816000875af1158015620012a6573d6000803e3d6000fd5b505050506040513d601f19601f82011682018060405250810190620012cc919062003ef8565b50620012d98183620012de565b505050565b60008290508073ffffffffffffffffffffffffffffffffffffffff1663095ea7b330846040518363ffffffff1660e01b81526004016200132092919062003eb4565b6020604051808303816000875af115801562001340573d6000803e3d6000fd5b505050506040513d601f19601f8201168201806040525081019062001366919062003ef8565b50505050565b620013798484846200082c565b620013878484848462002278565b50505050565b60606200139a8262001dfb565b506000620013a762002440565b90506000815111620013c95760405180602001604052806000815250620013f8565b80620013d58462002457565b604051602001620013e892919062003f6c565b6040516020818303038152906040525b915050919050565b6000600b600084815260200190815260200160002090506000808260050160019054906101000a900473ffffffffffffffffffffffffffffffffffffffff16905060008173ffffffffffffffffffffffffffffffffffffffff166318160ddd6040518163ffffffff1660e01b8152600401602060405180830381865afa1580156200148f573d6000803e3d6000fd5b505050506040513d601f19601f82011682018060405250810190620014b5919062003e10565b905080851015620016d357808460040154620014d2919062003fc3565b92508483620014e2919062003ffb565b341462001526576040517f08c379a00000000000000000000000000000000000000000000000000000000081526004016200151d9062004096565b60405180910390fd5b60008273ffffffffffffffffffffffffffffffffffffffff1663dd62ed3e8660020160009054906101000a900473ffffffffffffffffffffffffffffffffffffffff16306040518363ffffffff1660e01b81526004016200158992919062004123565b602060405180830381865afa158015620015a7573d6000803e3d6000fd5b505050506040513d601f19601f82011682018060405250810190620015cd919062003e10565b90508581101562001615576040517f08c379a00000000000000000000000000000000000000000000000000000000081526004016200160c90620041c6565b60405180910390fd5b8273ffffffffffffffffffffffffffffffffffffffff166323b872dd8660020160009054906101000a900473ffffffffffffffffffffffffffffffffffffffff1633896040518463ffffffff1660e01b81526004016200167893929190620041e8565b6020604051808303816000875af115801562001698573d6000803e3d6000fd5b505050506040513d601f19601f82011682018060405250810190620016be919062003ef8565b50620016cc33888862002530565b5062001a2b565b808503620019ed57808460040154620016ed919062003fc3565b92508483620016fd919062003ffb565b341462001741576040517f08c379a0000000000000000000000000000000000000000000000000000000008152600401620017389062004096565b60405180910390fd5b6200174e3033886200272b565b60008273ffffffffffffffffffffffffffffffffffffffff1663dd62ed3e8660020160009054906101000a900473ffffffffffffffffffffffffffffffffffffffff16306040518363ffffffff1660e01b8152600401620017b192919062004123565b602060405180830381865afa158015620017cf573d6000803e3d6000fd5b505050506040513d601f19601f82011682018060405250810190620017f5919062003e10565b9050858110156200183d576040517f08c379a00000000000000000000000000000000000000000000000000000000081526004016200183490620041c6565b60405180910390fd5b8273ffffffffffffffffffffffffffffffffffffffff166323b872dd8660020160009054906101000a900473ffffffffffffffffffffffffffffffffffffffff1633896040518463ffffffff1660e01b8152600401620018a093929190620041e8565b6020604051808303816000875af1158015620018c0573d6000803e3d6000fd5b505050506040513d601f19601f82011682018060405250810190620018e6919062003ef8565b5060008560050160006101000a81548160ff021916908315150217905550338560030160006101000a81548173ffffffffffffffffffffffffffffffffffffffff021916908373ffffffffffffffffffffffffffffffffffffffff160217905550600760008154809291906200195c9062003d7d565b91905055506200196d308862000739565b8460030160009054906101000a900473ffffffffffffffffffffffffffffffffffffffff1673ffffffffffffffffffffffffffffffffffffffff166108fc349081150290604051600060405180830381858888f19350505050158015620019d8573d6000803e3d6000fd5b50620019e6338888620028a3565b5062001a2a565b6040517f08c379a000000000000000000000000000000000000000000000000000000000815260040162001a21906200429b565b60405180910390fd5b5b505050505050565b60606000600654905060008167ffffffffffffffff81111562001a5b5762001a5a620039e1565b5b60405190808252806020026020018201604052801562001a9857816020015b62001a846200318f565b81526020019060019003908162001a7a5790505b5090506000805b8381101562001cf357600060018262001ab9919062003d42565b90506000600b60008381526020019081526020016000209050806040518060e00160405290816000820154815260200160018201805462001afa9062003c2f565b80601f016020809104026020016040519081016040528092919081815260200182805462001b289062003c2f565b801562001b795780601f1062001b4d5761010080835404028352916020019162001b79565b820191906000526020600020905b81548152906001019060200180831162001b5b57829003601f168201915b505050505081526020016002820160009054906101000a900473ffffffffffffffffffffffffffffffffffffffff1673ffffffffffffffffffffffffffffffffffffffff1673ffffffffffffffffffffffffffffffffffffffff1681526020016003820160009054906101000a900473ffffffffffffffffffffffffffffffffffffffff1673ffffffffffffffffffffffffffffffffffffffff1673ffffffffffffffffffffffffffffffffffffffff168152602001600482015481526020016005820160009054906101000a900460ff161515151581526020016005820160019054906101000a900473ffffffffffffffffffffffffffffffffffffffff1673ffffffffffffffffffffffffffffffffffffffff1673ffffffffffffffffffffffffffffffffffffffff168152505085858151811062001cbf5762001cbe62003dca565b5b602002602001018190525060018462001cd9919062003d42565b93505050808062001cea9062003d7d565b91505062001a9f565b5081935050505090565b6000600560008473ffffffffffffffffffffffffffffffffffffffff1673ffffffffffffffffffffffffffffffffffffffff16815260200190815260200160002060008373ffffffffffffffffffffffffffffffffffffffff1673ffffffffffffffffffffffffffffffffffffffff16815260200190815260200160002060009054906101000a900460ff16905092915050565b60007f01ffc9a7000000000000000000000000000000000000000000000000000000007bffffffffffffffffffffffffffffffffffffffffffffffffffffffff1916827bffffffffffffffffffffffffffffffffffffffffffffffffffffffff1916149050919050565b60008062001e098362002c81565b9050600073ffffffffffffffffffffffffffffffffffffffff168173ffffffffffffffffffffffffffffffffffffffff160362001e7f57826040517f7e27328900000000000000000000000000000000000000000000000000000000815260040162001e769190620038fb565b60405180910390fd5b80915050919050565b60006004600083815260200190815260200160002060009054906101000a900473ffffffffffffffffffffffffffffffffffffffff169050919050565b600033905090565b62001edc838383600162002cbe565b505050565b60008062001eef8462002c81565b9050600073ffffffffffffffffffffffffffffffffffffffff168373ffffffffffffffffffffffffffffffffffffffff161462001f345762001f3381848662002e8f565b5b600073ffffffffffffffffffffffffffffffffffffffff168173ffffffffffffffffffffffffffffffffffffffff161462001fc85762001f7960008560008062002cbe565b6001600360008373ffffffffffffffffffffffffffffffffffffffff1673ffffffffffffffffffffffffffffffffffffffff168152602001908152602001600020600082825403925050819055505b600073ffffffffffffffffffffffffffffffffffffffff168573ffffffffffffffffffffffffffffffffffffffff16146200204c576001600360008773ffffffffffffffffffffffffffffffffffffffff1673ffffffffffffffffffffffffffffffffffffffff168152602001908152602001600020600082825401925050819055505b846002600086815260200190815260200160002060006101000a81548173ffffffffffffffffffffffffffffffffffffffff021916908373ffffffffffffffffffffffffffffffffffffffff160217905550838573ffffffffffffffffffffffffffffffffffffffff168273ffffffffffffffffffffffffffffffffffffffff167fddf252ad1be2c89b69c2b068fc378daa952ba7f163c4a11628f55a4df523b3ef60405160405180910390a4809150509392505050565b600073ffffffffffffffffffffffffffffffffffffffff168273ffffffffffffffffffffffffffffffffffffffff16036200217857816040517f5b08ba180000000000000000000000000000000000000000000000000000000081526004016200216f91906200346b565b60405180910390fd5b80600560008573ffffffffffffffffffffffffffffffffffffffff1673ffffffffffffffffffffffffffffffffffffffff16815260200190815260200160002060008473ffffffffffffffffffffffffffffffffffffffff1673ffffffffffffffffffffffffffffffffffffffff16815260200190815260200160002060006101000a81548160ff0219169083151502179055508173ffffffffffffffffffffffffffffffffffffffff168373ffffffffffffffffffffffffffffffffffffffff167f17307eab39ab6107e8899845ad3d59bd9653f200f220920489ca2b5937696c31836040516200226b9190620032de565b60405180910390a3505050565b60008373ffffffffffffffffffffffffffffffffffffffff163b11156200243a578273ffffffffffffffffffffffffffffffffffffffff1663150b7a02620022bf62001ec5565b8685856040518563ffffffff1660e01b8152600401620022e394939291906200431a565b6020604051808303816000875af19250505080156200232257506040513d601f19601f820116820180604052508101906200231f919062004385565b60015b620023ac573d806000811462002355576040519150601f19603f3d011682016040523d82523d6000602084013e6200235a565b606091505b506000815103620023a457836040517f64a0ae920000000000000000000000000000000000000000000000000000000081526004016200239b91906200346b565b60405180910390fd5b805181602001fd5b63150b7a0260e01b7bffffffffffffffffffffffffffffffffffffffffffffffffffffffff1916817bffffffffffffffffffffffffffffffffffffffffffffffffffffffff1916146200243857836040517f64a0ae920000000000000000000000000000000000000000000000000000000081526004016200242f91906200346b565b60405180910390fd5b505b50505050565b606060405180602001604052806000815250905090565b606060006001620024688462002f5b565b01905060008167ffffffffffffffff8111156200248a5762002489620039e1565b5b6040519080825280601f01601f191660200182016040528015620024bd5781602001600182028036833780820191505090505b509050600082602001820190505b60011562002525578080600190039150507f3031323334353637383961626364656600000000000000000000000000000000600a86061a8153600a858162002518576200251762003f94565b5b04945060008503620024cb575b819350505050919050565b6000805b600a60008673ffffffffffffffffffffffffffffffffffffffff1673ffffffffffffffffffffffffffffffffffffffff168152602001908152602001600020805490508110156200268a5783600a60008773ffffffffffffffffffffffffffffffffffffffff1673ffffffffffffffffffffffffffffffffffffffff1681526020019081526020016000208281548110620025d457620025d362003dca565b5b90600052602060002090600202016000015403620026745782600a60008773ffffffffffffffffffffffffffffffffffffffff1673ffffffffffffffffffffffffffffffffffffffff168152602001908152602001600020828154811062002641576200264062003dca565b5b9060005260206000209060020201600101600082825462002663919062003d42565b92505081905550600191506200268a565b8080620026819062003d7d565b91505062002534565b50806200272557600a60008573ffffffffffffffffffffffffffffffffffffffff1673ffffffffffffffffffffffffffffffffffffffff1681526020019081526020016000206040518060400160405280858152602001848152509080600181540180825580915050600190039060005260206000209060020201600090919091909150600082015181600001556020820151816001015550505b50505050565b600073ffffffffffffffffffffffffffffffffffffffff168273ffffffffffffffffffffffffffffffffffffffff1603620027a05760006040517f64a0ae920000000000000000000000000000000000000000000000000000000081526004016200279791906200346b565b60405180910390fd5b6000620027b08383600062001ee1565b9050600073ffffffffffffffffffffffffffffffffffffffff168173ffffffffffffffffffffffffffffffffffffffff16036200282657816040517f7e2732890000000000000000000000000000000000000000000000000000000081526004016200281d9190620038fb565b60405180910390fd5b8373ffffffffffffffffffffffffffffffffffffffff168173ffffffffffffffffffffffffffffffffffffffff16146200289d578382826040517f64283d7b000000000000000000000000000000000000000000000000000000008152600401620028949392919062003cd6565b60405180910390fd5b50505050565b60005b600a60008573ffffffffffffffffffffffffffffffffffffffff1673ffffffffffffffffffffffffffffffffffffffff1681526020019081526020016000208054905081101562002c7b5782600a60008673ffffffffffffffffffffffffffffffffffffffff1673ffffffffffffffffffffffffffffffffffffffff168152602001908152602001600020828154811062002946576200294562003dca565b5b9060005260206000209060020201600001540362002c655781600a60008673ffffffffffffffffffffffffffffffffffffffff1673ffffffffffffffffffffffffffffffffffffffff1681526020019081526020016000208281548110620029b357620029b262003dca565b5b9060005260206000209060020201600101541062002c5f5781600a60008673ffffffffffffffffffffffffffffffffffffffff1673ffffffffffffffffffffffffffffffffffffffff168152602001908152602001600020828154811062002a205762002a1f62003dca565b5b9060005260206000209060020201600101600082825462002a429190620043b7565b925050819055506000600a60008673ffffffffffffffffffffffffffffffffffffffff1673ffffffffffffffffffffffffffffffffffffffff168152602001908152602001600020828154811062002a9f5762002a9e62003dca565b5b9060005260206000209060020201600101540362002c5e57600a60008573ffffffffffffffffffffffffffffffffffffffff1673ffffffffffffffffffffffffffffffffffffffff1681526020019081526020016000206001600a60008773ffffffffffffffffffffffffffffffffffffffff1673ffffffffffffffffffffffffffffffffffffffff1681526020019081526020016000208054905062002b479190620043b7565b8154811062002b5b5762002b5a62003dca565b5b9060005260206000209060020201600a60008673ffffffffffffffffffffffffffffffffffffffff1673ffffffffffffffffffffffffffffffffffffffff168152602001908152602001600020828154811062002bbd5762002bbc62003dca565b5b90600052602060002090600202016000820154816000015560018201548160010155905050600a60008573ffffffffffffffffffffffffffffffffffffffff1673ffffffffffffffffffffffffffffffffffffffff16815260200190815260200160002080548062002c345762002c33620043f2565b5b60019003818190600052602060002090600202016000808201600090556001820160009055505090555b5b62002c7b565b808062002c729062003d7d565b915050620028a6565b50505050565b60006002600083815260200190815260200160002060009054906101000a900473ffffffffffffffffffffffffffffffffffffffff169050919050565b808062002cf85750600073ffffffffffffffffffffffffffffffffffffffff168273ffffffffffffffffffffffffffffffffffffffff1614155b1562002e3757600062002d0b8462001dfb565b9050600073ffffffffffffffffffffffffffffffffffffffff168373ffffffffffffffffffffffffffffffffffffffff161415801562002d7757508273ffffffffffffffffffffffffffffffffffffffff168173ffffffffffffffffffffffffffffffffffffffff1614155b801562002d8d575062002d8b818462001cfd565b155b1562002dd257826040517fa9fbf51f00000000000000000000000000000000000000000000000000000000815260040162002dc991906200346b565b60405180910390fd5b811562002e3557838573ffffffffffffffffffffffffffffffffffffffff168273ffffffffffffffffffffffffffffffffffffffff167f8c5be1e5ebec7d5bd14f71427d1e84f3dd0314c0f7b2291e5b200ac8c7c3b92560405160405180910390a45b505b836004600085815260200190815260200160002060006101000a81548173ffffffffffffffffffffffffffffffffffffffff021916908373ffffffffffffffffffffffffffffffffffffffff16021790555050505050565b62002e9c838383620030c7565b62002f5657600073ffffffffffffffffffffffffffffffffffffffff168373ffffffffffffffffffffffffffffffffffffffff160362002f1557806040517f7e27328900000000000000000000000000000000000000000000000000000000815260040162002f0c9190620038fb565b60405180910390fd5b81816040517f177e802f00000000000000000000000000000000000000000000000000000000815260040162002f4d92919062003eb4565b60405180910390fd5b505050565b600080600090507a184f03e93ff9f4daa797ed6e38ed64bf6a1f010000000000000000831062002fbd577a184f03e93ff9f4daa797ed6e38ed64bf6a1f010000000000000000838162002fb35762002fb262003f94565b5b0492506040810190505b6d04ee2d6d415b85acef8100000000831062002ffe576d04ee2d6d415b85acef8100000000838162002ff45762002ff362003f94565b5b0492506020810190505b662386f26fc1000083106200303157662386f26fc10000838162003027576200302662003f94565b5b0492506010810190505b6305f5e10083106200305e576305f5e100838162003054576200305362003f94565b5b0492506008810190505b6127108310620030875761271083816200307d576200307c62003f94565b5b0492506004810190505b60648310620030ae5760648381620030a457620030a362003f94565b5b0492506002810190505b600a8310620030be576001810190505b80915050919050565b60008073ffffffffffffffffffffffffffffffffffffffff168373ffffffffffffffffffffffffffffffffffffffff16141580156200318657508273ffffffffffffffffffffffffffffffffffffffff168473ffffffffffffffffffffffffffffffffffffffff16148062003144575062003143848462001cfd565b5b806200318557508273ffffffffffffffffffffffffffffffffffffffff166200316d8362001e88565b73ffffffffffffffffffffffffffffffffffffffff16145b5b90509392505050565b6040518060e001604052806000815260200160608152602001600073ffffffffffffffffffffffffffffffffffffffff168152602001600073ffffffffffffffffffffffffffffffffffffffff16815260200160008152602001600015158152602001600073ffffffffffffffffffffffffffffffffffffffff1681525090565b611704806200442283390190565b6000604051905090565b600080fd5b600080fd5b60007fffffffff0000000000000000000000000000000000000000000000000000000082169050919050565b620032698162003232565b81146200327557600080fd5b50565b60008135905062003289816200325e565b92915050565b600060208284031215620032a857620032a762003228565b5b6000620032b88482850162003278565b91505092915050565b60008115159050919050565b620032d881620032c1565b82525050565b6000602082019050620032f56000830184620032cd565b92915050565b600081519050919050565b600082825260208201905092915050565b60005b83811015620033375780820151818401526020810190506200331a565b60008484015250505050565b6000601f19601f8301169050919050565b60006200336182620032fb565b6200336d818562003306565b93506200337f81856020860162003317565b6200338a8162003343565b840191505092915050565b60006020820190508181036000830152620033b1818462003354565b905092915050565b6000819050919050565b620033ce81620033b9565b8114620033da57600080fd5b50565b600081359050620033ee81620033c3565b92915050565b6000602082840312156200340d576200340c62003228565b5b60006200341d84828501620033dd565b91505092915050565b600073ffffffffffffffffffffffffffffffffffffffff82169050919050565b6000620034538262003426565b9050919050565b620034658162003446565b82525050565b60006020820190506200348260008301846200345a565b92915050565b620034938162003446565b81146200349f57600080fd5b50565b600081359050620034b38162003488565b92915050565b60008060408385031215620034d357620034d262003228565b5b6000620034e385828601620034a2565b9250506020620034f685828601620033dd565b9150509250929050565b6000806000606084860312156200351c576200351b62003228565b5b60006200352c86828701620034a2565b93505060206200353f86828701620034a2565b92505060406200355286828701620033dd565b9150509250925092565b600081519050919050565b600082825260208201905092915050565b6000819050602082019050919050565b6200359381620033b9565b82525050565b604082016000820151620035b1600085018262003588565b506020820151620035c6602085018262003588565b50505050565b6000620035da838362003599565b60408301905092915050565b6000602082019050919050565b600062003600826200355c565b6200360c818562003567565b9350620036198362003578565b8060005b8381101562003650578151620036348882620035cc565b97506200364183620035e6565b9250506001810190506200361d565b5085935050505092915050565b60006020820190508181036000830152620036798184620035f3565b905092915050565b600081519050919050565b600082825260208201905092915050565b6000819050602082019050919050565b600082825260208201905092915050565b6000620036cb82620032fb565b620036d78185620036ad565b9350620036e981856020860162003317565b620036f48162003343565b840191505092915050565b60006200370c8262003426565b9050919050565b6200371e81620036ff565b82525050565b6200372f81620032c1565b82525050565b620037408162003446565b82525050565b600060e08301600083015162003760600086018262003588565b50602083015184820360208601526200377a8282620036be565b915050604083015162003791604086018262003713565b506060830151620037a6606086018262003713565b506080830151620037bb608086018262003588565b5060a0830151620037d060a086018262003724565b5060c0830151620037e560c086018262003735565b508091505092915050565b6000620037fe838362003746565b905092915050565b6000602082019050919050565b6000620038208262003681565b6200382c81856200368c565b93508360208202850162003840856200369d565b8060005b85811015620038825784840389528151620038608582620037f0565b94506200386d8362003806565b925060208a0199505060018101905062003844565b50829750879550505050505092915050565b60006020820190508181036000830152620038b0818462003813565b905092915050565b600060208284031215620038d157620038d062003228565b5b6000620038e184828501620034a2565b91505092915050565b620038f581620033b9565b82525050565b6000602082019050620039126000830184620038ea565b92915050565b6200392381620032c1565b81146200392f57600080fd5b50565b600081359050620039438162003918565b92915050565b6000806040838503121562003963576200396262003228565b5b60006200397385828601620034a2565b9250506020620039868582860162003932565b9150509250929050565b60008060408385031215620039aa57620039a962003228565b5b6000620039ba85828601620033dd565b9250506020620039cd85828601620033dd565b9150509250929050565b600080fd5b600080fd5b7f4e487b7100000000000000000000000000000000000000000000000000000000600052604160045260246000fd5b62003a1b8262003343565b810181811067ffffffffffffffff8211171562003a3d5762003a3c620039e1565b5b80604052505050565b600062003a526200321e565b905062003a60828262003a10565b919050565b600067ffffffffffffffff82111562003a835762003a82620039e1565b5b62003a8e8262003343565b9050602081019050919050565b82818337600083830152505050565b600062003ac162003abb8462003a65565b62003a46565b90508281526020810184848401111562003ae05762003adf620039dc565b5b62003aed84828562003a9b565b509392505050565b600082601f83011262003b0d5762003b0c620039d7565b5b813562003b1f84826020860162003aaa565b91505092915050565b6000806000806080858703121562003b455762003b4462003228565b5b600062003b5587828801620034a2565b945050602062003b6887828801620034a2565b935050604062003b7b87828801620033dd565b925050606085013567ffffffffffffffff81111562003b9f5762003b9e6200322d565b5b62003bad8782880162003af5565b91505092959194509250565b6000806040838503121562003bd35762003bd262003228565b5b600062003be385828601620034a2565b925050602062003bf685828601620034a2565b9150509250929050565b7f4e487b7100000000000000000000000000000000000000000000000000000000600052602260045260246000fd5b6000600282049050600182168062003c4857607f821691505b60208210810362003c5e5762003c5d62003c00565b5b50919050565b7f4f6e6c7920746865206f776e65722063616e206c69737420746865206974656d600082015250565b600062003c9c60208362003306565b915062003ca98262003c64565b602082019050919050565b6000602082019050818103600083015262003ccf8162003c8d565b9050919050565b600060608201905062003ced60008301866200345a565b62003cfc6020830185620038ea565b62003d0b60408301846200345a565b949350505050565b7f4e487b7100000000000000000000000000000000000000000000000000000000600052601160045260246000fd5b600062003d4f82620033b9565b915062003d5c83620033b9565b925082820190508082111562003d775762003d7662003d13565b5b92915050565b600062003d8a82620033b9565b91507fffffffffffffffffffffffffffffffffffffffffffffffffffffffffffffffff820362003dbf5762003dbe62003d13565b5b600182019050919050565b7f4e487b7100000000000000000000000000000000000000000000000000000000600052603260045260246000fd5b60008151905062003e0a81620033c3565b92915050565b60006020828403121562003e295762003e2862003228565b5b600062003e398482850162003df9565b91505092915050565b7f416c7265616479206672616374696f6e616c697a656400000000000000000000600082015250565b600062003e7a60168362003306565b915062003e878262003e42565b602082019050919050565b6000602082019050818103600083015262003ead8162003e6b565b9050919050565b600060408201905062003ecb60008301856200345a565b62003eda6020830184620038ea565b9392505050565b60008151905062003ef28162003918565b92915050565b60006020828403121562003f115762003f1062003228565b5b600062003f218482850162003ee1565b91505092915050565b600081905092915050565b600062003f4282620032fb565b62003f4e818562003f2a565b935062003f6081856020860162003317565b80840191505092915050565b600062003f7a828562003f35565b915062003f88828462003f35565b91508190509392505050565b7f4e487b7100000000000000000000000000000000000000000000000000000000600052601260045260246000fd5b600062003fd082620033b9565b915062003fdd83620033b9565b92508262003ff05762003fef62003f94565b5b828204905092915050565b60006200400882620033b9565b91506200401583620033b9565b92508282026200402581620033b9565b915082820484148315176200403f576200403e62003d13565b5b5092915050565b7f496e636f7272656374204554482076616c75652073656e740000000000000000600082015250565b60006200407e60188362003306565b91506200408b8262004046565b602082019050919050565b60006020820190508181036000830152620040b1816200406f565b9050919050565b6000819050919050565b6000620040e3620040dd620040d78462003426565b620040b8565b62003426565b9050919050565b6000620040f782620040c2565b9050919050565b60006200410b82620040ea565b9050919050565b6200411d81620040fe565b82525050565b60006040820190506200413a600083018562004112565b6200414960208301846200345a565b9392505050565b7f436f6e7472616374206e6f7420617070726f76656420746f207472616e73666560008201527f722074686520726571756972656420616d6f756e74206f6620746f6b656e7300602082015250565b6000620041ae603f8362003306565b9150620041bb8262004150565b604082019050919050565b60006020820190508181036000830152620041e1816200419f565b9050919050565b6000606082019050620041ff600083018662004112565b6200420e60208301856200345a565b6200421d6040830184620038ea565b949350505050565b7f526571756573746564206672616374696f6e20616d6f756e742065786365656460008201527f7320746f74616c20737570706c79000000000000000000000000000000000000602082015250565b600062004283602e8362003306565b9150620042908262004225565b604082019050919050565b60006020820190508181036000830152620042b68162004274565b9050919050565b600081519050919050565b600082825260208201905092915050565b6000620042e682620042bd565b620042f28185620042c8565b93506200430481856020860162003317565b6200430f8162003343565b840191505092915050565b60006080820190506200433160008301876200345a565b6200434060208301866200345a565b6200434f6040830185620038ea565b8181036060830152620043638184620042d9565b905095945050505050565b6000815190506200437f816200325e565b92915050565b6000602082840312156200439e576200439d62003228565b5b6000620043ae848285016200436e565b91505092915050565b6000620043c482620033b9565b9150620043d183620033b9565b9250828203905081811115620043ec57620043eb62003d13565b5b92915050565b7f4e487b7100000000000000000000000000000000000000000000000000000000600052603160045260246000fdfe60806040523480156200001157600080fd5b5060405162001704380380620017048339818101604052810190620000379190620003df565b6040518060400160405280600d81526020017f4672616374696f6e616c4e4654000000000000000000000000000000000000008152506040518060400160405280600481526020017f464e4654000000000000000000000000000000000000000000000000000000008152508160039081620000b4919062000681565b508060049081620000c6919062000681565b505050620000db3382620000e260201b60201c565b506200089f565b600073ffffffffffffffffffffffffffffffffffffffff168273ffffffffffffffffffffffffffffffffffffffff1603620001575760006040517fec442f050000000000000000000000000000000000000000000000000000000081526004016200014e9190620007ad565b60405180910390fd5b6200016b600083836200016f60201b60201c565b5050565b600073ffffffffffffffffffffffffffffffffffffffff168373ffffffffffffffffffffffffffffffffffffffff1603620001c5578060026000828254620001b89190620007f9565b925050819055506200029b565b60008060008573ffffffffffffffffffffffffffffffffffffffff1673ffffffffffffffffffffffffffffffffffffffff1681526020019081526020016000205490508181101562000254578381836040517fe450d38c0000000000000000000000000000000000000000000000000000000081526004016200024b9392919062000845565b60405180910390fd5b8181036000808673ffffffffffffffffffffffffffffffffffffffff1673ffffffffffffffffffffffffffffffffffffffff16815260200190815260200160002081905550505b600073ffffffffffffffffffffffffffffffffffffffff168273ffffffffffffffffffffffffffffffffffffffff1603620002e6578060026000828254039250508190555062000333565b806000808473ffffffffffffffffffffffffffffffffffffffff1673ffffffffffffffffffffffffffffffffffffffff168152602001908152602001600020600082825401925050819055505b8173ffffffffffffffffffffffffffffffffffffffff168373ffffffffffffffffffffffffffffffffffffffff167fddf252ad1be2c89b69c2b068fc378daa952ba7f163c4a11628f55a4df523b3ef8360405162000392919062000882565b60405180910390a3505050565b600080fd5b6000819050919050565b620003b981620003a4565b8114620003c557600080fd5b50565b600081519050620003d981620003ae565b92915050565b600060208284031215620003f857620003f76200039f565b5b60006200040884828501620003c8565b91505092915050565b600081519050919050565b7f4e487b7100000000000000000000000000000000000000000000000000000000600052604160045260246000fd5b7f4e487b7100000000000000000000000000000000000000000000000000000000600052602260045260246000fd5b600060028204905060018216806200049357607f821691505b602082108103620004a957620004a86200044b565b5b50919050565b60008190508160005260206000209050919050565b60006020601f8301049050919050565b600082821b905092915050565b600060088302620005137fffffffffffffffffffffffffffffffffffffffffffffffffffffffffffffffff82620004d4565b6200051f8683620004d4565b95508019841693508086168417925050509392505050565b6000819050919050565b6000620005626200055c6200055684620003a4565b62000537565b620003a4565b9050919050565b6000819050919050565b6200057e8362000541565b620005966200058d8262000569565b848454620004e1565b825550505050565b600090565b620005ad6200059e565b620005ba81848462000573565b505050565b5b81811015620005e257620005d6600082620005a3565b600181019050620005c0565b5050565b601f8211156200063157620005fb81620004af565b6200060684620004c4565b8101602085101562000616578190505b6200062e6200062585620004c4565b830182620005bf565b50505b505050565b600082821c905092915050565b6000620006566000198460080262000636565b1980831691505092915050565b600062000671838362000643565b9150826002028217905092915050565b6200068c8262000411565b67ffffffffffffffff811115620006a857620006a76200041c565b5b620006b482546200047a565b620006c1828285620005e6565b600060209050601f831160018114620006f95760008415620006e4578287015190505b620006f0858262000663565b86555062000760565b601f1984166200070986620004af565b60005b8281101562000733578489015182556001820191506020850194506020810190506200070c565b868310156200075357848901516200074f601f89168262000643565b8355505b6001600288020188555050505b505050505050565b600073ffffffffffffffffffffffffffffffffffffffff82169050919050565b6000620007958262000768565b9050919050565b620007a78162000788565b82525050565b6000602082019050620007c460008301846200079c565b92915050565b7f4e487b7100000000000000000000000000000000000000000000000000000000600052601160045260246000fd5b60006200080682620003a4565b91506200081383620003a4565b92508282019050808211156200082e576200082d620007ca565b5b92915050565b6200083f81620003a4565b82525050565b60006060820190506200085c60008301866200079c565b6200086b602083018562000834565b6200087a604083018462000834565b949350505050565b600060208201905062000899600083018462000834565b92915050565b610e5580620008af6000396000f3fe608060405234801561001057600080fd5b50600436106100935760003560e01c8063313ce56711610066578063313ce5671461013457806370a082311461015257806395d89b4114610182578063a9059cbb146101a0578063dd62ed3e146101d057610093565b806306fdde0314610098578063095ea7b3146100b657806318160ddd146100e657806323b872dd14610104575b600080fd5b6100a0610200565b6040516100ad9190610aa9565b60405180910390f35b6100d060048036038101906100cb9190610b64565b610292565b6040516100dd9190610bbf565b60405180910390f35b6100ee6102b5565b6040516100fb9190610be9565b60405180910390f35b61011e60048036038101906101199190610c04565b6102bf565b60405161012b9190610bbf565b60405180910390f35b61013c6102ee565b6040516101499190610c73565b60405180910390f35b61016c60048036038101906101679190610c8e565b6102f7565b6040516101799190610be9565b60405180910390f35b61018a61033f565b6040516101979190610aa9565b60405180910390f35b6101ba60048036038101906101b59190610b64565b6103d1565b6040516101c79190610bbf565b60405180910390f35b6101ea60048036038101906101e59190610cbb565b6103f4565b6040516101f79190610be9565b60405180910390f35b60606003805461020f90610d2a565b80601f016020809104026020016040519081016040528092919081815260200182805461023b90610d2a565b80156102885780601f1061025d57610100808354040283529160200191610288565b820191906000526020600020905b81548152906001019060200180831161026b57829003601f168201915b5050505050905090565b60008061029d61047b565b90506102aa818585610483565b600191505092915050565b6000600254905090565b6000806102ca61047b565b90506102d7858285610495565b6102e2858585610529565b60019150509392505050565b60006012905090565b60008060008373ffffffffffffffffffffffffffffffffffffffff1673ffffffffffffffffffffffffffffffffffffffff168152602001908152602001600020549050919050565b60606004805461034e90610d2a565b80601f016020809104026020016040519081016040528092919081815260200182805461037a90610d2a565b80156103c75780601f1061039c576101008083540402835291602001916103c7565b820191906000526020600020905b8154815290600101906020018083116103aa57829003601f168201915b5050505050905090565b6000806103dc61047b565b90506103e9818585610529565b600191505092915050565b6000600160008473ffffffffffffffffffffffffffffffffffffffff1673ffffffffffffffffffffffffffffffffffffffff16815260200190815260200160002060008373ffffffffffffffffffffffffffffffffffffffff1673ffffffffffffffffffffffffffffffffffffffff16815260200190815260200160002054905092915050565b600033905090565b610490838383600161061d565b505050565b60006104a184846103f4565b90507fffffffffffffffffffffffffffffffffffffffffffffffffffffffffffffffff81146105235781811015610513578281836040517ffb8f41b200000000000000000000000000000000000000000000000000000000815260040161050a93929190610d6a565b60405180910390fd5b6105228484848403600061061d565b5b50505050565b600073ffffffffffffffffffffffffffffffffffffffff168373ffffffffffffffffffffffffffffffffffffffff160361059b5760006040517f96c6fd1e0000000000000000000000000000000000000000000000000000000081526004016105929190610da1565b60405180910390fd5b600073ffffffffffffffffffffffffffffffffffffffff168273ffffffffffffffffffffffffffffffffffffffff160361060d5760006040517fec442f050000000000000000000000000000000000000000000000000000000081526004016106049190610da1565b60405180910390fd5b6106188383836107f4565b505050565b600073ffffffffffffffffffffffffffffffffffffffff168473ffffffffffffffffffffffffffffffffffffffff160361068f5760006040517fe602df050000000000000000000000000000000000000000000000000000000081526004016106869190610da1565b60405180910390fd5b600073ffffffffffffffffffffffffffffffffffffffff168373ffffffffffffffffffffffffffffffffffffffff16036107015760006040517f94280d620000000000000000000000000000000000000000000000000000000081526004016106f89190610da1565b60405180910390fd5b81600160008673ffffffffffffffffffffffffffffffffffffffff1673ffffffffffffffffffffffffffffffffffffffff16815260200190815260200160002060008573ffffffffffffffffffffffffffffffffffffffff1673ffffffffffffffffffffffffffffffffffffffff1681526020019081526020016000208190555080156107ee578273ffffffffffffffffffffffffffffffffffffffff168473ffffffffffffffffffffffffffffffffffffffff167f8c5be1e5ebec7d5bd14f71427d1e84f3dd0314c0f7b2291e5b200ac8c7c3b925846040516107e59190610be9565b60405180910390a35b50505050565b600073ffffffffffffffffffffffffffffffffffffffff168373ffffffffffffffffffffffffffffffffffffffff160361084657806002600082825461083a9190610deb565b92505081905550610919565b60008060008573ffffffffffffffffffffffffffffffffffffffff1673ffffffffffffffffffffffffffffffffffffffff168152602001908152602001600020549050818110156108d2578381836040517fe450d38c0000000000000000000000000000000000000000000000000000000081526004016108c993929190610d6a565b60405180910390fd5b8181036000808673ffffffffffffffffffffffffffffffffffffffff1673ffffffffffffffffffffffffffffffffffffffff16815260200190815260200160002081905550505b600073ffffffffffffffffffffffffffffffffffffffff168273ffffffffffffffffffffffffffffffffffffffff160361096257806002600082825403925050819055506109af565b806000808473ffffffffffffffffffffffffffffffffffffffff1673ffffffffffffffffffffffffffffffffffffffff168152602001908152602001600020600082825401925050819055505b8173ffffffffffffffffffffffffffffffffffffffff168373ffffffffffffffffffffffffffffffffffffffff167fddf252ad1be2c89b69c2b068fc378daa952ba7f163c4a11628f55a4df523b3ef83604051610a0c9190610be9565b60405180910390a3505050565b600081519050919050565b600082825260208201905092915050565b60005b83811015610a53578082015181840152602081019050610a38565b60008484015250505050565b6000601f19601f8301169050919050565b6000610a7b82610a19565b610a858185610a24565b9350610a95818560208601610a35565b610a9e81610a5f565b840191505092915050565b60006020820190508181036000830152610ac38184610a70565b905092915050565b600080fd5b600073ffffffffffffffffffffffffffffffffffffffff82169050919050565b6000610afb82610ad0565b9050919050565b610b0b81610af0565b8114610b1657600080fd5b50565b600081359050610b2881610b02565b92915050565b6000819050919050565b610b4181610b2e565b8114610b4c57600080fd5b50565b600081359050610b5e81610b38565b92915050565b60008060408385031215610b7b57610b7a610acb565b5b6000610b8985828601610b19565b9250506020610b9a85828601610b4f565b9150509250929050565b60008115159050919050565b610bb981610ba4565b82525050565b6000602082019050610bd46000830184610bb0565b92915050565b610be381610b2e565b82525050565b6000602082019050610bfe6000830184610bda565b92915050565b600080600060608486031215610c1d57610c1c610acb565b5b6000610c2b86828701610b19565b9350506020610c3c86828701610b19565b9250506040610c4d86828701610b4f565b9150509250925092565b600060ff82169050919050565b610c6d81610c57565b82525050565b6000602082019050610c886000830184610c64565b92915050565b600060208284031215610ca457610ca3610acb565b5b6000610cb284828501610b19565b91505092915050565b60008060408385031215610cd257610cd1610acb565b5b6000610ce085828601610b19565b9250506020610cf185828601610b19565b9150509250929050565b7f4e487b7100000000000000000000000000000000000000000000000000000000600052602260045260246000fd5b60006002820490506001821680610d4257607f821691505b602082108103610d5557610d54610cfb565b5b50919050565b610d6481610af0565b82525050565b6000606082019050610d7f6000830186610d5b565b610d8c6020830185610bda565b610d996040830184610bda565b949350505050565b6000602082019050610db66000830184610d5b565b92915050565b7f4e487b7100000000000000000000000000000000000000000000000000000000600052601160045260246000fd5b6000610df682610b2e565b9150610e0183610b2e565b9250828201905080821115610e1957610e18610dbc565b5b9291505056fea264697066735822122061ec45f571c0130bf91706560766eb06b203d46eebb36fac77030a0cfbccc38a64736f6c63430008140033a2646970667358221220adb65c41ee6be1ac3be07eadd3547de4e1b6005b1f816e824709f27c73336f5b64736f6c63430008140033",
  "linkReferences": {},
  "deployedLinkReferences": {}
}