{
  "_format": "hh-sol-artifact-1",
  "contractName": "Marketplace",
  "sourceName": "contracts/Marketplace.sol",
  "abi": [
    {
      "inputs": [],
      "stateMutability": "nonpayable",
      "type": "constructor"
    },
    {
      "inputs": [
        {
          "internalType": "address",
          "name": "sender",
          "type": "address"
        },
        {
          "internalType": "uint256",
          "name": "tokenId",
          "type": "uint256"
        },
        {
          "internalType": "address",
          "name": "owner",
          "type": "address"
        }
      ],
      "name": "ERC721IncorrectOwner",
      "type": "error"
    },
    {
      "inputs": [
        {
          "internalType": "address",
          "name": "operator",
          "type": "address"
        },
        {
          "internalType": "uint256",
          "name": "tokenId",
          "type": "uint256"
        }
      ],
      "name": "ERC721InsufficientApproval",
      "type": "error"
    },
    {
      "inputs": [
        {
          "internalType": "address",
          "name": "approver",
          "type": "address"
        }
      ],
      "name": "ERC721InvalidApprover",
      "type": "error"
    },
    {
      "inputs": [
        {
          "internalType": "address",
          "name": "operator",
          "type": "address"
        }
      ],
      "name": "ERC721InvalidOperator",
      "type": "error"
    },
    {
      "inputs": [
        {
          "internalType": "address",
          "name": "owner",
          "type": "address"
        }
      ],
      "name": "ERC721InvalidOwner",
      "type": "error"
    },
    {
      "inputs": [
        {
          "internalType": "address",
          "name": "receiver",
          "type": "address"
        }
      ],
      "name": "ERC721InvalidReceiver",
      "type": "error"
    },
    {
      "inputs": [
        {
          "internalType": "address",
          "name": "sender",
          "type": "address"
        }
      ],
      "name": "ERC721InvalidSender",
      "type": "error"
    },
    {
      "inputs": [
        {
          "internalType": "uint256",
          "name": "tokenId",
          "type": "uint256"
        }
      ],
      "name": "ERC721NonexistentToken",
      "type": "error"
    },
    {
      "anonymous": false,
      "inputs": [
        {
          "indexed": true,
          "internalType": "address",
          "name": "owner",
          "type": "address"
        },
        {
          "indexed": true,
          "internalType": "address",
          "name": "approved",
          "type": "address"
        },
        {
          "indexed": true,
          "internalType": "uint256",
          "name": "tokenId",
          "type": "uint256"
        }
      ],
      "name": "Approval",
      "type": "event"
    },
    {
      "anonymous": false,
      "inputs": [
        {
          "indexed": true,
          "internalType": "address",
          "name": "owner",
          "type": "address"
        },
        {
          "indexed": true,
          "internalType": "address",
          "name": "operator",
          "type": "address"
        },
        {
          "indexed": false,
          "internalType": "bool",
          "name": "approved",
          "type": "bool"
        }
      ],
      "name": "ApprovalForAll",
      "type": "event"
    },
    {
      "anonymous": false,
      "inputs": [
        {
          "indexed": false,
          "internalType": "uint256",
          "name": "_fromTokenId",
          "type": "uint256"
        },
        {
          "indexed": false,
          "internalType": "uint256",
          "name": "_toTokenId",
          "type": "uint256"
        }
      ],
      "name": "BatchMetadataUpdate",
      "type": "event"
    },
    {
      "anonymous": false,
      "inputs": [
        {
          "indexed": false,
          "internalType": "uint256",
          "name": "_tokenId",
          "type": "uint256"
        }
      ],
      "name": "MetadataUpdate",
      "type": "event"
    },
    {
      "anonymous": false,
      "inputs": [
        {
          "indexed": true,
          "internalType": "uint256",
          "name": "tokenId",
          "type": "uint256"
        },
        {
          "indexed": false,
          "internalType": "string",
          "name": "tokenURI",
          "type": "string"
        },
        {
          "indexed": false,
          "internalType": "address",
          "name": "owner",
          "type": "address"
        },
        {
          "indexed": false,
          "internalType": "address",
          "name": "seller",
          "type": "address"
        },
        {
          "indexed": false,
          "internalType": "uint256",
          "name": "price",
          "type": "uint256"
        },
        {
          "indexed": false,
          "internalType": "bool",
          "name": "currentlyListed",
          "type": "bool"
        }
      ],
      "name": "TokenListedSuccess",
      "type": "event"
    },
    {
      "anonymous": false,
      "inputs": [
        {
          "indexed": true,
          "internalType": "address",
          "name": "from",
          "type": "address"
        },
        {
          "indexed": true,
          "internalType": "address",
          "name": "to",
          "type": "address"
        },
        {
          "indexed": true,
          "internalType": "uint256",
          "name": "tokenId",
          "type": "uint256"
        }
      ],
      "name": "Transfer",
      "type": "event"
    },
    {
      "inputs": [
        {
          "internalType": "address",
          "name": "to",
          "type": "address"
        },
        {
          "internalType": "uint256",
          "name": "tokenId",
          "type": "uint256"
        }
      ],
      "name": "approve",
      "outputs": [],
      "stateMutability": "nonpayable",
      "type": "function"
    },
    {
      "inputs": [
        {
          "internalType": "address",
          "name": "owner",
          "type": "address"
        }
      ],
      "name": "balanceOf",
      "outputs": [
        {
          "internalType": "uint256",
          "name": "",
          "type": "uint256"
        }
      ],
      "stateMutability": "view",
      "type": "function"
    },
    {
      "inputs": [
        {
          "internalType": "string",
          "name": "tokenURI",
          "type": "string"
        },
        {
          "internalType": "uint256",
          "name": "price",
          "type": "uint256"
        }
      ],
      "name": "createToken",
      "outputs": [
        {
          "internalType": "uint256",
          "name": "",
          "type": "uint256"
        }
      ],
      "stateMutability": "payable",
      "type": "function"
    },
    {
      "inputs": [
        {
          "internalType": "uint256",
          "name": "tokenId",
          "type": "uint256"
        }
      ],
      "name": "executeSale",
      "outputs": [],
      "stateMutability": "payable",
      "type": "function"
    },
    {
      "inputs": [],
      "name": "getAllNFTs",
      "outputs": [
        {
          "components": [
            {
              "internalType": "uint256",
              "name": "tokenId",
              "type": "uint256"
            },
            {
              "internalType": "string",
              "name": "tokenURI",
              "type": "string"
            },
            {
              "internalType": "address payable",
              "name": "owner",
              "type": "address"
            },
            {
              "internalType": "address payable",
              "name": "seller",
              "type": "address"
            },
            {
              "internalType": "uint256",
              "name": "price",
              "type": "uint256"
            },
            {
              "internalType": "bool",
              "name": "currentlyListed",
              "type": "bool"
            }
          ],
          "internalType": "struct Marketplace.ListedToken[]",
          "name": "",
          "type": "tuple[]"
        }
      ],
      "stateMutability": "view",
      "type": "function"
    },
    {
      "inputs": [
        {
          "internalType": "uint256",
          "name": "tokenId",
          "type": "uint256"
        }
      ],
      "name": "getApproved",
      "outputs": [
        {
          "internalType": "address",
          "name": "",
          "type": "address"
        }
      ],
      "stateMutability": "view",
      "type": "function"
    },
    {
      "inputs": [],
      "name": "getCurrentToken",
      "outputs": [
        {
          "internalType": "uint256",
          "name": "",
          "type": "uint256"
        }
      ],
      "stateMutability": "view",
      "type": "function"
    },
    {
      "inputs": [],
      "name": "getLatestIdToListedToken",
      "outputs": [
        {
          "components": [
            {
              "internalType": "uint256",
              "name": "tokenId",
              "type": "uint256"
            },
            {
              "internalType": "string",
              "name": "tokenURI",
              "type": "string"
            },
            {
              "internalType": "address payable",
              "name": "owner",
              "type": "address"
            },
            {
              "internalType": "address payable",
              "name": "seller",
              "type": "address"
            },
            {
              "internalType": "uint256",
              "name": "price",
              "type": "uint256"
            },
            {
              "internalType": "bool",
              "name": "currentlyListed",
              "type": "bool"
            }
          ],
          "internalType": "struct Marketplace.ListedToken",
          "name": "",
          "type": "tuple"
        }
      ],
      "stateMutability": "view",
      "type": "function"
    },
    {
      "inputs": [],
      "name": "getListPrice",
      "outputs": [
        {
          "internalType": "uint256",
          "name": "",
          "type": "uint256"
        }
      ],
      "stateMutability": "view",
      "type": "function"
    },
    {
      "inputs": [
        {
          "internalType": "uint256",
          "name": "tokenId",
          "type": "uint256"
        }
      ],
      "name": "getListedTokenForId",
      "outputs": [
        {
          "components": [
            {
              "internalType": "uint256",
              "name": "tokenId",
              "type": "uint256"
            },
            {
              "internalType": "string",
              "name": "tokenURI",
              "type": "string"
            },
            {
              "internalType": "address payable",
              "name": "owner",
              "type": "address"
            },
            {
              "internalType": "address payable",
              "name": "seller",
              "type": "address"
            },
            {
              "internalType": "uint256",
              "name": "price",
              "type": "uint256"
            },
            {
              "internalType": "bool",
              "name": "currentlyListed",
              "type": "bool"
            }
          ],
          "internalType": "struct Marketplace.ListedToken",
          "name": "",
          "type": "tuple"
        }
      ],
      "stateMutability": "view",
      "type": "function"
    },
    {
      "inputs": [],
      "name": "getMyNFTs",
      "outputs": [
        {
          "components": [
            {
              "internalType": "uint256",
              "name": "tokenId",
              "type": "uint256"
            },
            {
              "internalType": "string",
              "name": "tokenURI",
              "type": "string"
            },
            {
              "internalType": "address payable",
              "name": "owner",
              "type": "address"
            },
            {
              "internalType": "address payable",
              "name": "seller",
              "type": "address"
            },
            {
              "internalType": "uint256",
              "name": "price",
              "type": "uint256"
            },
            {
              "internalType": "bool",
              "name": "currentlyListed",
              "type": "bool"
            }
          ],
          "internalType": "struct Marketplace.ListedToken[]",
          "name": "",
          "type": "tuple[]"
        }
      ],
      "stateMutability": "view",
      "type": "function"
    },
    {
      "inputs": [
        {
          "internalType": "address",
          "name": "owner",
          "type": "address"
        },
        {
          "internalType": "address",
          "name": "operator",
          "type": "address"
        }
      ],
      "name": "isApprovedForAll",
      "outputs": [
        {
          "internalType": "bool",
          "name": "",
          "type": "bool"
        }
      ],
      "stateMutability": "view",
      "type": "function"
    },
    {
      "inputs": [],
      "name": "name",
      "outputs": [
        {
          "internalType": "string",
          "name": "",
          "type": "string"
        }
      ],
      "stateMutability": "view",
      "type": "function"
    },
    {
      "inputs": [
        {
          "internalType": "uint256",
          "name": "tokenId",
          "type": "uint256"
        }
      ],
      "name": "ownerOf",
      "outputs": [
        {
          "internalType": "address",
          "name": "",
          "type": "address"
        }
      ],
      "stateMutability": "view",
      "type": "function"
    },
    {
      "inputs": [
        {
          "internalType": "address",
          "name": "from",
          "type": "address"
        },
        {
          "internalType": "address",
          "name": "to",
          "type": "address"
        },
        {
          "internalType": "uint256",
          "name": "tokenId",
          "type": "uint256"
        }
      ],
      "name": "safeTransferFrom",
      "outputs": [],
      "stateMutability": "nonpayable",
      "type": "function"
    },
    {
      "inputs": [
        {
          "internalType": "address",
          "name": "from",
          "type": "address"
        },
        {
          "internalType": "address",
          "name": "to",
          "type": "address"
        },
        {
          "internalType": "uint256",
          "name": "tokenId",
          "type": "uint256"
        },
        {
          "internalType": "bytes",
          "name": "data",
          "type": "bytes"
        }
      ],
      "name": "safeTransferFrom",
      "outputs": [],
      "stateMutability": "nonpayable",
      "type": "function"
    },
    {
      "inputs": [
        {
          "internalType": "address",
          "name": "operator",
          "type": "address"
        },
        {
          "internalType": "bool",
          "name": "approved",
          "type": "bool"
        }
      ],
      "name": "setApprovalForAll",
      "outputs": [],
      "stateMutability": "nonpayable",
      "type": "function"
    },
    {
      "inputs": [
        {
          "internalType": "bytes4",
          "name": "interfaceId",
          "type": "bytes4"
        }
      ],
      "name": "supportsInterface",
      "outputs": [
        {
          "internalType": "bool",
          "name": "",
          "type": "bool"
        }
      ],
      "stateMutability": "view",
      "type": "function"
    },
    {
      "inputs": [],
      "name": "symbol",
      "outputs": [
        {
          "internalType": "string",
          "name": "",
          "type": "string"
        }
      ],
      "stateMutability": "view",
      "type": "function"
    },
    {
      "inputs": [
        {
          "internalType": "uint256",
          "name": "tokenId",
          "type": "uint256"
        }
      ],
      "name": "tokenURI",
      "outputs": [
        {
          "internalType": "string",
          "name": "",
          "type": "string"
        }
      ],
      "stateMutability": "view",
      "type": "function"
    },
    {
      "inputs": [
        {
          "internalType": "address",
          "name": "from",
          "type": "address"
        },
        {
          "internalType": "address",
          "name": "to",
          "type": "address"
        },
        {
          "internalType": "uint256",
          "name": "tokenId",
          "type": "uint256"
        }
      ],
      "name": "transferFrom",
      "outputs": [],
      "stateMutability": "nonpayable",
      "type": "function"
    },
    {
      "inputs": [
        {
          "internalType": "uint256",
          "name": "_listPrice",
          "type": "uint256"
        }
      ],
      "name": "updateListPrice",
      "outputs": [],
      "stateMutability": "payable",
      "type": "function"
    }
  ],
  "bytecode": "0x60806040526601c6bf52634000600a553480156200001c57600080fd5b506040518060400160405280600e81526020017f4e46544d61726b6574706c6163650000000000000000000000000000000000008152506040518060400160405280600481526020017f4e46544d0000000000000000000000000000000000000000000000000000000081525081600090816200009a919062000370565b508060019081620000ac919062000370565b50505033600960006101000a81548173ffffffffffffffffffffffffffffffffffffffff021916908373ffffffffffffffffffffffffffffffffffffffff16021790555062000457565b600081519050919050565b7f4e487b7100000000000000000000000000000000000000000000000000000000600052604160045260246000fd5b7f4e487b7100000000000000000000000000000000000000000000000000000000600052602260045260246000fd5b600060028204905060018216806200017857607f821691505b6020821081036200018e576200018d62000130565b5b50919050565b60008190508160005260206000209050919050565b60006020601f8301049050919050565b600082821b905092915050565b600060088302620001f87fffffffffffffffffffffffffffffffffffffffffffffffffffffffffffffffff82620001b9565b620002048683620001b9565b95508019841693508086168417925050509392505050565b6000819050919050565b6000819050919050565b6000620002516200024b62000245846200021c565b62000226565b6200021c565b9050919050565b6000819050919050565b6200026d8362000230565b620002856200027c8262000258565b848454620001c6565b825550505050565b600090565b6200029c6200028d565b620002a981848462000262565b505050565b5b81811015620002d157620002c560008262000292565b600181019050620002af565b5050565b601f8211156200032057620002ea8162000194565b620002f584620001a9565b8101602085101562000305578190505b6200031d6200031485620001a9565b830182620002ae565b50505b505050565b600082821c905092915050565b6000620003456000198460080262000325565b1980831691505092915050565b600062000360838362000332565b9150826002028217905092915050565b6200037b82620000f6565b67ffffffffffffffff81111562000397576200039662000101565b5b620003a382546200015f565b620003b0828285620002d5565b600060209050601f831160018114620003e85760008415620003d3578287015190505b620003df858262000352565b8655506200044f565b601f198416620003f88662000194565b60005b828110156200042257848901518255600182019150602085019450602081019050620003fb565b868310156200044257848901516200043e601f89168262000332565b8355505b6001600288020188555050505b505050505050565b613c8a80620004676000396000f3fe6080604052600436106101355760003560e01c80638e264590116100ab578063c322579c1161006f578063c322579c14610430578063c87b56dd1461044c578063d1a88ae514610489578063e0391b09146104b4578063e985e9c5146104df578063ef2d17461461051c57610135565b80638e2645901461035a57806395d89b41146103975780639b1225c4146103c2578063a22cb465146103de578063b88d4fde1461040757610135565b806342842e0e116100fd57806342842e0e14610231578063629cb2e41461025a5780636352211e1461028557806368f1945f146102c257806370a08231146102ed57806372b3b6201461032a57610135565b806301ffc9a71461013a57806306fdde0314610177578063081812fc146101a2578063095ea7b3146101df57806323b872dd14610208575b600080fd5b34801561014657600080fd5b50610161600480360381019061015c9190612b3c565b610547565b60405161016e9190612b84565b60405180910390f35b34801561018357600080fd5b5061018c6105a8565b6040516101999190612c2f565b60405180910390f35b3480156101ae57600080fd5b506101c960048036038101906101c49190612c87565b61063a565b6040516101d69190612cf5565b60405180910390f35b3480156101eb57600080fd5b5061020660048036038101906102019190612d3c565b610656565b005b34801561021457600080fd5b5061022f600480360381019061022a9190612d7c565b61066c565b005b34801561023d57600080fd5b5061025860048036038101906102539190612d7c565b61076e565b005b34801561026657600080fd5b5061026f61078e565b60405161027c9190612fa3565b60405180910390f35b34801561029157600080fd5b506102ac60048036038101906102a79190612c87565b610bf7565b6040516102b99190612cf5565b60405180910390f35b3480156102ce57600080fd5b506102d7610c09565b6040516102e49190612fd4565b60405180910390f35b3480156102f957600080fd5b50610314600480360381019061030f9190612fef565b610c13565b6040516103219190612fd4565b60405180910390f35b610344600480360381019061033f9190613151565b610ccd565b6040516103519190612fd4565b60405180910390f35b34801561036657600080fd5b50610381600480360381019061037c9190612c87565b610d17565b60405161038e9190613236565b60405180910390f35b3480156103a357600080fd5b506103ac610eb1565b6040516103b99190612c2f565b60405180910390f35b6103dc60048036038101906103d79190612c87565b610f43565b005b3480156103ea57600080fd5b5061040560048036038101906104009190613284565b611143565b005b34801561041357600080fd5b5061042e60048036038101906104299190613365565b611159565b005b61044a60048036038101906104459190612c87565b611176565b005b34801561045857600080fd5b50610473600480360381019061046e9190612c87565b611210565b6040516104809190612c2f565b60405180910390f35b34801561049557600080fd5b5061049e611323565b6040516104ab9190613236565b60405180910390f35b3480156104c057600080fd5b506104c96114c3565b6040516104d69190612fa3565b60405180910390f35b3480156104eb57600080fd5b50610506600480360381019061050191906133e8565b61171d565b6040516105139190612b84565b60405180910390f35b34801561052857600080fd5b506105316117b1565b60405161053e9190612fd4565b60405180910390f35b6000634906490660e01b7bffffffffffffffffffffffffffffffffffffffffffffffffffffffff1916827bffffffffffffffffffffffffffffffffffffffffffffffffffffffff191614806105a157506105a0826117bb565b5b9050919050565b6060600080546105b790613457565b80601f01602080910402602001604051908101604052809291908181526020018280546105e390613457565b80156106305780601f1061060557610100808354040283529160200191610630565b820191906000526020600020905b81548152906001019060200180831161061357829003601f168201915b5050505050905090565b60006106458261189d565b5061064f82611925565b9050919050565b6106688282610663611962565b61196a565b5050565b600073ffffffffffffffffffffffffffffffffffffffff168273ffffffffffffffffffffffffffffffffffffffff16036106de5760006040517f64a0ae920000000000000000000000000000000000000000000000000000000081526004016106d59190612cf5565b60405180910390fd5b60006106f283836106ed611962565b61197c565b90508373ffffffffffffffffffffffffffffffffffffffff168173ffffffffffffffffffffffffffffffffffffffff1614610768578382826040517f64283d7b00000000000000000000000000000000000000000000000000000000815260040161075f93929190613488565b60405180910390fd5b50505050565b61078983838360405180602001604052806000815250611159565b505050565b60606000600754905060008060005b838110156108b6573373ffffffffffffffffffffffffffffffffffffffff16600b60006001846107cd91906134ee565b815260200190815260200160002060020160009054906101000a900473ffffffffffffffffffffffffffffffffffffffff1673ffffffffffffffffffffffffffffffffffffffff16148061088e57503373ffffffffffffffffffffffffffffffffffffffff16600b600060018461084491906134ee565b815260200190815260200160002060030160009054906101000a900473ffffffffffffffffffffffffffffffffffffffff1673ffffffffffffffffffffffffffffffffffffffff16145b156108a3576001836108a091906134ee565b92505b80806108ae90613522565b91505061079d565b5060008267ffffffffffffffff8111156108d3576108d2613026565b5b60405190808252806020026020018201604052801561090c57816020015b6108f9612a6c565b8152602001906001900390816108f15790505b50905060005b84811015610bec573373ffffffffffffffffffffffffffffffffffffffff16600b600060018461094291906134ee565b815260200190815260200160002060020160009054906101000a900473ffffffffffffffffffffffffffffffffffffffff1673ffffffffffffffffffffffffffffffffffffffff161480610a0357503373ffffffffffffffffffffffffffffffffffffffff16600b60006001846109b991906134ee565b815260200190815260200160002060030160009054906101000a900473ffffffffffffffffffffffffffffffffffffffff1673ffffffffffffffffffffffffffffffffffffffff16145b15610bd9576000600182610a1791906134ee565b90506000600b60008381526020019081526020016000209050806040518060c001604052908160008201548152602001600182018054610a5690613457565b80601f0160208091040260200160405190810160405280929190818152602001828054610a8290613457565b8015610acf5780601f10610aa457610100808354040283529160200191610acf565b820191906000526020600020905b815481529060010190602001808311610ab257829003601f168201915b505050505081526020016002820160009054906101000a900473ffffffffffffffffffffffffffffffffffffffff1673ffffffffffffffffffffffffffffffffffffffff1673ffffffffffffffffffffffffffffffffffffffff1681526020016003820160009054906101000a900473ffffffffffffffffffffffffffffffffffffffff1673ffffffffffffffffffffffffffffffffffffffff1673ffffffffffffffffffffffffffffffffffffffff168152602001600482015481526020016005820160009054906101000a900460ff161515151581525050848681518110610bbc57610bbb61356a565b5b6020026020010181905250600185610bd491906134ee565b945050505b8080610be490613522565b915050610912565b508094505050505090565b6000610c028261189d565b9050919050565b6000600a54905090565b60008073ffffffffffffffffffffffffffffffffffffffff168273ffffffffffffffffffffffffffffffffffffffff1603610c865760006040517f89c62b64000000000000000000000000000000000000000000000000000000008152600401610c7d9190612cf5565b60405180910390fd5b600360008373ffffffffffffffffffffffffffffffffffffffff1673ffffffffffffffffffffffffffffffffffffffff168152602001908152602001600020549050919050565b600060076000815480929190610ce290613522565b919050555060006007549050610cf83382611b96565b610d028185611bb4565b610d0d818585611c10565b8091505092915050565b610d1f612a6c565b600b60008381526020019081526020016000206040518060c001604052908160008201548152602001600182018054610d5790613457565b80601f0160208091040260200160405190810160405280929190818152602001828054610d8390613457565b8015610dd05780601f10610da557610100808354040283529160200191610dd0565b820191906000526020600020905b815481529060010190602001808311610db357829003601f168201915b505050505081526020016002820160009054906101000a900473ffffffffffffffffffffffffffffffffffffffff1673ffffffffffffffffffffffffffffffffffffffff1673ffffffffffffffffffffffffffffffffffffffff1681526020016003820160009054906101000a900473ffffffffffffffffffffffffffffffffffffffff1673ffffffffffffffffffffffffffffffffffffffff1673ffffffffffffffffffffffffffffffffffffffff168152602001600482015481526020016005820160009054906101000a900460ff1615151515815250509050919050565b606060018054610ec090613457565b80601f0160208091040260200160405190810160405280929190818152602001828054610eec90613457565b8015610f395780601f10610f0e57610100808354040283529160200191610f39565b820191906000526020600020905b815481529060010190602001808311610f1c57829003601f168201915b5050505050905090565b6000600b60008381526020019081526020016000206004015490506000600b600084815260200190815260200160002060030160009054906101000a900473ffffffffffffffffffffffffffffffffffffffff169050813414610fdb576040517f08c379a0000000000000000000000000000000000000000000000000000000008152600401610fd29061360b565b60405180910390fd5b6001600b600085815260200190815260200160002060050160006101000a81548160ff02191690831515021790555033600b600085815260200190815260200160002060030160006101000a81548173ffffffffffffffffffffffffffffffffffffffff021916908373ffffffffffffffffffffffffffffffffffffffff1602179055506008600081548092919061107290613522565b9190505550611082303385611e32565b61108c3084610656565b600960009054906101000a900473ffffffffffffffffffffffffffffffffffffffff1673ffffffffffffffffffffffffffffffffffffffff166108fc600a549081150290604051600060405180830381858888f193505050501580156110f6573d6000803e3d6000fd5b508073ffffffffffffffffffffffffffffffffffffffff166108fc349081150290604051600060405180830381858888f1935050505015801561113d573d6000803e3d6000fd5b50505050565b61115561114e611962565b8383611f9f565b5050565b61116484848461066c565b6111708484848461210e565b50505050565b3373ffffffffffffffffffffffffffffffffffffffff16600960009054906101000a900473ffffffffffffffffffffffffffffffffffffffff1673ffffffffffffffffffffffffffffffffffffffff1614611206576040517f08c379a00000000000000000000000000000000000000000000000000000000081526004016111fd9061369d565b60405180910390fd5b80600a8190555050565b606061121b8261189d565b50600060066000848152602001908152602001600020805461123c90613457565b80601f016020809104026020016040519081016040528092919081815260200182805461126890613457565b80156112b55780601f1061128a576101008083540402835291602001916112b5565b820191906000526020600020905b81548152906001019060200180831161129857829003601f168201915b5050505050905060006112c66122c5565b905060008151036112db57819250505061131e565b6000825111156113105780826040516020016112f89291906136f9565b6040516020818303038152906040529250505061131e565b611319846122dc565b925050505b919050565b61132b612a6c565b60006007549050600b60008281526020019081526020016000206040518060c00160405290816000820154815260200160018201805461136a90613457565b80601f016020809104026020016040519081016040528092919081815260200182805461139690613457565b80156113e35780601f106113b8576101008083540402835291602001916113e3565b820191906000526020600020905b8154815290600101906020018083116113c657829003601f168201915b505050505081526020016002820160009054906101000a900473ffffffffffffffffffffffffffffffffffffffff1673ffffffffffffffffffffffffffffffffffffffff1673ffffffffffffffffffffffffffffffffffffffff1681526020016003820160009054906101000a900473ffffffffffffffffffffffffffffffffffffffff1673ffffffffffffffffffffffffffffffffffffffff1673ffffffffffffffffffffffffffffffffffffffff168152602001600482015481526020016005820160009054906101000a900460ff16151515158152505091505090565b60606000600754905060008167ffffffffffffffff8111156114e8576114e7613026565b5b60405190808252806020026020018201604052801561152157816020015b61150e612a6c565b8152602001906001900390816115065790505b5090506000805b8381101561171357600060018261153f91906134ee565b90506000600b60008381526020019081526020016000209050806040518060c00160405290816000820154815260200160018201805461157e90613457565b80601f01602080910402602001604051908101604052809291908181526020018280546115aa90613457565b80156115f75780601f106115cc576101008083540402835291602001916115f7565b820191906000526020600020905b8154815290600101906020018083116115da57829003601f168201915b505050505081526020016002820160009054906101000a900473ffffffffffffffffffffffffffffffffffffffff1673ffffffffffffffffffffffffffffffffffffffff1673ffffffffffffffffffffffffffffffffffffffff1681526020016003820160009054906101000a900473ffffffffffffffffffffffffffffffffffffffff1673ffffffffffffffffffffffffffffffffffffffff1673ffffffffffffffffffffffffffffffffffffffff168152602001600482015481526020016005820160009054906101000a900460ff1615151515815250508585815181106116e4576116e361356a565b5b60200260200101819052506001846116fc91906134ee565b93505050808061170b90613522565b915050611528565b5081935050505090565b6000600560008473ffffffffffffffffffffffffffffffffffffffff1673ffffffffffffffffffffffffffffffffffffffff16815260200190815260200160002060008373ffffffffffffffffffffffffffffffffffffffff1673ffffffffffffffffffffffffffffffffffffffff16815260200190815260200160002060009054906101000a900460ff16905092915050565b6000600754905090565b60007f80ac58cd000000000000000000000000000000000000000000000000000000007bffffffffffffffffffffffffffffffffffffffffffffffffffffffff1916827bffffffffffffffffffffffffffffffffffffffffffffffffffffffff1916148061188657507f5b5e139f000000000000000000000000000000000000000000000000000000007bffffffffffffffffffffffffffffffffffffffffffffffffffffffff1916827bffffffffffffffffffffffffffffffffffffffffffffffffffffffff1916145b80611896575061189582612345565b5b9050919050565b6000806118a9836123af565b9050600073ffffffffffffffffffffffffffffffffffffffff168173ffffffffffffffffffffffffffffffffffffffff160361191c57826040517f7e2732890000000000000000000000000000000000000000000000000000000081526004016119139190612fd4565b60405180910390fd5b80915050919050565b60006004600083815260200190815260200160002060009054906101000a900473ffffffffffffffffffffffffffffffffffffffff169050919050565b600033905090565b61197783838360016123ec565b505050565b600080611988846123af565b9050600073ffffffffffffffffffffffffffffffffffffffff168373ffffffffffffffffffffffffffffffffffffffff16146119ca576119c98184866125b1565b5b600073ffffffffffffffffffffffffffffffffffffffff168173ffffffffffffffffffffffffffffffffffffffff1614611a5b57611a0c6000856000806123ec565b6001600360008373ffffffffffffffffffffffffffffffffffffffff1673ffffffffffffffffffffffffffffffffffffffff168152602001908152602001600020600082825403925050819055505b600073ffffffffffffffffffffffffffffffffffffffff168573ffffffffffffffffffffffffffffffffffffffff1614611ade576001600360008773ffffffffffffffffffffffffffffffffffffffff1673ffffffffffffffffffffffffffffffffffffffff168152602001908152602001600020600082825401925050819055505b846002600086815260200190815260200160002060006101000a81548173ffffffffffffffffffffffffffffffffffffffff021916908373ffffffffffffffffffffffffffffffffffffffff160217905550838573ffffffffffffffffffffffffffffffffffffffff168273ffffffffffffffffffffffffffffffffffffffff167fddf252ad1be2c89b69c2b068fc378daa952ba7f163c4a11628f55a4df523b3ef60405160405180910390a4809150509392505050565b611bb0828260405180602001604052806000815250612675565b5050565b80600660008481526020019081526020016000209081611bd491906138c9565b507ff8e1a15aba9398e019f0b49df1a4fde98ee17ae345cb5f6b5e2c27f5033e8ce782604051611c049190612fd4565b60405180910390a15050565b600a543414611c54576040517f08c379a0000000000000000000000000000000000000000000000000000000008152600401611c4b90613a0d565b60405180910390fd5b60008111611c97576040517f08c379a0000000000000000000000000000000000000000000000000000000008152600401611c8e90613a9f565b60405180910390fd5b6040518060c001604052808481526020018381526020013073ffffffffffffffffffffffffffffffffffffffff1681526020013373ffffffffffffffffffffffffffffffffffffffff16815260200182815260200160011515815250600b6000858152602001908152602001600020600082015181600001556020820151816001019081611d2591906138c9565b5060408201518160020160006101000a81548173ffffffffffffffffffffffffffffffffffffffff021916908373ffffffffffffffffffffffffffffffffffffffff16021790555060608201518160030160006101000a81548173ffffffffffffffffffffffffffffffffffffffff021916908373ffffffffffffffffffffffffffffffffffffffff1602179055506080820151816004015560a08201518160050160006101000a81548160ff021916908315150217905550905050611dec333085611e32565b827f3af611a76998e60ab88414e453c169bbc063742ab49d1747b08221e1588dbc40833033856001604051611e25959493929190613abf565b60405180910390a2505050565b600073ffffffffffffffffffffffffffffffffffffffff168273ffffffffffffffffffffffffffffffffffffffff1603611ea45760006040517f64a0ae92000000000000000000000000000000000000000000000000000000008152600401611e9b9190612cf5565b60405180910390fd5b6000611eb28383600061197c565b9050600073ffffffffffffffffffffffffffffffffffffffff168173ffffffffffffffffffffffffffffffffffffffff1603611f2557816040517f7e273289000000000000000000000000000000000000000000000000000000008152600401611f1c9190612fd4565b60405180910390fd5b8373ffffffffffffffffffffffffffffffffffffffff168173ffffffffffffffffffffffffffffffffffffffff1614611f99578382826040517f64283d7b000000000000000000000000000000000000000000000000000000008152600401611f9093929190613488565b60405180910390fd5b50505050565b600073ffffffffffffffffffffffffffffffffffffffff168273ffffffffffffffffffffffffffffffffffffffff160361201057816040517f5b08ba180000000000000000000000000000000000000000000000000000000081526004016120079190612cf5565b60405180910390fd5b80600560008573ffffffffffffffffffffffffffffffffffffffff1673ffffffffffffffffffffffffffffffffffffffff16815260200190815260200160002060008473ffffffffffffffffffffffffffffffffffffffff1673ffffffffffffffffffffffffffffffffffffffff16815260200190815260200160002060006101000a81548160ff0219169083151502179055508173ffffffffffffffffffffffffffffffffffffffff168373ffffffffffffffffffffffffffffffffffffffff167f17307eab39ab6107e8899845ad3d59bd9653f200f220920489ca2b5937696c31836040516121019190612b84565b60405180910390a3505050565b60008373ffffffffffffffffffffffffffffffffffffffff163b11156122bf578273ffffffffffffffffffffffffffffffffffffffff1663150b7a02612152611962565b8685856040518563ffffffff1660e01b81526004016121749493929190613b6e565b6020604051808303816000875af19250505080156121b057506040513d601f19601f820116820180604052508101906121ad9190613bcf565b60015b612234573d80600081146121e0576040519150601f19603f3d011682016040523d82523d6000602084013e6121e5565b606091505b50600081510361222c57836040517f64a0ae920000000000000000000000000000000000000000000000000000000081526004016122239190612cf5565b60405180910390fd5b805181602001fd5b63150b7a0260e01b7bffffffffffffffffffffffffffffffffffffffffffffffffffffffff1916817bffffffffffffffffffffffffffffffffffffffffffffffffffffffff1916146122bd57836040517f64a0ae920000000000000000000000000000000000000000000000000000000081526004016122b49190612cf5565b60405180910390fd5b505b50505050565b606060405180602001604052806000815250905090565b60606122e78261189d565b5060006122f26122c5565b90506000815111612312576040518060200160405280600081525061233d565b8061231c84612691565b60405160200161232d9291906136f9565b6040516020818303038152906040525b915050919050565b60007f01ffc9a7000000000000000000000000000000000000000000000000000000007bffffffffffffffffffffffffffffffffffffffffffffffffffffffff1916827bffffffffffffffffffffffffffffffffffffffffffffffffffffffff1916149050919050565b60006002600083815260200190815260200160002060009054906101000a900473ffffffffffffffffffffffffffffffffffffffff169050919050565b80806124255750600073ffffffffffffffffffffffffffffffffffffffff168273ffffffffffffffffffffffffffffffffffffffff1614155b156125595760006124358461189d565b9050600073ffffffffffffffffffffffffffffffffffffffff168373ffffffffffffffffffffffffffffffffffffffff16141580156124a057508273ffffffffffffffffffffffffffffffffffffffff168173ffffffffffffffffffffffffffffffffffffffff1614155b80156124b357506124b1818461171d565b155b156124f557826040517fa9fbf51f0000000000000000000000000000000000000000000000000000000081526004016124ec9190612cf5565b60405180910390fd5b811561255757838573ffffffffffffffffffffffffffffffffffffffff168273ffffffffffffffffffffffffffffffffffffffff167f8c5be1e5ebec7d5bd14f71427d1e84f3dd0314c0f7b2291e5b200ac8c7c3b92560405160405180910390a45b505b836004600085815260200190815260200160002060006101000a81548173ffffffffffffffffffffffffffffffffffffffff021916908373ffffffffffffffffffffffffffffffffffffffff16021790555050505050565b6125bc83838361275f565b61267057600073ffffffffffffffffffffffffffffffffffffffff168373ffffffffffffffffffffffffffffffffffffffff160361263157806040517f7e2732890000000000000000000000000000000000000000000000000000000081526004016126289190612fd4565b60405180910390fd5b81816040517f177e802f000000000000000000000000000000000000000000000000000000008152600401612667929190613bfc565b60405180910390fd5b505050565b61267f8383612820565b61268c600084848461210e565b505050565b6060600060016126a084612919565b01905060008167ffffffffffffffff8111156126bf576126be613026565b5b6040519080825280601f01601f1916602001820160405280156126f15781602001600182028036833780820191505090505b509050600082602001820190505b600115612754578080600190039150507f3031323334353637383961626364656600000000000000000000000000000000600a86061a8153600a858161274857612747613c25565b5b049450600085036126ff575b819350505050919050565b60008073ffffffffffffffffffffffffffffffffffffffff168373ffffffffffffffffffffffffffffffffffffffff161415801561281757508273ffffffffffffffffffffffffffffffffffffffff168473ffffffffffffffffffffffffffffffffffffffff1614806127d857506127d7848461171d565b5b8061281657508273ffffffffffffffffffffffffffffffffffffffff166127fe83611925565b73ffffffffffffffffffffffffffffffffffffffff16145b5b90509392505050565b600073ffffffffffffffffffffffffffffffffffffffff168273ffffffffffffffffffffffffffffffffffffffff16036128925760006040517f64a0ae920000000000000000000000000000000000000000000000000000000081526004016128899190612cf5565b60405180910390fd5b60006128a08383600061197c565b9050600073ffffffffffffffffffffffffffffffffffffffff168173ffffffffffffffffffffffffffffffffffffffff16146129145760006040517f73c6ac6e00000000000000000000000000000000000000000000000000000000815260040161290b9190612cf5565b60405180910390fd5b505050565b600080600090507a184f03e93ff9f4daa797ed6e38ed64bf6a1f0100000000000000008310612977577a184f03e93ff9f4daa797ed6e38ed64bf6a1f010000000000000000838161296d5761296c613c25565b5b0492506040810190505b6d04ee2d6d415b85acef810000000083106129b4576d04ee2d6d415b85acef810000000083816129aa576129a9613c25565b5b0492506020810190505b662386f26fc1000083106129e357662386f26fc1000083816129d9576129d8613c25565b5b0492506010810190505b6305f5e1008310612a0c576305f5e1008381612a0257612a01613c25565b5b0492506008810190505b6127108310612a31576127108381612a2757612a26613c25565b5b0492506004810190505b60648310612a545760648381612a4a57612a49613c25565b5b0492506002810190505b600a8310612a63576001810190505b80915050919050565b6040518060c001604052806000815260200160608152602001600073ffffffffffffffffffffffffffffffffffffffff168152602001600073ffffffffffffffffffffffffffffffffffffffff168152602001600081526020016000151581525090565b6000604051905090565b600080fd5b600080fd5b60007fffffffff0000000000000000000000000000000000000000000000000000000082169050919050565b612b1981612ae4565b8114612b2457600080fd5b50565b600081359050612b3681612b10565b92915050565b600060208284031215612b5257612b51612ada565b5b6000612b6084828501612b27565b91505092915050565b60008115159050919050565b612b7e81612b69565b82525050565b6000602082019050612b996000830184612b75565b92915050565b600081519050919050565b600082825260208201905092915050565b60005b83811015612bd9578082015181840152602081019050612bbe565b60008484015250505050565b6000601f19601f8301169050919050565b6000612c0182612b9f565b612c0b8185612baa565b9350612c1b818560208601612bbb565b612c2481612be5565b840191505092915050565b60006020820190508181036000830152612c498184612bf6565b905092915050565b6000819050919050565b612c6481612c51565b8114612c6f57600080fd5b50565b600081359050612c8181612c5b565b92915050565b600060208284031215612c9d57612c9c612ada565b5b6000612cab84828501612c72565b91505092915050565b600073ffffffffffffffffffffffffffffffffffffffff82169050919050565b6000612cdf82612cb4565b9050919050565b612cef81612cd4565b82525050565b6000602082019050612d0a6000830184612ce6565b92915050565b612d1981612cd4565b8114612d2457600080fd5b50565b600081359050612d3681612d10565b92915050565b60008060408385031215612d5357612d52612ada565b5b6000612d6185828601612d27565b9250506020612d7285828601612c72565b9150509250929050565b600080600060608486031215612d9557612d94612ada565b5b6000612da386828701612d27565b9350506020612db486828701612d27565b9250506040612dc586828701612c72565b9150509250925092565b600081519050919050565b600082825260208201905092915050565b6000819050602082019050919050565b612e0481612c51565b82525050565b600082825260208201905092915050565b6000612e2682612b9f565b612e308185612e0a565b9350612e40818560208601612bbb565b612e4981612be5565b840191505092915050565b6000612e5f82612cb4565b9050919050565b612e6f81612e54565b82525050565b612e7e81612b69565b82525050565b600060c083016000830151612e9c6000860182612dfb565b5060208301518482036020860152612eb48282612e1b565b9150506040830151612ec96040860182612e66565b506060830151612edc6060860182612e66565b506080830151612eef6080860182612dfb565b5060a0830151612f0260a0860182612e75565b508091505092915050565b6000612f198383612e84565b905092915050565b6000602082019050919050565b6000612f3982612dcf565b612f438185612dda565b935083602082028501612f5585612deb565b8060005b85811015612f915784840389528151612f728582612f0d565b9450612f7d83612f21565b925060208a01995050600181019050612f59565b50829750879550505050505092915050565b60006020820190508181036000830152612fbd8184612f2e565b905092915050565b612fce81612c51565b82525050565b6000602082019050612fe96000830184612fc5565b92915050565b60006020828403121561300557613004612ada565b5b600061301384828501612d27565b91505092915050565b600080fd5b600080fd5b7f4e487b7100000000000000000000000000000000000000000000000000000000600052604160045260246000fd5b61305e82612be5565b810181811067ffffffffffffffff8211171561307d5761307c613026565b5b80604052505050565b6000613090612ad0565b905061309c8282613055565b919050565b600067ffffffffffffffff8211156130bc576130bb613026565b5b6130c582612be5565b9050602081019050919050565b82818337600083830152505050565b60006130f46130ef846130a1565b613086565b9050828152602081018484840111156131105761310f613021565b5b61311b8482856130d2565b509392505050565b600082601f8301126131385761313761301c565b5b81356131488482602086016130e1565b91505092915050565b6000806040838503121561316857613167612ada565b5b600083013567ffffffffffffffff81111561318657613185612adf565b5b61319285828601613123565b92505060206131a385828601612c72565b9150509250929050565b600060c0830160008301516131c56000860182612dfb565b50602083015184820360208601526131dd8282612e1b565b91505060408301516131f26040860182612e66565b5060608301516132056060860182612e66565b5060808301516132186080860182612dfb565b5060a083015161322b60a0860182612e75565b508091505092915050565b6000602082019050818103600083015261325081846131ad565b905092915050565b61326181612b69565b811461326c57600080fd5b50565b60008135905061327e81613258565b92915050565b6000806040838503121561329b5761329a612ada565b5b60006132a985828601612d27565b92505060206132ba8582860161326f565b9150509250929050565b600067ffffffffffffffff8211156132df576132de613026565b5b6132e882612be5565b9050602081019050919050565b6000613308613303846132c4565b613086565b90508281526020810184848401111561332457613323613021565b5b61332f8482856130d2565b509392505050565b600082601f83011261334c5761334b61301c565b5b813561335c8482602086016132f5565b91505092915050565b6000806000806080858703121561337f5761337e612ada565b5b600061338d87828801612d27565b945050602061339e87828801612d27565b93505060406133af87828801612c72565b925050606085013567ffffffffffffffff8111156133d0576133cf612adf565b5b6133dc87828801613337565b91505092959194509250565b600080604083850312156133ff576133fe612ada565b5b600061340d85828601612d27565b925050602061341e85828601612d27565b9150509250929050565b7f4e487b7100000000000000000000000000000000000000000000000000000000600052602260045260246000fd5b6000600282049050600182168061346f57607f821691505b60208210810361348257613481613428565b5b50919050565b600060608201905061349d6000830186612ce6565b6134aa6020830185612fc5565b6134b76040830184612ce6565b949350505050565b7f4e487b7100000000000000000000000000000000000000000000000000000000600052601160045260246000fd5b60006134f982612c51565b915061350483612c51565b925082820190508082111561351c5761351b6134bf565b5b92915050565b600061352d82612c51565b91507fffffffffffffffffffffffffffffffffffffffffffffffffffffffffffffffff820361355f5761355e6134bf565b5b600182019050919050565b7f4e487b7100000000000000000000000000000000000000000000000000000000600052603260045260246000fd5b7f506c65617365207375626d6974207468652061736b696e67207072696365206960008201527f6e206f7264657220746f20636f6d706c65746520746865207075726368617365602082015250565b60006135f5604083612baa565b915061360082613599565b604082019050919050565b60006020820190508181036000830152613624816135e8565b9050919050565b7f4f6e6c79206f776e65722063616e20757064617465206c697374696e6720707260008201527f6963650000000000000000000000000000000000000000000000000000000000602082015250565b6000613687602383612baa565b91506136928261362b565b604082019050919050565b600060208201905081810360008301526136b68161367a565b9050919050565b600081905092915050565b60006136d382612b9f565b6136dd81856136bd565b93506136ed818560208601612bbb565b80840191505092915050565b600061370582856136c8565b915061371182846136c8565b91508190509392505050565b60008190508160005260206000209050919050565b60006020601f8301049050919050565b600082821b905092915050565b60006008830261377f7fffffffffffffffffffffffffffffffffffffffffffffffffffffffffffffffff82613742565b6137898683613742565b95508019841693508086168417925050509392505050565b6000819050919050565b60006137c66137c16137bc84612c51565b6137a1565b612c51565b9050919050565b6000819050919050565b6137e0836137ab565b6137f46137ec826137cd565b84845461374f565b825550505050565b600090565b6138096137fc565b6138148184846137d7565b505050565b5b818110156138385761382d600082613801565b60018101905061381a565b5050565b601f82111561387d5761384e8161371d565b61385784613732565b81016020851015613866578190505b61387a61387285613732565b830182613819565b50505b505050565b600082821c905092915050565b60006138a060001984600802613882565b1980831691505092915050565b60006138b9838361388f565b9150826002028217905092915050565b6138d282612b9f565b67ffffffffffffffff8111156138eb576138ea613026565b5b6138f58254613457565b61390082828561383c565b600060209050601f8311600181146139335760008415613921578287015190505b61392b85826138ad565b865550613993565b601f1984166139418661371d565b60005b8281101561396957848901518255600182019150602085019450602081019050613944565b868310156139865784890151613982601f89168261388f565b8355505b6001600288020188555050505b505050505050565b7f486f706566756c6c792073656e64696e672074686520636f727265637420707260008201527f6963650000000000000000000000000000000000000000000000000000000000602082015250565b60006139f7602383612baa565b9150613a028261399b565b604082019050919050565b60006020820190508181036000830152613a26816139ea565b9050919050565b7f4d616b652073757265207468652070726963652069736e2774206e656761746960008201527f7665000000000000000000000000000000000000000000000000000000000000602082015250565b6000613a89602283612baa565b9150613a9482613a2d565b604082019050919050565b60006020820190508181036000830152613ab881613a7c565b9050919050565b600060a0820190508181036000830152613ad98188612bf6565b9050613ae86020830187612ce6565b613af56040830186612ce6565b613b026060830185612fc5565b613b0f6080830184612b75565b9695505050505050565b600081519050919050565b600082825260208201905092915050565b6000613b4082613b19565b613b4a8185613b24565b9350613b5a818560208601612bbb565b613b6381612be5565b840191505092915050565b6000608082019050613b836000830187612ce6565b613b906020830186612ce6565b613b9d6040830185612fc5565b8181036060830152613baf8184613b35565b905095945050505050565b600081519050613bc981612b10565b92915050565b600060208284031215613be557613be4612ada565b5b6000613bf384828501613bba565b91505092915050565b6000604082019050613c116000830185612ce6565b613c1e6020830184612fc5565b9392505050565b7f4e487b7100000000000000000000000000000000000000000000000000000000600052601260045260246000fdfea2646970667358221220a87139d2728835236a55641a06a14259626cf303c7206cafa6b6fcab351fbe9264736f6c63430008140033",
  "linkReferences": {},
  "deployedLinkReferences": {}
}