{
  "_format": "hh-sol-artifact-1",
  "contractName": "Marketplace",
  "sourceName": "contracts/Marketplace.sol",
  "abi": [
    {
      "inputs": [],
      "stateMutability": "nonpayable",
      "type": "constructor"
    },
    {
      "inputs": [
        {
          "internalType": "address",
          "name": "sender",
          "type": "address"
        },
        {
          "internalType": "uint256",
          "name": "tokenId",
          "type": "uint256"
        },
        {
          "internalType": "address",
          "name": "owner",
          "type": "address"
        }
      ],
      "name": "ERC721IncorrectOwner",
      "type": "error"
    },
    {
      "inputs": [
        {
          "internalType": "address",
          "name": "operator",
          "type": "address"
        },
        {
          "internalType": "uint256",
          "name": "tokenId",
          "type": "uint256"
        }
      ],
      "name": "ERC721InsufficientApproval",
      "type": "error"
    },
    {
      "inputs": [
        {
          "internalType": "address",
          "name": "approver",
          "type": "address"
        }
      ],
      "name": "ERC721InvalidApprover",
      "type": "error"
    },
    {
      "inputs": [
        {
          "internalType": "address",
          "name": "operator",
          "type": "address"
        }
      ],
      "name": "ERC721InvalidOperator",
      "type": "error"
    },
    {
      "inputs": [
        {
          "internalType": "address",
          "name": "owner",
          "type": "address"
        }
      ],
      "name": "ERC721InvalidOwner",
      "type": "error"
    },
    {
      "inputs": [
        {
          "internalType": "address",
          "name": "receiver",
          "type": "address"
        }
      ],
      "name": "ERC721InvalidReceiver",
      "type": "error"
    },
    {
      "inputs": [
        {
          "internalType": "address",
          "name": "sender",
          "type": "address"
        }
      ],
      "name": "ERC721InvalidSender",
      "type": "error"
    },
    {
      "inputs": [
        {
          "internalType": "uint256",
          "name": "tokenId",
          "type": "uint256"
        }
      ],
      "name": "ERC721NonexistentToken",
      "type": "error"
    },
    {
      "anonymous": false,
      "inputs": [
        {
          "indexed": true,
          "internalType": "address",
          "name": "owner",
          "type": "address"
        },
        {
          "indexed": true,
          "internalType": "address",
          "name": "approved",
          "type": "address"
        },
        {
          "indexed": true,
          "internalType": "uint256",
          "name": "tokenId",
          "type": "uint256"
        }
      ],
      "name": "Approval",
      "type": "event"
    },
    {
      "anonymous": false,
      "inputs": [
        {
          "indexed": true,
          "internalType": "address",
          "name": "owner",
          "type": "address"
        },
        {
          "indexed": true,
          "internalType": "address",
          "name": "operator",
          "type": "address"
        },
        {
          "indexed": false,
          "internalType": "bool",
          "name": "approved",
          "type": "bool"
        }
      ],
      "name": "ApprovalForAll",
      "type": "event"
    },
    {
      "anonymous": false,
      "inputs": [
        {
          "indexed": true,
          "internalType": "uint256",
          "name": "tokenId",
          "type": "uint256"
        },
        {
          "indexed": false,
          "internalType": "string",
          "name": "tokenURI",
          "type": "string"
        },
        {
          "indexed": false,
          "internalType": "address",
          "name": "owner",
          "type": "address"
        },
        {
          "indexed": false,
          "internalType": "address",
          "name": "seller",
          "type": "address"
        },
        {
          "indexed": false,
          "internalType": "uint256",
          "name": "price",
          "type": "uint256"
        },
        {
          "indexed": false,
          "internalType": "bool",
          "name": "currentlyListed",
          "type": "bool"
        }
      ],
      "name": "TokenListedSuccess",
      "type": "event"
    },
    {
      "anonymous": false,
      "inputs": [
        {
          "indexed": true,
          "internalType": "address",
          "name": "from",
          "type": "address"
        },
        {
          "indexed": true,
          "internalType": "address",
          "name": "to",
          "type": "address"
        },
        {
          "indexed": true,
          "internalType": "uint256",
          "name": "tokenId",
          "type": "uint256"
        }
      ],
      "name": "Transfer",
      "type": "event"
    },
    {
      "inputs": [
        {
          "internalType": "address",
          "name": "to",
          "type": "address"
        },
        {
          "internalType": "uint256",
          "name": "tokenId",
          "type": "uint256"
        }
      ],
      "name": "approve",
      "outputs": [],
      "stateMutability": "nonpayable",
      "type": "function"
    },
    {
      "inputs": [
        {
          "internalType": "address",
          "name": "owner",
          "type": "address"
        }
      ],
      "name": "balanceOf",
      "outputs": [
        {
          "internalType": "uint256",
          "name": "",
          "type": "uint256"
        }
      ],
      "stateMutability": "view",
      "type": "function"
    },
    {
      "inputs": [
        {
          "internalType": "uint256",
          "name": "tokenId",
          "type": "uint256"
        },
        {
          "internalType": "uint256",
          "name": "fractionAmount",
          "type": "uint256"
        }
      ],
      "name": "buyFraction",
      "outputs": [],
      "stateMutability": "payable",
      "type": "function"
    },
    {
      "inputs": [
        {
          "internalType": "uint256",
          "name": "tokenId",
          "type": "uint256"
        },
        {
          "internalType": "string",
          "name": "tokenURI",
          "type": "string"
        },
        {
          "internalType": "uint256",
          "name": "price",
          "type": "uint256"
        },
        {
          "internalType": "uint256",
          "name": "fractionSupply",
          "type": "uint256"
        }
      ],
      "name": "createListedToken",
      "outputs": [],
      "stateMutability": "payable",
      "type": "function"
    },
    {
      "inputs": [],
      "name": "getAllFractions",
      "outputs": [
        {
          "components": [
            {
              "internalType": "uint256",
              "name": "tokenId",
              "type": "uint256"
            },
            {
              "internalType": "uint256",
              "name": "fractionAmount",
              "type": "uint256"
            }
          ],
          "internalType": "struct Marketplace.FractOwner[]",
          "name": "",
          "type": "tuple[]"
        }
      ],
      "stateMutability": "view",
      "type": "function"
    },
    {
      "inputs": [],
      "name": "getAllNFTs",
      "outputs": [
        {
          "components": [
            {
              "internalType": "uint256",
              "name": "tokenId",
              "type": "uint256"
            },
            {
              "internalType": "string",
              "name": "tokenURI",
              "type": "string"
            },
            {
              "internalType": "address payable",
              "name": "owner",
              "type": "address"
            },
            {
              "internalType": "address payable",
              "name": "seller",
              "type": "address"
            },
            {
              "internalType": "uint256",
              "name": "price",
              "type": "uint256"
            },
            {
              "internalType": "bool",
              "name": "currentlyListed",
              "type": "bool"
            },
            {
              "internalType": "address",
              "name": "fractionalTokenAddress",
              "type": "address"
            }
          ],
          "internalType": "struct Marketplace.ListedToken[]",
          "name": "",
          "type": "tuple[]"
        }
      ],
      "stateMutability": "view",
      "type": "function"
    },
    {
      "inputs": [
        {
          "internalType": "uint256",
          "name": "tokenId",
          "type": "uint256"
        }
      ],
      "name": "getApproved",
      "outputs": [
        {
          "internalType": "address",
          "name": "",
          "type": "address"
        }
      ],
      "stateMutability": "view",
      "type": "function"
    },
    {
      "inputs": [
        {
          "internalType": "address",
          "name": "fractionalTokenAddress",
          "type": "address"
        }
      ],
      "name": "getBalanceSupplyOfTokens",
      "outputs": [
        {
          "internalType": "uint256",
          "name": "",
          "type": "uint256"
        }
      ],
      "stateMutability": "view",
      "type": "function"
    },
    {
      "inputs": [
        {
          "internalType": "address",
          "name": "owner",
          "type": "address"
        },
        {
          "internalType": "address",
          "name": "operator",
          "type": "address"
        }
      ],
      "name": "isApprovedForAll",
      "outputs": [
        {
          "internalType": "bool",
          "name": "",
          "type": "bool"
        }
      ],
      "stateMutability": "view",
      "type": "function"
    },
    {
      "inputs": [
        {
          "internalType": "uint256",
          "name": "tokenId",
          "type": "uint256"
        }
      ],
      "name": "listTheNFT",
      "outputs": [],
      "stateMutability": "payable",
      "type": "function"
    },
    {
      "inputs": [],
      "name": "name",
      "outputs": [
        {
          "internalType": "string",
          "name": "",
          "type": "string"
        }
      ],
      "stateMutability": "view",
      "type": "function"
    },
    {
      "inputs": [
        {
          "internalType": "uint256",
          "name": "tokenId",
          "type": "uint256"
        }
      ],
      "name": "ownerOf",
      "outputs": [
        {
          "internalType": "address",
          "name": "",
          "type": "address"
        }
      ],
      "stateMutability": "view",
      "type": "function"
    },
    {
      "inputs": [
        {
          "internalType": "address",
          "name": "from",
          "type": "address"
        },
        {
          "internalType": "address",
          "name": "to",
          "type": "address"
        },
        {
          "internalType": "uint256",
          "name": "tokenId",
          "type": "uint256"
        }
      ],
      "name": "safeTransferFrom",
      "outputs": [],
      "stateMutability": "nonpayable",
      "type": "function"
    },
    {
      "inputs": [
        {
          "internalType": "address",
          "name": "from",
          "type": "address"
        },
        {
          "internalType": "address",
          "name": "to",
          "type": "address"
        },
        {
          "internalType": "uint256",
          "name": "tokenId",
          "type": "uint256"
        },
        {
          "internalType": "bytes",
          "name": "data",
          "type": "bytes"
        }
      ],
      "name": "safeTransferFrom",
      "outputs": [],
      "stateMutability": "nonpayable",
      "type": "function"
    },
    {
      "inputs": [
        {
          "internalType": "address",
          "name": "operator",
          "type": "address"
        },
        {
          "internalType": "bool",
          "name": "approved",
          "type": "bool"
        }
      ],
      "name": "setApprovalForAll",
      "outputs": [],
      "stateMutability": "nonpayable",
      "type": "function"
    },
    {
      "inputs": [
        {
          "internalType": "bytes4",
          "name": "interfaceId",
          "type": "bytes4"
        }
      ],
      "name": "supportsInterface",
      "outputs": [
        {
          "internalType": "bool",
          "name": "",
          "type": "bool"
        }
      ],
      "stateMutability": "view",
      "type": "function"
    },
    {
      "inputs": [],
      "name": "symbol",
      "outputs": [
        {
          "internalType": "string",
          "name": "",
          "type": "string"
        }
      ],
      "stateMutability": "view",
      "type": "function"
    },
    {
      "inputs": [
        {
          "internalType": "uint256",
          "name": "tokenId",
          "type": "uint256"
        }
      ],
      "name": "tokenURI",
      "outputs": [
        {
          "internalType": "string",
          "name": "",
          "type": "string"
        }
      ],
      "stateMutability": "view",
      "type": "function"
    },
    {
      "inputs": [
        {
          "internalType": "address",
          "name": "from",
          "type": "address"
        },
        {
          "internalType": "address",
          "name": "to",
          "type": "address"
        },
        {
          "internalType": "uint256",
          "name": "tokenId",
          "type": "uint256"
        }
      ],
      "name": "transferFrom",
      "outputs": [],
      "stateMutability": "nonpayable",
      "type": "function"
    }
  ],
  "bytecode": "0x60806040526601c6bf526340006009553480156200001c57600080fd5b506040518060400160405280600e81526020017f4e46544d61726b6574706c6163650000000000000000000000000000000000008152506040518060400160405280600481526020017f4e46544d0000000000000000000000000000000000000000000000000000000081525081600090816200009a919062000370565b508060019081620000ac919062000370565b50505033600860006101000a81548173ffffffffffffffffffffffffffffffffffffffff021916908373ffffffffffffffffffffffffffffffffffffffff16021790555062000457565b600081519050919050565b7f4e487b7100000000000000000000000000000000000000000000000000000000600052604160045260246000fd5b7f4e487b7100000000000000000000000000000000000000000000000000000000600052602260045260246000fd5b600060028204905060018216806200017857607f821691505b6020821081036200018e576200018d62000130565b5b50919050565b60008190508160005260206000209050919050565b60006020601f8301049050919050565b600082821b905092915050565b600060088302620001f87fffffffffffffffffffffffffffffffffffffffffffffffffffffffffffffffff82620001b9565b620002048683620001b9565b95508019841693508086168417925050509392505050565b6000819050919050565b6000819050919050565b6000620002516200024b62000245846200021c565b62000226565b6200021c565b9050919050565b6000819050919050565b6200026d8362000230565b620002856200027c8262000258565b848454620001c6565b825550505050565b600090565b6200029c6200028d565b620002a981848462000262565b505050565b5b81811015620002d157620002c560008262000292565b600181019050620002af565b5050565b601f8211156200032057620002ea8162000194565b620002f584620001a9565b8101602085101562000305578190505b6200031d6200031485620001a9565b830182620002ae565b50505b505050565b600082821c905092915050565b6000620003456000198460080262000325565b1980831691505092915050565b600062000360838362000332565b9150826002028217905092915050565b6200037b82620000f6565b67ffffffffffffffff81111562000397576200039662000101565b5b620003a382546200015f565b620003b0828285620002d5565b600060209050601f831160018114620003e85760008415620003d3578287015190505b620003df858262000352565b8655506200044f565b601f198416620003f88662000194565b60005b828110156200042257848901518255600182019150602085019450602081019050620003fb565b868310156200044257848901516200043e601f89168262000332565b8355505b6001600288020188555050505b505050505050565b615e7f80620004676000396000f3fe6080604052600436106200012e5760003560e01c80636d78ab2311620000af578063c87b56dd116200006d578063c87b56dd146200041d578063d40b02141462000461578063e0391b091462000481578063e5ac0b4314620004b1578063e985e9c514620004d1576200012e565b80636d78ab23146200030957806370a08231146200034d57806395d89b411462000391578063a22cb46514620003c1578063b88d4fde14620003ef576200012e565b80630ee6b29c11620000fd5780630ee6b29c146200021957806323b872dd146200023957806342842e0e14620002675780634e1327ad14620002955780636352211e14620002c5576200012e565b806301ffc9a7146200013357806306fdde031462000177578063081812fc14620001a7578063095ea7b314620001eb575b600080fd5b3480156200014057600080fd5b506200015f60048036038101906200015991906200302b565b62000515565b6040516200016e91906200307a565b60405180910390f35b3480156200018457600080fd5b506200018f620005fb565b6040516200019e919062003131565b60405180910390f35b348015620001b457600080fd5b50620001d36004803603810190620001cd919062003190565b62000695565b604051620001e2919062003207565b60405180910390f35b348015620001f857600080fd5b5062000217600480360381019062000211919062003255565b620006b5565b005b62000237600480360381019062000231919062003190565b620006cf565b005b3480156200024657600080fd5b506200026560048036038101906200025f91906200329c565b620007a8565b005b3480156200027457600080fd5b506200029360048036038101906200028d91906200329c565b620008b4565b005b348015620002a257600080fd5b50620002ad620008d6565b604051620002bc9190620033f9565b60405180910390f35b348015620002d257600080fd5b50620002f16004803603810190620002eb919062003190565b62000988565b60405162000300919062003207565b60405180910390f35b3480156200031657600080fd5b506200033560048036038101906200032f91906200341d565b6200099c565b60405162000344919062003460565b60405180910390f35b3480156200035a57600080fd5b506200037960048036038101906200037391906200341d565b62000a2f565b60405162000388919062003460565b60405180910390f35b3480156200039e57600080fd5b50620003a962000aec565b604051620003b8919062003131565b60405180910390f35b348015620003ce57600080fd5b50620003ed6004803603810190620003e79190620034ae565b62000b86565b005b348015620003fc57600080fd5b506200041b600480360381019062000415919062003646565b62000ba0565b005b3480156200042a57600080fd5b5062000449600480360381019062000443919062003190565b62000bc1565b60405162000458919062003131565b60405180910390f35b6200047f6004803603810190620004799190620036d7565b62000c34565b005b3480156200048e57600080fd5b506200049962001267565b604051620004a8919062003931565b60405180910390f35b620004cf6004803603810190620004c9919062003a09565b62001531565b005b348015620004de57600080fd5b50620004fd6004803603810190620004f7919062003a9a565b6200183c565b6040516200050c91906200307a565b60405180910390f35b60007f80ac58cd000000000000000000000000000000000000000000000000000000007bffffffffffffffffffffffffffffffffffffffffffffffffffffffff1916827bffffffffffffffffffffffffffffffffffffffffffffffffffffffff19161480620005e157507f5b5e139f000000000000000000000000000000000000000000000000000000007bffffffffffffffffffffffffffffffffffffffffffffffffffffffff1916827bffffffffffffffffffffffffffffffffffffffffffffffffffffffff1916145b80620005f45750620005f382620018d0565b5b9050919050565b6060600080546200060c9062003b10565b80601f01602080910402602001604051908101604052809291908181526020018280546200063a9062003b10565b80156200068b5780601f106200065f576101008083540402835291602001916200068b565b820191906000526020600020905b8154815290600101906020018083116200066d57829003601f168201915b5050505050905090565b6000620006a2826200193a565b50620006ae82620019c7565b9050919050565b620006cb8282620006c562001a04565b62001a0c565b5050565b3373ffffffffffffffffffffffffffffffffffffffff16600b600083815260200190815260200160002060020160009054906101000a900473ffffffffffffffffffffffffffffffffffffffff1673ffffffffffffffffffffffffffffffffffffffff161462000776576040517f08c379a00000000000000000000000000000000000000000000000000000000081526004016200076d9062003b95565b60405180910390fd5b6001600b600083815260200190815260200160002060050160006101000a81548160ff02191690831515021790555050565b600073ffffffffffffffffffffffffffffffffffffffff168273ffffffffffffffffffffffffffffffffffffffff16036200081d5760006040517f64a0ae9200000000000000000000000000000000000000000000000000000000815260040162000814919062003207565b60405180910390fd5b60006200083583836200082f62001a04565b62001a20565b90508373ffffffffffffffffffffffffffffffffffffffff168173ffffffffffffffffffffffffffffffffffffffff1614620008ae578382826040517f64283d7b000000000000000000000000000000000000000000000000000000008152600401620008a59392919062003bb7565b60405180910390fd5b50505050565b620008d18383836040518060200160405280600081525062000ba0565b505050565b6060600a60003373ffffffffffffffffffffffffffffffffffffffff1673ffffffffffffffffffffffffffffffffffffffff168152602001908152602001600020805480602002602001604051908101604052809291908181526020016000905b828210156200097f5783829060005260206000209060020201604051806040016040529081600082015481526020016001820154815250508152602001906001019062000937565b50505050905090565b600062000995826200193a565b9050919050565b60008082905060008173ffffffffffffffffffffffffffffffffffffffff166370a08231306040518263ffffffff1660e01b8152600401620009df919062003207565b602060405180830381865afa158015620009fd573d6000803e3d6000fd5b505050506040513d601f19601f8201168201806040525081019062000a23919062003c0b565b90508092505050919050565b60008073ffffffffffffffffffffffffffffffffffffffff168273ffffffffffffffffffffffffffffffffffffffff160362000aa55760006040517f89c62b6400000000000000000000000000000000000000000000000000000000815260040162000a9c919062003207565b60405180910390fd5b600360008373ffffffffffffffffffffffffffffffffffffffff1673ffffffffffffffffffffffffffffffffffffffff168152602001908152602001600020549050919050565b60606001805462000afd9062003b10565b80601f016020809104026020016040519081016040528092919081815260200182805462000b2b9062003b10565b801562000b7c5780601f1062000b505761010080835404028352916020019162000b7c565b820191906000526020600020905b81548152906001019060200180831162000b5e57829003601f168201915b5050505050905090565b62000b9c62000b9462001a04565b838362001c43565b5050565b62000bad848484620007a8565b62000bbb8484848462001db7565b50505050565b606062000bce826200193a565b50600062000bdb62001f7f565b9050600081511162000bfd576040518060200160405280600081525062000c2c565b8062000c098462001f96565b60405160200162000c1c92919062003c7f565b6040516020818303038152906040525b915050919050565b6000600b600084815260200190815260200160002090506000808260050160019054906101000a900473ffffffffffffffffffffffffffffffffffffffff16905060008173ffffffffffffffffffffffffffffffffffffffff166318160ddd6040518163ffffffff1660e01b8152600401602060405180830381865afa15801562000cc3573d6000803e3d6000fd5b505050506040513d601f19601f8201168201806040525081019062000ce9919062003c0b565b90508085101562000f075780846004015462000d06919062003d05565b9250848362000d16919062003d3d565b341462000d5a576040517f08c379a000000000000000000000000000000000000000000000000000000000815260040162000d519062003dd8565b60405180910390fd5b60008273ffffffffffffffffffffffffffffffffffffffff1663dd62ed3e8660020160009054906101000a900473ffffffffffffffffffffffffffffffffffffffff16306040518363ffffffff1660e01b815260040162000dbd92919062003e65565b602060405180830381865afa15801562000ddb573d6000803e3d6000fd5b505050506040513d601f19601f8201168201806040525081019062000e01919062003c0b565b90508581101562000e49576040517f08c379a000000000000000000000000000000000000000000000000000000000815260040162000e409062003f08565b60405180910390fd5b8273ffffffffffffffffffffffffffffffffffffffff166323b872dd8660020160009054906101000a900473ffffffffffffffffffffffffffffffffffffffff1633896040518463ffffffff1660e01b815260040162000eac9392919062003f2a565b6020604051808303816000875af115801562000ecc573d6000803e3d6000fd5b505050506040513d601f19601f8201168201806040525081019062000ef2919062003f7e565b5062000f003388886200206f565b506200125f565b808503620012215780846004015462000f21919062003d05565b9250848362000f31919062003d3d565b341462000f75576040517f08c379a000000000000000000000000000000000000000000000000000000000815260040162000f6c9062003dd8565b60405180910390fd5b62000f823033886200226a565b60008273ffffffffffffffffffffffffffffffffffffffff1663dd62ed3e8660020160009054906101000a900473ffffffffffffffffffffffffffffffffffffffff16306040518363ffffffff1660e01b815260040162000fe592919062003e65565b602060405180830381865afa15801562001003573d6000803e3d6000fd5b505050506040513d601f19601f8201168201806040525081019062001029919062003c0b565b90508581101562001071576040517f08c379a0000000000000000000000000000000000000000000000000000000008152600401620010689062003f08565b60405180910390fd5b8273ffffffffffffffffffffffffffffffffffffffff166323b872dd8660020160009054906101000a900473ffffffffffffffffffffffffffffffffffffffff1633896040518463ffffffff1660e01b8152600401620010d49392919062003f2a565b6020604051808303816000875af1158015620010f4573d6000803e3d6000fd5b505050506040513d601f19601f820116820180604052508101906200111a919062003f7e565b5060008560050160006101000a81548160ff021916908315150217905550338560030160006101000a81548173ffffffffffffffffffffffffffffffffffffffff021916908373ffffffffffffffffffffffffffffffffffffffff16021790555060076000815480929190620011909062003fb0565b9190505550620011a13088620006b5565b8460030160009054906101000a900473ffffffffffffffffffffffffffffffffffffffff1673ffffffffffffffffffffffffffffffffffffffff166108fc349081150290604051600060405180830381858888f193505050501580156200120c573d6000803e3d6000fd5b506200121a338888620023e2565b506200125e565b6040517f08c379a0000000000000000000000000000000000000000000000000000000008152600401620012559062004073565b60405180910390fd5b5b505050505050565b60606000600654905060008167ffffffffffffffff8111156200128f576200128e620034ff565b5b604051908082528060200260200182016040528015620012cc57816020015b620012b862002f2b565b815260200190600190039081620012ae5790505b5090506000805b8381101562001527576000600182620012ed919062004095565b90506000600b60008381526020019081526020016000209050806040518060e0016040529081600082015481526020016001820180546200132e9062003b10565b80601f01602080910402602001604051908101604052809291908181526020018280546200135c9062003b10565b8015620013ad5780601f106200138157610100808354040283529160200191620013ad565b820191906000526020600020905b8154815290600101906020018083116200138f57829003601f168201915b505050505081526020016002820160009054906101000a900473ffffffffffffffffffffffffffffffffffffffff1673ffffffffffffffffffffffffffffffffffffffff1673ffffffffffffffffffffffffffffffffffffffff1681526020016003820160009054906101000a900473ffffffffffffffffffffffffffffffffffffffff1673ffffffffffffffffffffffffffffffffffffffff1673ffffffffffffffffffffffffffffffffffffffff168152602001600482015481526020016005820160009054906101000a900460ff161515151581526020016005820160019054906101000a900473ffffffffffffffffffffffffffffffffffffffff1673ffffffffffffffffffffffffffffffffffffffff1673ffffffffffffffffffffffffffffffffffffffff1681525050858581518110620014f357620014f2620040d0565b5b60200260200101819052506001846200150d919062004095565b9350505080806200151e9062003fb0565b915050620012d3565b5081935050505090565b600954341462001578576040517f08c379a00000000000000000000000000000000000000000000000000000000081526004016200156f9062004175565b60405180910390fd5b60008211620015be576040517f08c379a0000000000000000000000000000000000000000000000000000000008152600401620015b5906200420d565b60405180910390fd5b6040518060e001604052808581526020018481526020013073ffffffffffffffffffffffffffffffffffffffff1681526020013373ffffffffffffffffffffffffffffffffffffffff168152602001838152602001600115158152602001600073ffffffffffffffffffffffffffffffffffffffff16815250600b60008681526020019081526020016000206000820151816000015560208201518160010190816200166b9190620043f7565b5060408201518160020160006101000a81548173ffffffffffffffffffffffffffffffffffffffff021916908373ffffffffffffffffffffffffffffffffffffffff16021790555060608201518160030160006101000a81548173ffffffffffffffffffffffffffffffffffffffff021916908373ffffffffffffffffffffffffffffffffffffffff1602179055506080820151816004015560a08201518160050160006101000a81548160ff02191690831515021790555060c08201518160050160016101000a81548173ffffffffffffffffffffffffffffffffffffffff021916908373ffffffffffffffffffffffffffffffffffffffff1602179055509050506200177a8482620027c0565b620017873330866200226a565b837f3af611a76998e60ab88414e453c169bbc063742ab49d1747b08221e1588dbc40843033866001604051620017c2959493929190620044de565b60405180910390a2600860009054906101000a900473ffffffffffffffffffffffffffffffffffffffff1673ffffffffffffffffffffffffffffffffffffffff166108fc6009549081150290604051600060405180830381858888f1935050505015801562001835573d6000803e3d6000fd5b5050505050565b6000600560008473ffffffffffffffffffffffffffffffffffffffff1673ffffffffffffffffffffffffffffffffffffffff16815260200190815260200160002060008373ffffffffffffffffffffffffffffffffffffffff1673ffffffffffffffffffffffffffffffffffffffff16815260200190815260200160002060009054906101000a900460ff16905092915050565b60007f01ffc9a7000000000000000000000000000000000000000000000000000000007bffffffffffffffffffffffffffffffffffffffffffffffffffffffff1916827bffffffffffffffffffffffffffffffffffffffffffffffffffffffff1916149050919050565b60008062001948836200298f565b9050600073ffffffffffffffffffffffffffffffffffffffff168173ffffffffffffffffffffffffffffffffffffffff1603620019be57826040517f7e273289000000000000000000000000000000000000000000000000000000008152600401620019b5919062003460565b60405180910390fd5b80915050919050565b60006004600083815260200190815260200160002060009054906101000a900473ffffffffffffffffffffffffffffffffffffffff169050919050565b600033905090565b62001a1b8383836001620029cc565b505050565b60008062001a2e846200298f565b9050600073ffffffffffffffffffffffffffffffffffffffff168373ffffffffffffffffffffffffffffffffffffffff161462001a735762001a7281848662002b9d565b5b600073ffffffffffffffffffffffffffffffffffffffff168173ffffffffffffffffffffffffffffffffffffffff161462001b075762001ab8600085600080620029cc565b6001600360008373ffffffffffffffffffffffffffffffffffffffff1673ffffffffffffffffffffffffffffffffffffffff168152602001908152602001600020600082825403925050819055505b600073ffffffffffffffffffffffffffffffffffffffff168573ffffffffffffffffffffffffffffffffffffffff161462001b8b576001600360008773ffffffffffffffffffffffffffffffffffffffff1673ffffffffffffffffffffffffffffffffffffffff168152602001908152602001600020600082825401925050819055505b846002600086815260200190815260200160002060006101000a81548173ffffffffffffffffffffffffffffffffffffffff021916908373ffffffffffffffffffffffffffffffffffffffff160217905550838573ffffffffffffffffffffffffffffffffffffffff168273ffffffffffffffffffffffffffffffffffffffff167fddf252ad1be2c89b69c2b068fc378daa952ba7f163c4a11628f55a4df523b3ef60405160405180910390a4809150509392505050565b600073ffffffffffffffffffffffffffffffffffffffff168273ffffffffffffffffffffffffffffffffffffffff160362001cb757816040517f5b08ba1800000000000000000000000000000000000000000000000000000000815260040162001cae919062003207565b60405180910390fd5b80600560008573ffffffffffffffffffffffffffffffffffffffff1673ffffffffffffffffffffffffffffffffffffffff16815260200190815260200160002060008473ffffffffffffffffffffffffffffffffffffffff1673ffffffffffffffffffffffffffffffffffffffff16815260200190815260200160002060006101000a81548160ff0219169083151502179055508173ffffffffffffffffffffffffffffffffffffffff168373ffffffffffffffffffffffffffffffffffffffff167f17307eab39ab6107e8899845ad3d59bd9653f200f220920489ca2b5937696c318360405162001daa91906200307a565b60405180910390a3505050565b60008373ffffffffffffffffffffffffffffffffffffffff163b111562001f79578273ffffffffffffffffffffffffffffffffffffffff1663150b7a0262001dfe62001a04565b8685856040518563ffffffff1660e01b815260040162001e2294939291906200459f565b6020604051808303816000875af192505050801562001e6157506040513d601f19601f8201168201806040525081019062001e5e91906200460a565b60015b62001eeb573d806000811462001e94576040519150601f19603f3d011682016040523d82523d6000602084013e62001e99565b606091505b50600081510362001ee357836040517f64a0ae9200000000000000000000000000000000000000000000000000000000815260040162001eda919062003207565b60405180910390fd5b805181602001fd5b63150b7a0260e01b7bffffffffffffffffffffffffffffffffffffffffffffffffffffffff1916817bffffffffffffffffffffffffffffffffffffffffffffffffffffffff19161462001f7757836040517f64a0ae9200000000000000000000000000000000000000000000000000000000815260040162001f6e919062003207565b60405180910390fd5b505b50505050565b606060405180602001604052806000815250905090565b60606000600162001fa78462002c69565b01905060008167ffffffffffffffff81111562001fc95762001fc8620034ff565b5b6040519080825280601f01601f19166020018201604052801562001ffc5781602001600182028036833780820191505090505b509050600082602001820190505b60011562002064578080600190039150507f3031323334353637383961626364656600000000000000000000000000000000600a86061a8153600a858162002057576200205662003ca7565b5b049450600085036200200a575b819350505050919050565b6000805b600a60008673ffffffffffffffffffffffffffffffffffffffff1673ffffffffffffffffffffffffffffffffffffffff16815260200190815260200160002080549050811015620021c95783600a60008773ffffffffffffffffffffffffffffffffffffffff1673ffffffffffffffffffffffffffffffffffffffff1681526020019081526020016000208281548110620021135762002112620040d0565b5b90600052602060002090600202016000015403620021b35782600a60008773ffffffffffffffffffffffffffffffffffffffff1673ffffffffffffffffffffffffffffffffffffffff168152602001908152602001600020828154811062002180576200217f620040d0565b5b90600052602060002090600202016001016000828254620021a2919062004095565b9250508190555060019150620021c9565b8080620021c09062003fb0565b91505062002073565b50806200226457600a60008573ffffffffffffffffffffffffffffffffffffffff1673ffffffffffffffffffffffffffffffffffffffff1681526020019081526020016000206040518060400160405280858152602001848152509080600181540180825580915050600190039060005260206000209060020201600090919091909150600082015181600001556020820151816001015550505b50505050565b600073ffffffffffffffffffffffffffffffffffffffff168273ffffffffffffffffffffffffffffffffffffffff1603620022df5760006040517f64a0ae92000000000000000000000000000000000000000000000000000000008152600401620022d6919062003207565b60405180910390fd5b6000620022ef8383600062001a20565b9050600073ffffffffffffffffffffffffffffffffffffffff168173ffffffffffffffffffffffffffffffffffffffff16036200236557816040517f7e2732890000000000000000000000000000000000000000000000000000000081526004016200235c919062003460565b60405180910390fd5b8373ffffffffffffffffffffffffffffffffffffffff168173ffffffffffffffffffffffffffffffffffffffff1614620023dc578382826040517f64283d7b000000000000000000000000000000000000000000000000000000008152600401620023d39392919062003bb7565b60405180910390fd5b50505050565b60005b600a60008573ffffffffffffffffffffffffffffffffffffffff1673ffffffffffffffffffffffffffffffffffffffff16815260200190815260200160002080549050811015620027ba5782600a60008673ffffffffffffffffffffffffffffffffffffffff1673ffffffffffffffffffffffffffffffffffffffff1681526020019081526020016000208281548110620024855762002484620040d0565b5b90600052602060002090600202016000015403620027a45781600a60008673ffffffffffffffffffffffffffffffffffffffff1673ffffffffffffffffffffffffffffffffffffffff1681526020019081526020016000208281548110620024f257620024f1620040d0565b5b906000526020600020906002020160010154106200279e5781600a60008673ffffffffffffffffffffffffffffffffffffffff1673ffffffffffffffffffffffffffffffffffffffff16815260200190815260200160002082815481106200255f576200255e620040d0565b5b906000526020600020906002020160010160008282546200258191906200463c565b925050819055506000600a60008673ffffffffffffffffffffffffffffffffffffffff1673ffffffffffffffffffffffffffffffffffffffff1681526020019081526020016000208281548110620025de57620025dd620040d0565b5b906000526020600020906002020160010154036200279d57600a60008573ffffffffffffffffffffffffffffffffffffffff1673ffffffffffffffffffffffffffffffffffffffff1681526020019081526020016000206001600a60008773ffffffffffffffffffffffffffffffffffffffff1673ffffffffffffffffffffffffffffffffffffffff168152602001908152602001600020805490506200268691906200463c565b815481106200269a5762002699620040d0565b5b9060005260206000209060020201600a60008673ffffffffffffffffffffffffffffffffffffffff1673ffffffffffffffffffffffffffffffffffffffff1681526020019081526020016000208281548110620026fc57620026fb620040d0565b5b90600052602060002090600202016000820154816000015560018201548160010155905050600a60008573ffffffffffffffffffffffffffffffffffffffff1673ffffffffffffffffffffffffffffffffffffffff16815260200190815260200160002080548062002773576200277262004677565b5b60019003818190600052602060002090600202016000808201600090556001820160009055505090555b5b620027ba565b8080620027b19062003fb0565b915050620023e5565b50505050565b600073ffffffffffffffffffffffffffffffffffffffff16600b600084815260200190815260200160002060050160019054906101000a900473ffffffffffffffffffffffffffffffffffffffff1673ffffffffffffffffffffffffffffffffffffffff161462002868576040517f08c379a00000000000000000000000000000000000000000000000000000000081526004016200285f90620046f6565b60405180910390fd5b600081604051620028799062002fac565b62002885919062003460565b604051809103906000f080158015620028a2573d6000803e3d6000fd5b50905080600b600085815260200190815260200160002060050160016101000a81548173ffffffffffffffffffffffffffffffffffffffff021916908373ffffffffffffffffffffffffffffffffffffffff1602179055508073ffffffffffffffffffffffffffffffffffffffff1663a9059cbb30846040518363ffffffff1660e01b81526004016200293792919062004718565b6020604051808303816000875af115801562002957573d6000803e3d6000fd5b505050506040513d601f19601f820116820180604052508101906200297d919062003f7e565b506200298a818362002dd5565b505050565b60006002600083815260200190815260200160002060009054906101000a900473ffffffffffffffffffffffffffffffffffffffff169050919050565b808062002a065750600073ffffffffffffffffffffffffffffffffffffffff168273ffffffffffffffffffffffffffffffffffffffff1614155b1562002b4557600062002a19846200193a565b9050600073ffffffffffffffffffffffffffffffffffffffff168373ffffffffffffffffffffffffffffffffffffffff161415801562002a8557508273ffffffffffffffffffffffffffffffffffffffff168173ffffffffffffffffffffffffffffffffffffffff1614155b801562002a9b575062002a9981846200183c565b155b1562002ae057826040517fa9fbf51f00000000000000000000000000000000000000000000000000000000815260040162002ad7919062003207565b60405180910390fd5b811562002b4357838573ffffffffffffffffffffffffffffffffffffffff168273ffffffffffffffffffffffffffffffffffffffff167f8c5be1e5ebec7d5bd14f71427d1e84f3dd0314c0f7b2291e5b200ac8c7c3b92560405160405180910390a45b505b836004600085815260200190815260200160002060006101000a81548173ffffffffffffffffffffffffffffffffffffffff021916908373ffffffffffffffffffffffffffffffffffffffff16021790555050505050565b62002baa83838362002e63565b62002c6457600073ffffffffffffffffffffffffffffffffffffffff168373ffffffffffffffffffffffffffffffffffffffff160362002c2357806040517f7e27328900000000000000000000000000000000000000000000000000000000815260040162002c1a919062003460565b60405180910390fd5b81816040517f177e802f00000000000000000000000000000000000000000000000000000000815260040162002c5b92919062004718565b60405180910390fd5b505050565b600080600090507a184f03e93ff9f4daa797ed6e38ed64bf6a1f010000000000000000831062002ccb577a184f03e93ff9f4daa797ed6e38ed64bf6a1f010000000000000000838162002cc15762002cc062003ca7565b5b0492506040810190505b6d04ee2d6d415b85acef8100000000831062002d0c576d04ee2d6d415b85acef8100000000838162002d025762002d0162003ca7565b5b0492506020810190505b662386f26fc10000831062002d3f57662386f26fc10000838162002d355762002d3462003ca7565b5b0492506010810190505b6305f5e100831062002d6c576305f5e100838162002d625762002d6162003ca7565b5b0492506008810190505b612710831062002d9557612710838162002d8b5762002d8a62003ca7565b5b0492506004810190505b6064831062002dbc576064838162002db25762002db162003ca7565b5b0492506002810190505b600a831062002dcc576001810190505b80915050919050565b60008290508073ffffffffffffffffffffffffffffffffffffffff1663095ea7b330846040518363ffffffff1660e01b815260040162002e1792919062004718565b6020604051808303816000875af115801562002e37573d6000803e3d6000fd5b505050506040513d601f19601f8201168201806040525081019062002e5d919062003f7e565b50505050565b60008073ffffffffffffffffffffffffffffffffffffffff168373ffffffffffffffffffffffffffffffffffffffff161415801562002f2257508273ffffffffffffffffffffffffffffffffffffffff168473ffffffffffffffffffffffffffffffffffffffff16148062002ee0575062002edf84846200183c565b5b8062002f2157508273ffffffffffffffffffffffffffffffffffffffff1662002f0983620019c7565b73ffffffffffffffffffffffffffffffffffffffff16145b5b90509392505050565b6040518060e001604052806000815260200160608152602001600073ffffffffffffffffffffffffffffffffffffffff168152602001600073ffffffffffffffffffffffffffffffffffffffff16815260200160008152602001600015158152602001600073ffffffffffffffffffffffffffffffffffffffff1681525090565b611704806200474683390190565b6000604051905090565b600080fd5b600080fd5b60007fffffffff0000000000000000000000000000000000000000000000000000000082169050919050565b620030058162002fce565b81146200301157600080fd5b50565b600081359050620030258162002ffa565b92915050565b60006020828403121562003044576200304362002fc4565b5b6000620030548482850162003014565b91505092915050565b60008115159050919050565b62003074816200305d565b82525050565b600060208201905062003091600083018462003069565b92915050565b600081519050919050565b600082825260208201905092915050565b60005b83811015620030d3578082015181840152602081019050620030b6565b60008484015250505050565b6000601f19601f8301169050919050565b6000620030fd8262003097565b620031098185620030a2565b93506200311b818560208601620030b3565b6200312681620030df565b840191505092915050565b600060208201905081810360008301526200314d8184620030f0565b905092915050565b6000819050919050565b6200316a8162003155565b81146200317657600080fd5b50565b6000813590506200318a816200315f565b92915050565b600060208284031215620031a957620031a862002fc4565b5b6000620031b98482850162003179565b91505092915050565b600073ffffffffffffffffffffffffffffffffffffffff82169050919050565b6000620031ef82620031c2565b9050919050565b6200320181620031e2565b82525050565b60006020820190506200321e6000830184620031f6565b92915050565b6200322f81620031e2565b81146200323b57600080fd5b50565b6000813590506200324f8162003224565b92915050565b600080604083850312156200326f576200326e62002fc4565b5b60006200327f858286016200323e565b9250506020620032928582860162003179565b9150509250929050565b600080600060608486031215620032b857620032b762002fc4565b5b6000620032c8868287016200323e565b9350506020620032db868287016200323e565b9250506040620032ee8682870162003179565b9150509250925092565b600081519050919050565b600082825260208201905092915050565b6000819050602082019050919050565b6200332f8162003155565b82525050565b6040820160008201516200334d600085018262003324565b50602082015162003362602085018262003324565b50505050565b600062003376838362003335565b60408301905092915050565b6000602082019050919050565b60006200339c82620032f8565b620033a8818562003303565b9350620033b58362003314565b8060005b83811015620033ec578151620033d0888262003368565b9750620033dd8362003382565b925050600181019050620033b9565b5085935050505092915050565b600060208201905081810360008301526200341581846200338f565b905092915050565b60006020828403121562003436576200343562002fc4565b5b600062003446848285016200323e565b91505092915050565b6200345a8162003155565b82525050565b60006020820190506200347760008301846200344f565b92915050565b62003488816200305d565b81146200349457600080fd5b50565b600081359050620034a8816200347d565b92915050565b60008060408385031215620034c857620034c762002fc4565b5b6000620034d8858286016200323e565b9250506020620034eb8582860162003497565b9150509250929050565b600080fd5b600080fd5b7f4e487b7100000000000000000000000000000000000000000000000000000000600052604160045260246000fd5b6200353982620030df565b810181811067ffffffffffffffff821117156200355b576200355a620034ff565b5b80604052505050565b60006200357062002fba565b90506200357e82826200352e565b919050565b600067ffffffffffffffff821115620035a157620035a0620034ff565b5b620035ac82620030df565b9050602081019050919050565b82818337600083830152505050565b6000620035df620035d98462003583565b62003564565b905082815260208101848484011115620035fe57620035fd620034fa565b5b6200360b848285620035b9565b509392505050565b600082601f8301126200362b576200362a620034f5565b5b81356200363d848260208601620035c8565b91505092915050565b6000806000806080858703121562003663576200366262002fc4565b5b600062003673878288016200323e565b945050602062003686878288016200323e565b9350506040620036998782880162003179565b925050606085013567ffffffffffffffff811115620036bd57620036bc62002fc9565b5b620036cb8782880162003613565b91505092959194509250565b60008060408385031215620036f157620036f062002fc4565b5b6000620037018582860162003179565b9250506020620037148582860162003179565b9150509250929050565b600081519050919050565b600082825260208201905092915050565b6000819050602082019050919050565b600082825260208201905092915050565b6000620037688262003097565b6200377481856200374a565b935062003786818560208601620030b3565b6200379181620030df565b840191505092915050565b6000620037a982620031c2565b9050919050565b620037bb816200379c565b82525050565b620037cc816200305d565b82525050565b620037dd81620031e2565b82525050565b600060e083016000830151620037fd600086018262003324565b50602083015184820360208601526200381782826200375b565b91505060408301516200382e6040860182620037b0565b506060830151620038436060860182620037b0565b50608083015162003858608086018262003324565b5060a08301516200386d60a0860182620037c1565b5060c08301516200388260c0860182620037d2565b508091505092915050565b60006200389b8383620037e3565b905092915050565b6000602082019050919050565b6000620038bd826200371e565b620038c9818562003729565b935083602082028501620038dd856200373a565b8060005b858110156200391f5784840389528151620038fd85826200388d565b94506200390a83620038a3565b925060208a01995050600181019050620038e1565b50829750879550505050505092915050565b600060208201905081810360008301526200394d8184620038b0565b905092915050565b600067ffffffffffffffff821115620039735762003972620034ff565b5b6200397e82620030df565b9050602081019050919050565b6000620039a26200399c8462003955565b62003564565b905082815260208101848484011115620039c157620039c0620034fa565b5b620039ce848285620035b9565b509392505050565b600082601f830112620039ee57620039ed620034f5565b5b813562003a008482602086016200398b565b91505092915050565b6000806000806080858703121562003a265762003a2562002fc4565b5b600062003a368782880162003179565b945050602085013567ffffffffffffffff81111562003a5a5762003a5962002fc9565b5b62003a6887828801620039d6565b935050604062003a7b8782880162003179565b925050606062003a8e8782880162003179565b91505092959194509250565b6000806040838503121562003ab45762003ab362002fc4565b5b600062003ac4858286016200323e565b925050602062003ad7858286016200323e565b9150509250929050565b7f4e487b7100000000000000000000000000000000000000000000000000000000600052602260045260246000fd5b6000600282049050600182168062003b2957607f821691505b60208210810362003b3f5762003b3e62003ae1565b5b50919050565b7f4f6e6c7920746865206f776e65722063616e206c69737420746865206974656d600082015250565b600062003b7d602083620030a2565b915062003b8a8262003b45565b602082019050919050565b6000602082019050818103600083015262003bb08162003b6e565b9050919050565b600060608201905062003bce6000830186620031f6565b62003bdd60208301856200344f565b62003bec6040830184620031f6565b949350505050565b60008151905062003c05816200315f565b92915050565b60006020828403121562003c245762003c2362002fc4565b5b600062003c348482850162003bf4565b91505092915050565b600081905092915050565b600062003c558262003097565b62003c61818562003c3d565b935062003c73818560208601620030b3565b80840191505092915050565b600062003c8d828562003c48565b915062003c9b828462003c48565b91508190509392505050565b7f4e487b7100000000000000000000000000000000000000000000000000000000600052601260045260246000fd5b7f4e487b7100000000000000000000000000000000000000000000000000000000600052601160045260246000fd5b600062003d128262003155565b915062003d1f8362003155565b92508262003d325762003d3162003ca7565b5b828204905092915050565b600062003d4a8262003155565b915062003d578362003155565b925082820262003d678162003155565b9150828204841483151762003d815762003d8062003cd6565b5b5092915050565b7f496e636f7272656374204554482076616c75652073656e740000000000000000600082015250565b600062003dc0601883620030a2565b915062003dcd8262003d88565b602082019050919050565b6000602082019050818103600083015262003df38162003db1565b9050919050565b6000819050919050565b600062003e2562003e1f62003e1984620031c2565b62003dfa565b620031c2565b9050919050565b600062003e398262003e04565b9050919050565b600062003e4d8262003e2c565b9050919050565b62003e5f8162003e40565b82525050565b600060408201905062003e7c600083018562003e54565b62003e8b6020830184620031f6565b9392505050565b7f436f6e7472616374206e6f7420617070726f76656420746f207472616e73666560008201527f722074686520726571756972656420616d6f756e74206f6620746f6b656e7300602082015250565b600062003ef0603f83620030a2565b915062003efd8262003e92565b604082019050919050565b6000602082019050818103600083015262003f238162003ee1565b9050919050565b600060608201905062003f41600083018662003e54565b62003f506020830185620031f6565b62003f5f60408301846200344f565b949350505050565b60008151905062003f78816200347d565b92915050565b60006020828403121562003f975762003f9662002fc4565b5b600062003fa78482850162003f67565b91505092915050565b600062003fbd8262003155565b91507fffffffffffffffffffffffffffffffffffffffffffffffffffffffffffffffff820362003ff25762003ff162003cd6565b5b600182019050919050565b7f526571756573746564206672616374696f6e20616d6f756e742065786365656460008201527f7320746f74616c20737570706c79000000000000000000000000000000000000602082015250565b60006200405b602e83620030a2565b9150620040688262003ffd565b604082019050919050565b600060208201905081810360008301526200408e816200404c565b9050919050565b6000620040a28262003155565b9150620040af8362003155565b9250828201905080821115620040ca57620040c962003cd6565b5b92915050565b7f4e487b7100000000000000000000000000000000000000000000000000000000600052603260045260246000fd5b7f486f706566756c6c792073656e64696e672074686520636f727265637420707260008201527f6963650000000000000000000000000000000000000000000000000000000000602082015250565b60006200415d602383620030a2565b91506200416a82620040ff565b604082019050919050565b6000602082019050818103600083015262004190816200414e565b9050919050565b7f4d616b652073757265207468652070726963652069736e2774206e656761746960008201527f7665000000000000000000000000000000000000000000000000000000000000602082015250565b6000620041f5602283620030a2565b9150620042028262004197565b604082019050919050565b600060208201905081810360008301526200422881620041e6565b9050919050565b60008190508160005260206000209050919050565b60006020601f8301049050919050565b600082821b905092915050565b600060088302620042937fffffffffffffffffffffffffffffffffffffffffffffffffffffffffffffffff8262004254565b6200429f868362004254565b95508019841693508086168417925050509392505050565b6000620042d8620042d2620042cc8462003155565b62003dfa565b62003155565b9050919050565b6000819050919050565b620042f483620042b7565b6200430c6200430382620042df565b84845462004261565b825550505050565b600090565b6200432362004314565b62004330818484620042e9565b505050565b5b8181101562004358576200434c60008262004319565b60018101905062004336565b5050565b601f821115620043a75762004371816200422f565b6200437c8462004244565b810160208510156200438c578190505b620043a46200439b8562004244565b83018262004335565b50505b505050565b600082821c905092915050565b6000620043cc60001984600802620043ac565b1980831691505092915050565b6000620043e78383620043b9565b9150826002028217905092915050565b620044028262003097565b67ffffffffffffffff8111156200441e576200441d620034ff565b5b6200442a825462003b10565b620044378282856200435c565b600060209050601f8311600181146200446f57600084156200445a578287015190505b620044668582620043d9565b865550620044d6565b601f1984166200447f866200422f565b60005b82811015620044a95784890151825560018201915060208501945060208101905062004482565b86831015620044c95784890151620044c5601f891682620043b9565b8355505b6001600288020188555050505b505050505050565b600060a0820190508181036000830152620044fa8188620030f0565b90506200450b6020830187620031f6565b6200451a6040830186620031f6565b6200452960608301856200344f565b62004538608083018462003069565b9695505050505050565b600081519050919050565b600082825260208201905092915050565b60006200456b8262004542565b6200457781856200454d565b935062004589818560208601620030b3565b6200459481620030df565b840191505092915050565b6000608082019050620045b66000830187620031f6565b620045c56020830186620031f6565b620045d460408301856200344f565b8181036060830152620045e881846200455e565b905095945050505050565b600081519050620046048162002ffa565b92915050565b60006020828403121562004623576200462262002fc4565b5b60006200463384828501620045f3565b91505092915050565b6000620046498262003155565b9150620046568362003155565b925082820390508181111562004671576200467062003cd6565b5b92915050565b7f4e487b7100000000000000000000000000000000000000000000000000000000600052603160045260246000fd5b7f416c7265616479206672616374696f6e616c697a656400000000000000000000600082015250565b6000620046de601683620030a2565b9150620046eb82620046a6565b602082019050919050565b600060208201905081810360008301526200471181620046cf565b9050919050565b60006040820190506200472f6000830185620031f6565b6200473e60208301846200344f565b939250505056fe60806040523480156200001157600080fd5b5060405162001704380380620017048339818101604052810190620000379190620003df565b6040518060400160405280600d81526020017f4672616374696f6e616c4e4654000000000000000000000000000000000000008152506040518060400160405280600481526020017f464e4654000000000000000000000000000000000000000000000000000000008152508160039081620000b4919062000681565b508060049081620000c6919062000681565b505050620000db3382620000e260201b60201c565b506200089f565b600073ffffffffffffffffffffffffffffffffffffffff168273ffffffffffffffffffffffffffffffffffffffff1603620001575760006040517fec442f050000000000000000000000000000000000000000000000000000000081526004016200014e9190620007ad565b60405180910390fd5b6200016b600083836200016f60201b60201c565b5050565b600073ffffffffffffffffffffffffffffffffffffffff168373ffffffffffffffffffffffffffffffffffffffff1603620001c5578060026000828254620001b89190620007f9565b925050819055506200029b565b60008060008573ffffffffffffffffffffffffffffffffffffffff1673ffffffffffffffffffffffffffffffffffffffff1681526020019081526020016000205490508181101562000254578381836040517fe450d38c0000000000000000000000000000000000000000000000000000000081526004016200024b9392919062000845565b60405180910390fd5b8181036000808673ffffffffffffffffffffffffffffffffffffffff1673ffffffffffffffffffffffffffffffffffffffff16815260200190815260200160002081905550505b600073ffffffffffffffffffffffffffffffffffffffff168273ffffffffffffffffffffffffffffffffffffffff1603620002e6578060026000828254039250508190555062000333565b806000808473ffffffffffffffffffffffffffffffffffffffff1673ffffffffffffffffffffffffffffffffffffffff168152602001908152602001600020600082825401925050819055505b8173ffffffffffffffffffffffffffffffffffffffff168373ffffffffffffffffffffffffffffffffffffffff167fddf252ad1be2c89b69c2b068fc378daa952ba7f163c4a11628f55a4df523b3ef8360405162000392919062000882565b60405180910390a3505050565b600080fd5b6000819050919050565b620003b981620003a4565b8114620003c557600080fd5b50565b600081519050620003d981620003ae565b92915050565b600060208284031215620003f857620003f76200039f565b5b60006200040884828501620003c8565b91505092915050565b600081519050919050565b7f4e487b7100000000000000000000000000000000000000000000000000000000600052604160045260246000fd5b7f4e487b7100000000000000000000000000000000000000000000000000000000600052602260045260246000fd5b600060028204905060018216806200049357607f821691505b602082108103620004a957620004a86200044b565b5b50919050565b60008190508160005260206000209050919050565b60006020601f8301049050919050565b600082821b905092915050565b600060088302620005137fffffffffffffffffffffffffffffffffffffffffffffffffffffffffffffffff82620004d4565b6200051f8683620004d4565b95508019841693508086168417925050509392505050565b6000819050919050565b6000620005626200055c6200055684620003a4565b62000537565b620003a4565b9050919050565b6000819050919050565b6200057e8362000541565b620005966200058d8262000569565b848454620004e1565b825550505050565b600090565b620005ad6200059e565b620005ba81848462000573565b505050565b5b81811015620005e257620005d6600082620005a3565b600181019050620005c0565b5050565b601f8211156200063157620005fb81620004af565b6200060684620004c4565b8101602085101562000616578190505b6200062e6200062585620004c4565b830182620005bf565b50505b505050565b600082821c905092915050565b6000620006566000198460080262000636565b1980831691505092915050565b600062000671838362000643565b9150826002028217905092915050565b6200068c8262000411565b67ffffffffffffffff811115620006a857620006a76200041c565b5b620006b482546200047a565b620006c1828285620005e6565b600060209050601f831160018114620006f95760008415620006e4578287015190505b620006f0858262000663565b86555062000760565b601f1984166200070986620004af565b60005b8281101562000733578489015182556001820191506020850194506020810190506200070c565b868310156200075357848901516200074f601f89168262000643565b8355505b6001600288020188555050505b505050505050565b600073ffffffffffffffffffffffffffffffffffffffff82169050919050565b6000620007958262000768565b9050919050565b620007a78162000788565b82525050565b6000602082019050620007c460008301846200079c565b92915050565b7f4e487b7100000000000000000000000000000000000000000000000000000000600052601160045260246000fd5b60006200080682620003a4565b91506200081383620003a4565b92508282019050808211156200082e576200082d620007ca565b5b92915050565b6200083f81620003a4565b82525050565b60006060820190506200085c60008301866200079c565b6200086b602083018562000834565b6200087a604083018462000834565b949350505050565b600060208201905062000899600083018462000834565b92915050565b610e5580620008af6000396000f3fe608060405234801561001057600080fd5b50600436106100935760003560e01c8063313ce56711610066578063313ce5671461013457806370a082311461015257806395d89b4114610182578063a9059cbb146101a0578063dd62ed3e146101d057610093565b806306fdde0314610098578063095ea7b3146100b657806318160ddd146100e657806323b872dd14610104575b600080fd5b6100a0610200565b6040516100ad9190610aa9565b60405180910390f35b6100d060048036038101906100cb9190610b64565b610292565b6040516100dd9190610bbf565b60405180910390f35b6100ee6102b5565b6040516100fb9190610be9565b60405180910390f35b61011e60048036038101906101199190610c04565b6102bf565b60405161012b9190610bbf565b60405180910390f35b61013c6102ee565b6040516101499190610c73565b60405180910390f35b61016c60048036038101906101679190610c8e565b6102f7565b6040516101799190610be9565b60405180910390f35b61018a61033f565b6040516101979190610aa9565b60405180910390f35b6101ba60048036038101906101b59190610b64565b6103d1565b6040516101c79190610bbf565b60405180910390f35b6101ea60048036038101906101e59190610cbb565b6103f4565b6040516101f79190610be9565b60405180910390f35b60606003805461020f90610d2a565b80601f016020809104026020016040519081016040528092919081815260200182805461023b90610d2a565b80156102885780601f1061025d57610100808354040283529160200191610288565b820191906000526020600020905b81548152906001019060200180831161026b57829003601f168201915b5050505050905090565b60008061029d61047b565b90506102aa818585610483565b600191505092915050565b6000600254905090565b6000806102ca61047b565b90506102d7858285610495565b6102e2858585610529565b60019150509392505050565b60006012905090565b60008060008373ffffffffffffffffffffffffffffffffffffffff1673ffffffffffffffffffffffffffffffffffffffff168152602001908152602001600020549050919050565b60606004805461034e90610d2a565b80601f016020809104026020016040519081016040528092919081815260200182805461037a90610d2a565b80156103c75780601f1061039c576101008083540402835291602001916103c7565b820191906000526020600020905b8154815290600101906020018083116103aa57829003601f168201915b5050505050905090565b6000806103dc61047b565b90506103e9818585610529565b600191505092915050565b6000600160008473ffffffffffffffffffffffffffffffffffffffff1673ffffffffffffffffffffffffffffffffffffffff16815260200190815260200160002060008373ffffffffffffffffffffffffffffffffffffffff1673ffffffffffffffffffffffffffffffffffffffff16815260200190815260200160002054905092915050565b600033905090565b610490838383600161061d565b505050565b60006104a184846103f4565b90507fffffffffffffffffffffffffffffffffffffffffffffffffffffffffffffffff81146105235781811015610513578281836040517ffb8f41b200000000000000000000000000000000000000000000000000000000815260040161050a93929190610d6a565b60405180910390fd5b6105228484848403600061061d565b5b50505050565b600073ffffffffffffffffffffffffffffffffffffffff168373ffffffffffffffffffffffffffffffffffffffff160361059b5760006040517f96c6fd1e0000000000000000000000000000000000000000000000000000000081526004016105929190610da1565b60405180910390fd5b600073ffffffffffffffffffffffffffffffffffffffff168273ffffffffffffffffffffffffffffffffffffffff160361060d5760006040517fec442f050000000000000000000000000000000000000000000000000000000081526004016106049190610da1565b60405180910390fd5b6106188383836107f4565b505050565b600073ffffffffffffffffffffffffffffffffffffffff168473ffffffffffffffffffffffffffffffffffffffff160361068f5760006040517fe602df050000000000000000000000000000000000000000000000000000000081526004016106869190610da1565b60405180910390fd5b600073ffffffffffffffffffffffffffffffffffffffff168373ffffffffffffffffffffffffffffffffffffffff16036107015760006040517f94280d620000000000000000000000000000000000000000000000000000000081526004016106f89190610da1565b60405180910390fd5b81600160008673ffffffffffffffffffffffffffffffffffffffff1673ffffffffffffffffffffffffffffffffffffffff16815260200190815260200160002060008573ffffffffffffffffffffffffffffffffffffffff1673ffffffffffffffffffffffffffffffffffffffff1681526020019081526020016000208190555080156107ee578273ffffffffffffffffffffffffffffffffffffffff168473ffffffffffffffffffffffffffffffffffffffff167f8c5be1e5ebec7d5bd14f71427d1e84f3dd0314c0f7b2291e5b200ac8c7c3b925846040516107e59190610be9565b60405180910390a35b50505050565b600073ffffffffffffffffffffffffffffffffffffffff168373ffffffffffffffffffffffffffffffffffffffff160361084657806002600082825461083a9190610deb565b92505081905550610919565b60008060008573ffffffffffffffffffffffffffffffffffffffff1673ffffffffffffffffffffffffffffffffffffffff168152602001908152602001600020549050818110156108d2578381836040517fe450d38c0000000000000000000000000000000000000000000000000000000081526004016108c993929190610d6a565b60405180910390fd5b8181036000808673ffffffffffffffffffffffffffffffffffffffff1673ffffffffffffffffffffffffffffffffffffffff16815260200190815260200160002081905550505b600073ffffffffffffffffffffffffffffffffffffffff168273ffffffffffffffffffffffffffffffffffffffff160361096257806002600082825403925050819055506109af565b806000808473ffffffffffffffffffffffffffffffffffffffff1673ffffffffffffffffffffffffffffffffffffffff168152602001908152602001600020600082825401925050819055505b8173ffffffffffffffffffffffffffffffffffffffff168373ffffffffffffffffffffffffffffffffffffffff167fddf252ad1be2c89b69c2b068fc378daa952ba7f163c4a11628f55a4df523b3ef83604051610a0c9190610be9565b60405180910390a3505050565b600081519050919050565b600082825260208201905092915050565b60005b83811015610a53578082015181840152602081019050610a38565b60008484015250505050565b6000601f19601f8301169050919050565b6000610a7b82610a19565b610a858185610a24565b9350610a95818560208601610a35565b610a9e81610a5f565b840191505092915050565b60006020820190508181036000830152610ac38184610a70565b905092915050565b600080fd5b600073ffffffffffffffffffffffffffffffffffffffff82169050919050565b6000610afb82610ad0565b9050919050565b610b0b81610af0565b8114610b1657600080fd5b50565b600081359050610b2881610b02565b92915050565b6000819050919050565b610b4181610b2e565b8114610b4c57600080fd5b50565b600081359050610b5e81610b38565b92915050565b60008060408385031215610b7b57610b7a610acb565b5b6000610b8985828601610b19565b9250506020610b9a85828601610b4f565b9150509250929050565b60008115159050919050565b610bb981610ba4565b82525050565b6000602082019050610bd46000830184610bb0565b92915050565b610be381610b2e565b82525050565b6000602082019050610bfe6000830184610bda565b92915050565b600080600060608486031215610c1d57610c1c610acb565b5b6000610c2b86828701610b19565b9350506020610c3c86828701610b19565b9250506040610c4d86828701610b4f565b9150509250925092565b600060ff82169050919050565b610c6d81610c57565b82525050565b6000602082019050610c886000830184610c64565b92915050565b600060208284031215610ca457610ca3610acb565b5b6000610cb284828501610b19565b91505092915050565b60008060408385031215610cd257610cd1610acb565b5b6000610ce085828601610b19565b9250506020610cf185828601610b19565b9150509250929050565b7f4e487b7100000000000000000000000000000000000000000000000000000000600052602260045260246000fd5b60006002820490506001821680610d4257607f821691505b602082108103610d5557610d54610cfb565b5b50919050565b610d6481610af0565b82525050565b6000606082019050610d7f6000830186610d5b565b610d8c6020830185610bda565b610d996040830184610bda565b949350505050565b6000602082019050610db66000830184610d5b565b92915050565b7f4e487b7100000000000000000000000000000000000000000000000000000000600052601160045260246000fd5b6000610df682610b2e565b9150610e0183610b2e565b9250828201905080821115610e1957610e18610dbc565b5b9291505056fea26469706673582212203bc36599014d0f528abb1d0fc5981f81bcea6deead9cb89e2bd61983e0a3bd5c64736f6c63430008140033a2646970667358221220f020c4c2f9e937db237a2c9ad47164bf2e94481144b9ec3ab26d9e8b1d4e72f864736f6c63430008140033",
  "linkReferences": {},
  "deployedLinkReferences": {}
}