{
  "_format": "hh-sol-artifact-1",
  "contractName": "Marketplace",
  "sourceName": "contracts/Marketplace.sol",
  "abi": [
    {
      "inputs": [
        {
          "internalType": "address",
          "name": "_nftContractAddress",
          "type": "address"
        }
      ],
      "stateMutability": "nonpayable",
      "type": "constructor"
    },
    {
      "anonymous": false,
      "inputs": [
        {
          "indexed": true,
          "internalType": "uint256",
          "name": "tokenId",
          "type": "uint256"
        },
        {
          "indexed": false,
          "internalType": "string",
          "name": "tokenURI",
          "type": "string"
        },
        {
          "indexed": false,
          "internalType": "address",
          "name": "owner",
          "type": "address"
        },
        {
          "indexed": false,
          "internalType": "address",
          "name": "seller",
          "type": "address"
        },
        {
          "indexed": false,
          "internalType": "uint256",
          "name": "price",
          "type": "uint256"
        },
        {
          "indexed": false,
          "internalType": "bool",
          "name": "currentlyListed",
          "type": "bool"
        }
      ],
      "name": "TokenListedSuccess",
      "type": "event"
    },
    {
      "inputs": [
        {
          "internalType": "uint256",
          "name": "tokenId",
          "type": "uint256"
        },
        {
          "internalType": "uint256",
          "name": "fractionAmount",
          "type": "uint256"
        }
      ],
      "name": "buyFraction",
      "outputs": [],
      "stateMutability": "payable",
      "type": "function"
    },
    {
      "inputs": [
        {
          "internalType": "uint256",
          "name": "tokenId",
          "type": "uint256"
        },
        {
          "internalType": "string",
          "name": "tokenURI",
          "type": "string"
        },
        {
          "internalType": "uint256",
          "name": "price",
          "type": "uint256"
        },
        {
          "internalType": "uint256",
          "name": "fractionSupply",
          "type": "uint256"
        }
      ],
      "name": "createListedToken",
      "outputs": [],
      "stateMutability": "payable",
      "type": "function"
    },
    {
      "inputs": [],
      "name": "getAllFractions",
      "outputs": [
        {
          "components": [
            {
              "internalType": "uint256",
              "name": "tokenId",
              "type": "uint256"
            },
            {
              "internalType": "uint256",
              "name": "fractionAmount",
              "type": "uint256"
            }
          ],
          "internalType": "struct Marketplace.FractOwner[]",
          "name": "",
          "type": "tuple[]"
        }
      ],
      "stateMutability": "view",
      "type": "function"
    },
    {
      "inputs": [],
      "name": "getAllNFTs",
      "outputs": [
        {
          "components": [
            {
              "internalType": "uint256",
              "name": "tokenId",
              "type": "uint256"
            },
            {
              "internalType": "string",
              "name": "tokenURI",
              "type": "string"
            },
            {
              "internalType": "address payable",
              "name": "owner",
              "type": "address"
            },
            {
              "internalType": "address payable",
              "name": "seller",
              "type": "address"
            },
            {
              "internalType": "uint256",
              "name": "price",
              "type": "uint256"
            },
            {
              "internalType": "bool",
              "name": "currentlyListed",
              "type": "bool"
            },
            {
              "internalType": "address",
              "name": "fractionalTokenAddress",
              "type": "address"
            }
          ],
          "internalType": "struct Marketplace.ListedToken[]",
          "name": "",
          "type": "tuple[]"
        }
      ],
      "stateMutability": "view",
      "type": "function"
    },
    {
      "inputs": [
        {
          "internalType": "address",
          "name": "fractionalTokenAddress",
          "type": "address"
        }
      ],
      "name": "getBalanceSupplyOfTokens",
      "outputs": [
        {
          "internalType": "uint256",
          "name": "",
          "type": "uint256"
        }
      ],
      "stateMutability": "view",
      "type": "function"
    },
    {
      "inputs": [
        {
          "internalType": "uint256",
          "name": "tokenId",
          "type": "uint256"
        }
      ],
      "name": "listTheNFT",
      "outputs": [],
      "stateMutability": "payable",
      "type": "function"
    },
    {
      "inputs": [
        {
          "internalType": "string",
          "name": "tokenURI",
          "type": "string"
        }
      ],
      "name": "mintNewNFT",
      "outputs": [
        {
          "internalType": "uint256",
          "name": "",
          "type": "uint256"
        }
      ],
      "stateMutability": "nonpayable",
      "type": "function"
    },
    {
      "inputs": [],
      "name": "nftContract",
      "outputs": [
        {
          "internalType": "contract NFTContract",
          "name": "",
          "type": "address"
        }
      ],
      "stateMutability": "view",
      "type": "function"
    }
  ],
  "bytecode": "0x60806040526601c6bf526340006004553480156200001c57600080fd5b506040516200471a3803806200471a833981810160405281019062000042919062000134565b33600360006101000a81548173ffffffffffffffffffffffffffffffffffffffff021916908373ffffffffffffffffffffffffffffffffffffffff160217905550806000806101000a81548173ffffffffffffffffffffffffffffffffffffffff021916908373ffffffffffffffffffffffffffffffffffffffff1602179055505062000166565b600080fd5b600073ffffffffffffffffffffffffffffffffffffffff82169050919050565b6000620000fc82620000cf565b9050919050565b6200010e81620000ef565b81146200011a57600080fd5b50565b6000815190506200012e8162000103565b92915050565b6000602082840312156200014d576200014c620000ca565b5b60006200015d848285016200011d565b91505092915050565b6145a480620001766000396000f3fe608060405260043610620000865760003560e01c8063d40b02141162000055578063d40b02141462000163578063d56d229d1462000183578063e0391b0914620001b3578063e5ac0b4314620001e35762000086565b80630ee6b29c146200008b5780633157631f14620000ab5780634e1327ad14620000ef5780636d78ab23146200011f575b600080fd5b620000a96004803603810190620000a3919062001b28565b62000203565b005b348015620000b857600080fd5b50620000d76004803603810190620000d1919062001cbc565b620002dc565b604051620000e6919062001d1e565b60405180910390f35b348015620000fc57600080fd5b506200010762000389565b60405162000116919062001e3c565b60405180910390f35b3480156200012c57600080fd5b506200014b600480360381019062000145919062001ec5565b6200043b565b6040516200015a919062001d1e565b60405180910390f35b6200018160048036038101906200017b919062001ef7565b620004ce565b005b3480156200019057600080fd5b506200019b62000b7b565b604051620001aa919062001fa9565b60405180910390f35b348015620001c057600080fd5b50620001cb62000b9f565b604051620001da91906200221c565b60405180910390f35b620002016004803603810190620001fb919062002240565b62000e69565b005b3373ffffffffffffffffffffffffffffffffffffffff166006600083815260200190815260200160002060020160009054906101000a900473ffffffffffffffffffffffffffffffffffffffff1673ffffffffffffffffffffffffffffffffffffffff1614620002aa576040517f08c379a0000000000000000000000000000000000000000000000000000000008152600401620002a19062002332565b60405180910390fd5b60016006600083815260200190815260200160002060050160006101000a81548160ff02191690831515021790555050565b60008060009054906101000a900473ffffffffffffffffffffffffffffffffffffffff1673ffffffffffffffffffffffffffffffffffffffff1663eacabe1433846040518363ffffffff1660e01b81526004016200033c929190620023a6565b6020604051808303816000875af11580156200035c573d6000803e3d6000fd5b505050506040513d601f19601f82011682018060405250810190620003829190620023f1565b9050919050565b6060600560003373ffffffffffffffffffffffffffffffffffffffff1673ffffffffffffffffffffffffffffffffffffffff168152602001908152602001600020805480602002602001604051908101604052809291908181526020016000905b828210156200043257838290600052602060002090600202016040518060400160405290816000820154815260200160018201548152505081526020019060010190620003ea565b50505050905090565b60008082905060008173ffffffffffffffffffffffffffffffffffffffff166370a08231306040518263ffffffff1660e01b81526004016200047e919062002423565b602060405180830381865afa1580156200049c573d6000803e3d6000fd5b505050506040513d601f19601f82011682018060405250810190620004c29190620023f1565b90508092505050919050565b60006006600084815260200190815260200160002090506000808260050160019054906101000a900473ffffffffffffffffffffffffffffffffffffffff16905060008173ffffffffffffffffffffffffffffffffffffffff166318160ddd6040518163ffffffff1660e01b8152600401602060405180830381865afa1580156200055d573d6000803e3d6000fd5b505050506040513d601f19601f82011682018060405250810190620005839190620023f1565b905080851015620007a157808460040154620005a091906200249e565b92508483620005b09190620024d6565b3414620005f4576040517f08c379a0000000000000000000000000000000000000000000000000000000008152600401620005eb9062002571565b60405180910390fd5b60008273ffffffffffffffffffffffffffffffffffffffff1663dd62ed3e8660020160009054906101000a900473ffffffffffffffffffffffffffffffffffffffff16306040518363ffffffff1660e01b815260040162000657929190620025b8565b602060405180830381865afa15801562000675573d6000803e3d6000fd5b505050506040513d601f19601f820116820180604052508101906200069b9190620023f1565b905085811015620006e3576040517f08c379a0000000000000000000000000000000000000000000000000000000008152600401620006da906200265b565b60405180910390fd5b8273ffffffffffffffffffffffffffffffffffffffff166323b872dd8660020160009054906101000a900473ffffffffffffffffffffffffffffffffffffffff1633896040518463ffffffff1660e01b815260040162000746939291906200267d565b6020604051808303816000875af115801562000766573d6000803e3d6000fd5b505050506040513d601f19601f820116820180604052508101906200078c9190620026eb565b506200079a33888862001214565b5062000b73565b80850362000b3557808460040154620007bb91906200249e565b92508483620007cb9190620024d6565b34146200080f576040517f08c379a0000000000000000000000000000000000000000000000000000000008152600401620008069062002571565b60405180910390fd5b60008054906101000a900473ffffffffffffffffffffffffffffffffffffffff1673ffffffffffffffffffffffffffffffffffffffff1663beabacc83033896040518463ffffffff1660e01b81526004016200086e939291906200271d565b600060405180830381600087803b1580156200088957600080fd5b505af11580156200089e573d6000803e3d6000fd5b5050505060008273ffffffffffffffffffffffffffffffffffffffff1663dd62ed3e8660020160009054906101000a900473ffffffffffffffffffffffffffffffffffffffff16306040518363ffffffff1660e01b815260040162000905929190620025b8565b602060405180830381865afa15801562000923573d6000803e3d6000fd5b505050506040513d601f19601f82011682018060405250810190620009499190620023f1565b90508581101562000991576040517f08c379a000000000000000000000000000000000000000000000000000000000815260040162000988906200265b565b60405180910390fd5b8273ffffffffffffffffffffffffffffffffffffffff166323b872dd8660020160009054906101000a900473ffffffffffffffffffffffffffffffffffffffff1633896040518463ffffffff1660e01b8152600401620009f4939291906200267d565b6020604051808303816000875af115801562000a14573d6000803e3d6000fd5b505050506040513d601f19601f8201168201806040525081019062000a3a9190620026eb565b5060008560050160006101000a81548160ff021916908315150217905550338560030160006101000a81548173ffffffffffffffffffffffffffffffffffffffff021916908373ffffffffffffffffffffffffffffffffffffffff1602179055506002600081548092919062000ab0906200275a565b91905055508460030160009054906101000a900473ffffffffffffffffffffffffffffffffffffffff1673ffffffffffffffffffffffffffffffffffffffff166108fc349081150290604051600060405180830381858888f1935050505015801562000b20573d6000803e3d6000fd5b5062000b2e3388886200140f565b5062000b72565b6040517f08c379a000000000000000000000000000000000000000000000000000000000815260040162000b69906200281d565b60405180910390fd5b5b505050505050565b60008054906101000a900473ffffffffffffffffffffffffffffffffffffffff1681565b60606000600154905060008167ffffffffffffffff81111562000bc75762000bc662001b75565b5b60405190808252806020026020018201604052801562000c0457816020015b62000bf062001a4a565b81526020019060019003908162000be65790505b5090506000805b8381101562000e5f57600060018262000c2591906200283f565b90506000600660008381526020019081526020016000209050806040518060e00160405290816000820154815260200160018201805462000c6690620028a9565b80601f016020809104026020016040519081016040528092919081815260200182805462000c9490620028a9565b801562000ce55780601f1062000cb95761010080835404028352916020019162000ce5565b820191906000526020600020905b81548152906001019060200180831162000cc757829003601f168201915b505050505081526020016002820160009054906101000a900473ffffffffffffffffffffffffffffffffffffffff1673ffffffffffffffffffffffffffffffffffffffff1673ffffffffffffffffffffffffffffffffffffffff1681526020016003820160009054906101000a900473ffffffffffffffffffffffffffffffffffffffff1673ffffffffffffffffffffffffffffffffffffffff1673ffffffffffffffffffffffffffffffffffffffff168152602001600482015481526020016005820160009054906101000a900460ff161515151581526020016005820160019054906101000a900473ffffffffffffffffffffffffffffffffffffffff1673ffffffffffffffffffffffffffffffffffffffff1673ffffffffffffffffffffffffffffffffffffffff168152505085858151811062000e2b5762000e2a620028de565b5b602002602001018190525060018462000e4591906200283f565b93505050808062000e56906200275a565b91505062000c0b565b5081935050505090565b600454341462000eb0576040517f08c379a000000000000000000000000000000000000000000000000000000000815260040162000ea79062002983565b60405180910390fd5b6000821162000ef6576040517f08c379a000000000000000000000000000000000000000000000000000000000815260040162000eed9062002a1b565b60405180910390fd5b6040518060e001604052808581526020018481526020013073ffffffffffffffffffffffffffffffffffffffff1681526020013373ffffffffffffffffffffffffffffffffffffffff168152602001838152602001600115158152602001600073ffffffffffffffffffffffffffffffffffffffff168152506006600086815260200190815260200160002060008201518160000155602082015181600101908162000fa3919062002c05565b5060408201518160020160006101000a81548173ffffffffffffffffffffffffffffffffffffffff021916908373ffffffffffffffffffffffffffffffffffffffff16021790555060608201518160030160006101000a81548173ffffffffffffffffffffffffffffffffffffffff021916908373ffffffffffffffffffffffffffffffffffffffff1602179055506080820151816004015560a08201518160050160006101000a81548160ff02191690831515021790555060c08201518160050160016101000a81548173ffffffffffffffffffffffffffffffffffffffff021916908373ffffffffffffffffffffffffffffffffffffffff16021790555090505060016000815480929190620010bb906200275a565b9190505550620010cc8482620017ed565b60008054906101000a900473ffffffffffffffffffffffffffffffffffffffff1673ffffffffffffffffffffffffffffffffffffffff1663beabacc83330876040518463ffffffff1660e01b81526004016200112b939291906200271d565b600060405180830381600087803b1580156200114657600080fd5b505af11580156200115b573d6000803e3d6000fd5b50505050837f3af611a76998e60ab88414e453c169bbc063742ab49d1747b08221e1588dbc408430338660016040516200119a95949392919062002cfd565b60405180910390a2600360009054906101000a900473ffffffffffffffffffffffffffffffffffffffff1673ffffffffffffffffffffffffffffffffffffffff166108fc6004549081150290604051600060405180830381858888f193505050501580156200120d573d6000803e3d6000fd5b5050505050565b6000805b600560008673ffffffffffffffffffffffffffffffffffffffff1673ffffffffffffffffffffffffffffffffffffffff168152602001908152602001600020805490508110156200136e5783600560008773ffffffffffffffffffffffffffffffffffffffff1673ffffffffffffffffffffffffffffffffffffffff1681526020019081526020016000208281548110620012b857620012b7620028de565b5b90600052602060002090600202016000015403620013585782600560008773ffffffffffffffffffffffffffffffffffffffff1673ffffffffffffffffffffffffffffffffffffffff1681526020019081526020016000208281548110620013255762001324620028de565b5b906000526020600020906002020160010160008282546200134791906200283f565b92505081905550600191506200136e565b808062001365906200275a565b91505062001218565b50806200140957600560008573ffffffffffffffffffffffffffffffffffffffff1673ffffffffffffffffffffffffffffffffffffffff1681526020019081526020016000206040518060400160405280858152602001848152509080600181540180825580915050600190039060005260206000209060020201600090919091909150600082015181600001556020820151816001015550505b50505050565b60005b600560008573ffffffffffffffffffffffffffffffffffffffff1673ffffffffffffffffffffffffffffffffffffffff16815260200190815260200160002080549050811015620017e75782600560008673ffffffffffffffffffffffffffffffffffffffff1673ffffffffffffffffffffffffffffffffffffffff1681526020019081526020016000208281548110620014b257620014b1620028de565b5b90600052602060002090600202016000015403620017d15781600560008673ffffffffffffffffffffffffffffffffffffffff1673ffffffffffffffffffffffffffffffffffffffff16815260200190815260200160002082815481106200151f576200151e620028de565b5b90600052602060002090600202016001015410620017cb5781600560008673ffffffffffffffffffffffffffffffffffffffff1673ffffffffffffffffffffffffffffffffffffffff16815260200190815260200160002082815481106200158c576200158b620028de565b5b90600052602060002090600202016001016000828254620015ae919062002d61565b925050819055506000600560008673ffffffffffffffffffffffffffffffffffffffff1673ffffffffffffffffffffffffffffffffffffffff16815260200190815260200160002082815481106200160b576200160a620028de565b5b90600052602060002090600202016001015403620017ca57600560008573ffffffffffffffffffffffffffffffffffffffff1673ffffffffffffffffffffffffffffffffffffffff1681526020019081526020016000206001600560008773ffffffffffffffffffffffffffffffffffffffff1673ffffffffffffffffffffffffffffffffffffffff16815260200190815260200160002080549050620016b3919062002d61565b81548110620016c757620016c6620028de565b5b9060005260206000209060020201600560008673ffffffffffffffffffffffffffffffffffffffff1673ffffffffffffffffffffffffffffffffffffffff1681526020019081526020016000208281548110620017295762001728620028de565b5b90600052602060002090600202016000820154816000015560018201548160010155905050600560008573ffffffffffffffffffffffffffffffffffffffff1673ffffffffffffffffffffffffffffffffffffffff168152602001908152602001600020805480620017a0576200179f62002d9c565b5b60019003818190600052602060002090600202016000808201600090556001820160009055505090555b5b620017e7565b8080620017de906200275a565b91505062001412565b50505050565b600073ffffffffffffffffffffffffffffffffffffffff166006600084815260200190815260200160002060050160019054906101000a900473ffffffffffffffffffffffffffffffffffffffff1673ffffffffffffffffffffffffffffffffffffffff161462001895576040517f08c379a00000000000000000000000000000000000000000000000000000000081526004016200188c9062002e1b565b60405180910390fd5b600081604051620018a69062001acb565b620018b2919062001d1e565b604051809103906000f080158015620018cf573d6000803e3d6000fd5b509050806006600085815260200190815260200160002060050160016101000a81548173ffffffffffffffffffffffffffffffffffffffff021916908373ffffffffffffffffffffffffffffffffffffffff1602179055508073ffffffffffffffffffffffffffffffffffffffff1663a9059cbb30846040518363ffffffff1660e01b81526004016200196492919062002e3d565b6020604051808303816000875af115801562001984573d6000803e3d6000fd5b505050506040513d601f19601f82011682018060405250810190620019aa9190620026eb565b50620019b78183620019bc565b505050565b60008290508073ffffffffffffffffffffffffffffffffffffffff1663095ea7b330846040518363ffffffff1660e01b8152600401620019fe92919062002e3d565b6020604051808303816000875af115801562001a1e573d6000803e3d6000fd5b505050506040513d601f19601f8201168201806040525081019062001a449190620026eb565b50505050565b6040518060e001604052806000815260200160608152602001600073ffffffffffffffffffffffffffffffffffffffff168152602001600073ffffffffffffffffffffffffffffffffffffffff16815260200160008152602001600015158152602001600073ffffffffffffffffffffffffffffffffffffffff1681525090565b6117048062002e6b83390190565b6000604051905090565b600080fd5b600080fd5b6000819050919050565b62001b028162001aed565b811462001b0e57600080fd5b50565b60008135905062001b228162001af7565b92915050565b60006020828403121562001b415762001b4062001ae3565b5b600062001b518482850162001b11565b91505092915050565b600080fd5b600080fd5b6000601f19601f8301169050919050565b7f4e487b7100000000000000000000000000000000000000000000000000000000600052604160045260246000fd5b62001baf8262001b64565b810181811067ffffffffffffffff8211171562001bd15762001bd062001b75565b5b80604052505050565b600062001be662001ad9565b905062001bf4828262001ba4565b919050565b600067ffffffffffffffff82111562001c175762001c1662001b75565b5b62001c228262001b64565b9050602081019050919050565b82818337600083830152505050565b600062001c5562001c4f8462001bf9565b62001bda565b90508281526020810184848401111562001c745762001c7362001b5f565b5b62001c8184828562001c2f565b509392505050565b600082601f83011262001ca15762001ca062001b5a565b5b813562001cb384826020860162001c3e565b91505092915050565b60006020828403121562001cd55762001cd462001ae3565b5b600082013567ffffffffffffffff81111562001cf65762001cf562001ae8565b5b62001d048482850162001c89565b91505092915050565b62001d188162001aed565b82525050565b600060208201905062001d35600083018462001d0d565b92915050565b600081519050919050565b600082825260208201905092915050565b6000819050602082019050919050565b62001d728162001aed565b82525050565b60408201600082015162001d90600085018262001d67565b50602082015162001da5602085018262001d67565b50505050565b600062001db9838362001d78565b60408301905092915050565b6000602082019050919050565b600062001ddf8262001d3b565b62001deb818562001d46565b935062001df88362001d57565b8060005b8381101562001e2f57815162001e13888262001dab565b975062001e208362001dc5565b92505060018101905062001dfc565b5085935050505092915050565b6000602082019050818103600083015262001e58818462001dd2565b905092915050565b600073ffffffffffffffffffffffffffffffffffffffff82169050919050565b600062001e8d8262001e60565b9050919050565b62001e9f8162001e80565b811462001eab57600080fd5b50565b60008135905062001ebf8162001e94565b92915050565b60006020828403121562001ede5762001edd62001ae3565b5b600062001eee8482850162001eae565b91505092915050565b6000806040838503121562001f115762001f1062001ae3565b5b600062001f218582860162001b11565b925050602062001f348582860162001b11565b9150509250929050565b6000819050919050565b600062001f6962001f6362001f5d8462001e60565b62001f3e565b62001e60565b9050919050565b600062001f7d8262001f48565b9050919050565b600062001f918262001f70565b9050919050565b62001fa38162001f84565b82525050565b600060208201905062001fc0600083018462001f98565b92915050565b600081519050919050565b600082825260208201905092915050565b6000819050602082019050919050565b600081519050919050565b600082825260208201905092915050565b60005b838110156200202e57808201518184015260208101905062002011565b60008484015250505050565b6000620020478262001ff2565b62002053818562001ffd565b9350620020658185602086016200200e565b620020708162001b64565b840191505092915050565b6000620020888262001e60565b9050919050565b6200209a816200207b565b82525050565b60008115159050919050565b620020b781620020a0565b82525050565b620020c88162001e80565b82525050565b600060e083016000830151620020e8600086018262001d67565b50602083015184820360208601526200210282826200203a565b91505060408301516200211960408601826200208f565b5060608301516200212e60608601826200208f565b50608083015162002143608086018262001d67565b5060a08301516200215860a0860182620020ac565b5060c08301516200216d60c0860182620020bd565b508091505092915050565b6000620021868383620020ce565b905092915050565b6000602082019050919050565b6000620021a88262001fc6565b620021b4818562001fd1565b935083602082028501620021c88562001fe2565b8060005b858110156200220a5784840389528151620021e8858262002178565b9450620021f5836200218e565b925060208a01995050600181019050620021cc565b50829750879550505050505092915050565b600060208201905081810360008301526200223881846200219b565b905092915050565b600080600080608085870312156200225d576200225c62001ae3565b5b60006200226d8782880162001b11565b945050602085013567ffffffffffffffff81111562002291576200229062001ae8565b5b6200229f8782880162001c89565b9350506040620022b28782880162001b11565b9250506060620022c58782880162001b11565b91505092959194509250565b600082825260208201905092915050565b7f4f6e6c7920746865206f776e65722063616e206c69737420746865206974656d600082015250565b60006200231a602083620022d1565b91506200232782620022e2565b602082019050919050565b600060208201905081810360008301526200234d816200230b565b9050919050565b6200235f8162001e80565b82525050565b6000620023728262001ff2565b6200237e8185620022d1565b9350620023908185602086016200200e565b6200239b8162001b64565b840191505092915050565b6000604082019050620023bd600083018562002354565b8181036020830152620023d1818462002365565b90509392505050565b600081519050620023eb8162001af7565b92915050565b6000602082840312156200240a576200240962001ae3565b5b60006200241a84828501620023da565b91505092915050565b60006020820190506200243a600083018462002354565b92915050565b7f4e487b7100000000000000000000000000000000000000000000000000000000600052601260045260246000fd5b7f4e487b7100000000000000000000000000000000000000000000000000000000600052601160045260246000fd5b6000620024ab8262001aed565b9150620024b88362001aed565b925082620024cb57620024ca62002440565b5b828204905092915050565b6000620024e38262001aed565b9150620024f08362001aed565b9250828202620025008162001aed565b915082820484148315176200251a57620025196200246f565b5b5092915050565b7f496e636f7272656374204554482076616c75652073656e740000000000000000600082015250565b600062002559601883620022d1565b9150620025668262002521565b602082019050919050565b600060208201905081810360008301526200258c816200254a565b9050919050565b6000620025a08262001f70565b9050919050565b620025b28162002593565b82525050565b6000604082019050620025cf6000830185620025a7565b620025de602083018462002354565b9392505050565b7f436f6e7472616374206e6f7420617070726f76656420746f207472616e73666560008201527f722074686520726571756972656420616d6f756e74206f6620746f6b656e7300602082015250565b600062002643603f83620022d1565b91506200265082620025e5565b604082019050919050565b60006020820190508181036000830152620026768162002634565b9050919050565b6000606082019050620026946000830186620025a7565b620026a3602083018562002354565b620026b2604083018462001d0d565b949350505050565b620026c581620020a0565b8114620026d157600080fd5b50565b600081519050620026e581620026ba565b92915050565b60006020828403121562002704576200270362001ae3565b5b60006200271484828501620026d4565b91505092915050565b600060608201905062002734600083018662002354565b62002743602083018562002354565b62002752604083018462001d0d565b949350505050565b6000620027678262001aed565b91507fffffffffffffffffffffffffffffffffffffffffffffffffffffffffffffffff82036200279c576200279b6200246f565b5b600182019050919050565b7f526571756573746564206672616374696f6e20616d6f756e742065786365656460008201527f7320746f74616c20737570706c79000000000000000000000000000000000000602082015250565b600062002805602e83620022d1565b91506200281282620027a7565b604082019050919050565b600060208201905081810360008301526200283881620027f6565b9050919050565b60006200284c8262001aed565b9150620028598362001aed565b92508282019050808211156200287457620028736200246f565b5b92915050565b7f4e487b7100000000000000000000000000000000000000000000000000000000600052602260045260246000fd5b60006002820490506001821680620028c257607f821691505b602082108103620028d857620028d76200287a565b5b50919050565b7f4e487b7100000000000000000000000000000000000000000000000000000000600052603260045260246000fd5b7f486f706566756c6c792073656e64696e672074686520636f727265637420707260008201527f6963650000000000000000000000000000000000000000000000000000000000602082015250565b60006200296b602383620022d1565b915062002978826200290d565b604082019050919050565b600060208201905081810360008301526200299e816200295c565b9050919050565b7f4d616b652073757265207468652070726963652069736e2774206e656761746960008201527f7665000000000000000000000000000000000000000000000000000000000000602082015250565b600062002a03602283620022d1565b915062002a1082620029a5565b604082019050919050565b6000602082019050818103600083015262002a3681620029f4565b9050919050565b60008190508160005260206000209050919050565b60006020601f8301049050919050565b600082821b905092915050565b60006008830262002aa17fffffffffffffffffffffffffffffffffffffffffffffffffffffffffffffffff8262002a62565b62002aad868362002a62565b95508019841693508086168417925050509392505050565b600062002ae662002ae062002ada8462001aed565b62001f3e565b62001aed565b9050919050565b6000819050919050565b62002b028362002ac5565b62002b1a62002b118262002aed565b84845462002a6f565b825550505050565b600090565b62002b3162002b22565b62002b3e81848462002af7565b505050565b5b8181101562002b665762002b5a60008262002b27565b60018101905062002b44565b5050565b601f82111562002bb55762002b7f8162002a3d565b62002b8a8462002a52565b8101602085101562002b9a578190505b62002bb262002ba98562002a52565b83018262002b43565b50505b505050565b600082821c905092915050565b600062002bda6000198460080262002bba565b1980831691505092915050565b600062002bf5838362002bc7565b9150826002028217905092915050565b62002c108262001ff2565b67ffffffffffffffff81111562002c2c5762002c2b62001b75565b5b62002c388254620028a9565b62002c4582828562002b6a565b600060209050601f83116001811462002c7d576000841562002c68578287015190505b62002c74858262002be7565b86555062002ce4565b601f19841662002c8d8662002a3d565b60005b8281101562002cb75784890151825560018201915060208501945060208101905062002c90565b8683101562002cd7578489015162002cd3601f89168262002bc7565b8355505b6001600288020188555050505b505050505050565b62002cf781620020a0565b82525050565b600060a082019050818103600083015262002d19818862002365565b905062002d2a602083018762002354565b62002d39604083018662002354565b62002d48606083018562001d0d565b62002d57608083018462002cec565b9695505050505050565b600062002d6e8262001aed565b915062002d7b8362001aed565b925082820390508181111562002d965762002d956200246f565b5b92915050565b7f4e487b7100000000000000000000000000000000000000000000000000000000600052603160045260246000fd5b7f416c7265616479206672616374696f6e616c697a656400000000000000000000600082015250565b600062002e03601683620022d1565b915062002e108262002dcb565b602082019050919050565b6000602082019050818103600083015262002e368162002df4565b9050919050565b600060408201905062002e54600083018562002354565b62002e63602083018462001d0d565b939250505056fe60806040523480156200001157600080fd5b5060405162001704380380620017048339818101604052810190620000379190620003df565b6040518060400160405280600d81526020017f4672616374696f6e616c4e4654000000000000000000000000000000000000008152506040518060400160405280600481526020017f464e4654000000000000000000000000000000000000000000000000000000008152508160039081620000b4919062000681565b508060049081620000c6919062000681565b505050620000db3382620000e260201b60201c565b506200089f565b600073ffffffffffffffffffffffffffffffffffffffff168273ffffffffffffffffffffffffffffffffffffffff1603620001575760006040517fec442f050000000000000000000000000000000000000000000000000000000081526004016200014e9190620007ad565b60405180910390fd5b6200016b600083836200016f60201b60201c565b5050565b600073ffffffffffffffffffffffffffffffffffffffff168373ffffffffffffffffffffffffffffffffffffffff1603620001c5578060026000828254620001b89190620007f9565b925050819055506200029b565b60008060008573ffffffffffffffffffffffffffffffffffffffff1673ffffffffffffffffffffffffffffffffffffffff1681526020019081526020016000205490508181101562000254578381836040517fe450d38c0000000000000000000000000000000000000000000000000000000081526004016200024b9392919062000845565b60405180910390fd5b8181036000808673ffffffffffffffffffffffffffffffffffffffff1673ffffffffffffffffffffffffffffffffffffffff16815260200190815260200160002081905550505b600073ffffffffffffffffffffffffffffffffffffffff168273ffffffffffffffffffffffffffffffffffffffff1603620002e6578060026000828254039250508190555062000333565b806000808473ffffffffffffffffffffffffffffffffffffffff1673ffffffffffffffffffffffffffffffffffffffff168152602001908152602001600020600082825401925050819055505b8173ffffffffffffffffffffffffffffffffffffffff168373ffffffffffffffffffffffffffffffffffffffff167fddf252ad1be2c89b69c2b068fc378daa952ba7f163c4a11628f55a4df523b3ef8360405162000392919062000882565b60405180910390a3505050565b600080fd5b6000819050919050565b620003b981620003a4565b8114620003c557600080fd5b50565b600081519050620003d981620003ae565b92915050565b600060208284031215620003f857620003f76200039f565b5b60006200040884828501620003c8565b91505092915050565b600081519050919050565b7f4e487b7100000000000000000000000000000000000000000000000000000000600052604160045260246000fd5b7f4e487b7100000000000000000000000000000000000000000000000000000000600052602260045260246000fd5b600060028204905060018216806200049357607f821691505b602082108103620004a957620004a86200044b565b5b50919050565b60008190508160005260206000209050919050565b60006020601f8301049050919050565b600082821b905092915050565b600060088302620005137fffffffffffffffffffffffffffffffffffffffffffffffffffffffffffffffff82620004d4565b6200051f8683620004d4565b95508019841693508086168417925050509392505050565b6000819050919050565b6000620005626200055c6200055684620003a4565b62000537565b620003a4565b9050919050565b6000819050919050565b6200057e8362000541565b620005966200058d8262000569565b848454620004e1565b825550505050565b600090565b620005ad6200059e565b620005ba81848462000573565b505050565b5b81811015620005e257620005d6600082620005a3565b600181019050620005c0565b5050565b601f8211156200063157620005fb81620004af565b6200060684620004c4565b8101602085101562000616578190505b6200062e6200062585620004c4565b830182620005bf565b50505b505050565b600082821c905092915050565b6000620006566000198460080262000636565b1980831691505092915050565b600062000671838362000643565b9150826002028217905092915050565b6200068c8262000411565b67ffffffffffffffff811115620006a857620006a76200041c565b5b620006b482546200047a565b620006c1828285620005e6565b600060209050601f831160018114620006f95760008415620006e4578287015190505b620006f0858262000663565b86555062000760565b601f1984166200070986620004af565b60005b8281101562000733578489015182556001820191506020850194506020810190506200070c565b868310156200075357848901516200074f601f89168262000643565b8355505b6001600288020188555050505b505050505050565b600073ffffffffffffffffffffffffffffffffffffffff82169050919050565b6000620007958262000768565b9050919050565b620007a78162000788565b82525050565b6000602082019050620007c460008301846200079c565b92915050565b7f4e487b7100000000000000000000000000000000000000000000000000000000600052601160045260246000fd5b60006200080682620003a4565b91506200081383620003a4565b92508282019050808211156200082e576200082d620007ca565b5b92915050565b6200083f81620003a4565b82525050565b60006060820190506200085c60008301866200079c565b6200086b602083018562000834565b6200087a604083018462000834565b949350505050565b600060208201905062000899600083018462000834565b92915050565b610e5580620008af6000396000f3fe608060405234801561001057600080fd5b50600436106100935760003560e01c8063313ce56711610066578063313ce5671461013457806370a082311461015257806395d89b4114610182578063a9059cbb146101a0578063dd62ed3e146101d057610093565b806306fdde0314610098578063095ea7b3146100b657806318160ddd146100e657806323b872dd14610104575b600080fd5b6100a0610200565b6040516100ad9190610aa9565b60405180910390f35b6100d060048036038101906100cb9190610b64565b610292565b6040516100dd9190610bbf565b60405180910390f35b6100ee6102b5565b6040516100fb9190610be9565b60405180910390f35b61011e60048036038101906101199190610c04565b6102bf565b60405161012b9190610bbf565b60405180910390f35b61013c6102ee565b6040516101499190610c73565b60405180910390f35b61016c60048036038101906101679190610c8e565b6102f7565b6040516101799190610be9565b60405180910390f35b61018a61033f565b6040516101979190610aa9565b60405180910390f35b6101ba60048036038101906101b59190610b64565b6103d1565b6040516101c79190610bbf565b60405180910390f35b6101ea60048036038101906101e59190610cbb565b6103f4565b6040516101f79190610be9565b60405180910390f35b60606003805461020f90610d2a565b80601f016020809104026020016040519081016040528092919081815260200182805461023b90610d2a565b80156102885780601f1061025d57610100808354040283529160200191610288565b820191906000526020600020905b81548152906001019060200180831161026b57829003601f168201915b5050505050905090565b60008061029d61047b565b90506102aa818585610483565b600191505092915050565b6000600254905090565b6000806102ca61047b565b90506102d7858285610495565b6102e2858585610529565b60019150509392505050565b60006012905090565b60008060008373ffffffffffffffffffffffffffffffffffffffff1673ffffffffffffffffffffffffffffffffffffffff168152602001908152602001600020549050919050565b60606004805461034e90610d2a565b80601f016020809104026020016040519081016040528092919081815260200182805461037a90610d2a565b80156103c75780601f1061039c576101008083540402835291602001916103c7565b820191906000526020600020905b8154815290600101906020018083116103aa57829003601f168201915b5050505050905090565b6000806103dc61047b565b90506103e9818585610529565b600191505092915050565b6000600160008473ffffffffffffffffffffffffffffffffffffffff1673ffffffffffffffffffffffffffffffffffffffff16815260200190815260200160002060008373ffffffffffffffffffffffffffffffffffffffff1673ffffffffffffffffffffffffffffffffffffffff16815260200190815260200160002054905092915050565b600033905090565b610490838383600161061d565b505050565b60006104a184846103f4565b90507fffffffffffffffffffffffffffffffffffffffffffffffffffffffffffffffff81146105235781811015610513578281836040517ffb8f41b200000000000000000000000000000000000000000000000000000000815260040161050a93929190610d6a565b60405180910390fd5b6105228484848403600061061d565b5b50505050565b600073ffffffffffffffffffffffffffffffffffffffff168373ffffffffffffffffffffffffffffffffffffffff160361059b5760006040517f96c6fd1e0000000000000000000000000000000000000000000000000000000081526004016105929190610da1565b60405180910390fd5b600073ffffffffffffffffffffffffffffffffffffffff168273ffffffffffffffffffffffffffffffffffffffff160361060d5760006040517fec442f050000000000000000000000000000000000000000000000000000000081526004016106049190610da1565b60405180910390fd5b6106188383836107f4565b505050565b600073ffffffffffffffffffffffffffffffffffffffff168473ffffffffffffffffffffffffffffffffffffffff160361068f5760006040517fe602df050000000000000000000000000000000000000000000000000000000081526004016106869190610da1565b60405180910390fd5b600073ffffffffffffffffffffffffffffffffffffffff168373ffffffffffffffffffffffffffffffffffffffff16036107015760006040517f94280d620000000000000000000000000000000000000000000000000000000081526004016106f89190610da1565b60405180910390fd5b81600160008673ffffffffffffffffffffffffffffffffffffffff1673ffffffffffffffffffffffffffffffffffffffff16815260200190815260200160002060008573ffffffffffffffffffffffffffffffffffffffff1673ffffffffffffffffffffffffffffffffffffffff1681526020019081526020016000208190555080156107ee578273ffffffffffffffffffffffffffffffffffffffff168473ffffffffffffffffffffffffffffffffffffffff167f8c5be1e5ebec7d5bd14f71427d1e84f3dd0314c0f7b2291e5b200ac8c7c3b925846040516107e59190610be9565b60405180910390a35b50505050565b600073ffffffffffffffffffffffffffffffffffffffff168373ffffffffffffffffffffffffffffffffffffffff160361084657806002600082825461083a9190610deb565b92505081905550610919565b60008060008573ffffffffffffffffffffffffffffffffffffffff1673ffffffffffffffffffffffffffffffffffffffff168152602001908152602001600020549050818110156108d2578381836040517fe450d38c0000000000000000000000000000000000000000000000000000000081526004016108c993929190610d6a565b60405180910390fd5b8181036000808673ffffffffffffffffffffffffffffffffffffffff1673ffffffffffffffffffffffffffffffffffffffff16815260200190815260200160002081905550505b600073ffffffffffffffffffffffffffffffffffffffff168273ffffffffffffffffffffffffffffffffffffffff160361096257806002600082825403925050819055506109af565b806000808473ffffffffffffffffffffffffffffffffffffffff1673ffffffffffffffffffffffffffffffffffffffff168152602001908152602001600020600082825401925050819055505b8173ffffffffffffffffffffffffffffffffffffffff168373ffffffffffffffffffffffffffffffffffffffff167fddf252ad1be2c89b69c2b068fc378daa952ba7f163c4a11628f55a4df523b3ef83604051610a0c9190610be9565b60405180910390a3505050565b600081519050919050565b600082825260208201905092915050565b60005b83811015610a53578082015181840152602081019050610a38565b60008484015250505050565b6000601f19601f8301169050919050565b6000610a7b82610a19565b610a858185610a24565b9350610a95818560208601610a35565b610a9e81610a5f565b840191505092915050565b60006020820190508181036000830152610ac38184610a70565b905092915050565b600080fd5b600073ffffffffffffffffffffffffffffffffffffffff82169050919050565b6000610afb82610ad0565b9050919050565b610b0b81610af0565b8114610b1657600080fd5b50565b600081359050610b2881610b02565b92915050565b6000819050919050565b610b4181610b2e565b8114610b4c57600080fd5b50565b600081359050610b5e81610b38565b92915050565b60008060408385031215610b7b57610b7a610acb565b5b6000610b8985828601610b19565b9250506020610b9a85828601610b4f565b9150509250929050565b60008115159050919050565b610bb981610ba4565b82525050565b6000602082019050610bd46000830184610bb0565b92915050565b610be381610b2e565b82525050565b6000602082019050610bfe6000830184610bda565b92915050565b600080600060608486031215610c1d57610c1c610acb565b5b6000610c2b86828701610b19565b9350506020610c3c86828701610b19565b9250506040610c4d86828701610b4f565b9150509250925092565b600060ff82169050919050565b610c6d81610c57565b82525050565b6000602082019050610c886000830184610c64565b92915050565b600060208284031215610ca457610ca3610acb565b5b6000610cb284828501610b19565b91505092915050565b60008060408385031215610cd257610cd1610acb565b5b6000610ce085828601610b19565b9250506020610cf185828601610b19565b9150509250929050565b7f4e487b7100000000000000000000000000000000000000000000000000000000600052602260045260246000fd5b60006002820490506001821680610d4257607f821691505b602082108103610d5557610d54610cfb565b5b50919050565b610d6481610af0565b82525050565b6000606082019050610d7f6000830186610d5b565b610d8c6020830185610bda565b610d996040830184610bda565b949350505050565b6000602082019050610db66000830184610d5b565b92915050565b7f4e487b7100000000000000000000000000000000000000000000000000000000600052601160045260246000fd5b6000610df682610b2e565b9150610e0183610b2e565b9250828201905080821115610e1957610e18610dbc565b5b9291505056fea26469706673582212202eb0b7449f3ebf97f343fc6a797f821b989e3cc580b7ed1a57913189e060e7ef64736f6c63430008140033a26469706673582212204a5fe3f335740be960ed22ccfd6b548d348e4bf22369681991e09f7a07c1f87964736f6c63430008140033",
  "linkReferences": {},
  "deployedLinkReferences": {}
}