{
  "_format": "hh-sol-artifact-1",
  "contractName": "Marketplace",
  "sourceName": "contracts/Marketplace.sol",
  "abi": [
    {
      "inputs": [
        {
          "internalType": "address",
          "name": "_nftContractAddress",
          "type": "address"
        }
      ],
      "stateMutability": "nonpayable",
      "type": "constructor"
    },
    {
      "anonymous": false,
      "inputs": [
        {
          "indexed": true,
          "internalType": "uint256",
          "name": "tokenId",
          "type": "uint256"
        },
        {
          "indexed": false,
          "internalType": "string",
          "name": "tokenURI",
          "type": "string"
        },
        {
          "indexed": false,
          "internalType": "address",
          "name": "owner",
          "type": "address"
        },
        {
          "indexed": false,
          "internalType": "address",
          "name": "seller",
          "type": "address"
        },
        {
          "indexed": false,
          "internalType": "uint256",
          "name": "price",
          "type": "uint256"
        },
        {
          "indexed": false,
          "internalType": "bool",
          "name": "currentlyListed",
          "type": "bool"
        }
      ],
      "name": "TokenListedSuccess",
      "type": "event"
    },
    {
      "inputs": [
        {
          "internalType": "uint256",
          "name": "tokenId",
          "type": "uint256"
        },
        {
          "internalType": "uint256",
          "name": "fractionAmount",
          "type": "uint256"
        }
      ],
      "name": "buyFraction",
      "outputs": [],
      "stateMutability": "payable",
      "type": "function"
    },
    {
      "inputs": [
        {
          "internalType": "string",
          "name": "tokenURI",
          "type": "string"
        },
        {
          "internalType": "uint256",
          "name": "price",
          "type": "uint256"
        },
        {
          "internalType": "uint256",
          "name": "fractionSupply",
          "type": "uint256"
        }
      ],
      "name": "createListedToken",
      "outputs": [],
      "stateMutability": "payable",
      "type": "function"
    },
    {
      "inputs": [],
      "name": "getAllFractions",
      "outputs": [
        {
          "components": [
            {
              "internalType": "uint256",
              "name": "tokenId",
              "type": "uint256"
            },
            {
              "internalType": "uint256",
              "name": "fractionAmount",
              "type": "uint256"
            }
          ],
          "internalType": "struct Marketplace.FractOwner[]",
          "name": "",
          "type": "tuple[]"
        }
      ],
      "stateMutability": "view",
      "type": "function"
    },
    {
      "inputs": [],
      "name": "getAllNFTs",
      "outputs": [
        {
          "components": [
            {
              "internalType": "uint256",
              "name": "tokenId",
              "type": "uint256"
            },
            {
              "internalType": "string",
              "name": "tokenURI",
              "type": "string"
            },
            {
              "internalType": "address payable",
              "name": "owner",
              "type": "address"
            },
            {
              "internalType": "address payable",
              "name": "seller",
              "type": "address"
            },
            {
              "internalType": "uint256",
              "name": "price",
              "type": "uint256"
            },
            {
              "internalType": "bool",
              "name": "currentlyListed",
              "type": "bool"
            },
            {
              "internalType": "address",
              "name": "fractionalTokenAddress",
              "type": "address"
            }
          ],
          "internalType": "struct Marketplace.ListedToken[]",
          "name": "",
          "type": "tuple[]"
        }
      ],
      "stateMutability": "view",
      "type": "function"
    },
    {
      "inputs": [
        {
          "internalType": "address",
          "name": "fractionalTokenAddress",
          "type": "address"
        }
      ],
      "name": "getBalanceSupplyOfTokens",
      "outputs": [
        {
          "internalType": "uint256",
          "name": "",
          "type": "uint256"
        }
      ],
      "stateMutability": "view",
      "type": "function"
    },
    {
      "inputs": [
        {
          "internalType": "uint256",
          "name": "tokenId",
          "type": "uint256"
        }
      ],
      "name": "listTheNFT",
      "outputs": [],
      "stateMutability": "payable",
      "type": "function"
    },
    {
      "inputs": [],
      "name": "nftContract",
      "outputs": [
        {
          "internalType": "contract NFTContract",
          "name": "",
          "type": "address"
        }
      ],
      "stateMutability": "view",
      "type": "function"
    }
  ],
  "bytecode": "0x60806040526601c6bf526340006004553480156200001c57600080fd5b506040516200465e3803806200465e833981810160405281019062000042919062000134565b33600360006101000a81548173ffffffffffffffffffffffffffffffffffffffff021916908373ffffffffffffffffffffffffffffffffffffffff160217905550806000806101000a81548173ffffffffffffffffffffffffffffffffffffffff021916908373ffffffffffffffffffffffffffffffffffffffff1602179055505062000166565b600080fd5b600073ffffffffffffffffffffffffffffffffffffffff82169050919050565b6000620000fc82620000cf565b9050919050565b6200010e81620000ef565b81146200011a57600080fd5b50565b6000815190506200012e8162000103565b92915050565b6000602082840312156200014d576200014c620000ca565b5b60006200015d848285016200011d565b91505092915050565b6144e880620001766000396000f3fe6080604052600436106200007a5760003560e01c80638b1e458211620000555780638b1e45821462000113578063d40b02141462000133578063d56d229d1462000153578063e0391b091462000183576200007a565b80630ee6b29c146200007f5780634e1327ad146200009f5780636d78ab2314620000cf575b600080fd5b6200009d600480360381019062000097919062001ad3565b620001b3565b005b348015620000ac57600080fd5b50620000b76200028c565b604051620000c6919062001c06565b60405180910390f35b348015620000dc57600080fd5b50620000fb6004803603810190620000f5919062001c8f565b6200033e565b6040516200010a919062001cd2565b60405180910390f35b6200013160048036038101906200012b919062001e51565b620003d1565b005b6200015160048036038101906200014b919062001ecc565b62000824565b005b3480156200016057600080fd5b506200016b62000ed1565b6040516200017a919062001f7e565b60405180910390f35b3480156200019057600080fd5b506200019b62000ef5565b604051620001aa9190620021f1565b60405180910390f35b3373ffffffffffffffffffffffffffffffffffffffff166006600083815260200190815260200160002060020160009054906101000a900473ffffffffffffffffffffffffffffffffffffffff1673ffffffffffffffffffffffffffffffffffffffff16146200025a576040517f08c379a0000000000000000000000000000000000000000000000000000000008152600401620002519062002276565b60405180910390fd5b60016006600083815260200190815260200160002060050160006101000a81548160ff02191690831515021790555050565b6060600560003373ffffffffffffffffffffffffffffffffffffffff1673ffffffffffffffffffffffffffffffffffffffff168152602001908152602001600020805480602002602001604051908101604052809291908181526020016000905b828210156200033557838290600052602060002090600202016040518060400160405290816000820154815260200160018201548152505081526020019060010190620002ed565b50505050905090565b60008082905060008173ffffffffffffffffffffffffffffffffffffffff166370a08231306040518263ffffffff1660e01b8152600401620003819190620022a9565b602060405180830381865afa1580156200039f573d6000803e3d6000fd5b505050506040513d601f19601f82011682018060405250810190620003c59190620022dd565b90508092505050919050565b600454341462000418576040517f08c379a00000000000000000000000000000000000000000000000000000000081526004016200040f9062002385565b60405180910390fd5b600082116200045e576040517f08c379a000000000000000000000000000000000000000000000000000000000815260040162000455906200241d565b60405180910390fd5b60008060009054906101000a900473ffffffffffffffffffffffffffffffffffffffff1673ffffffffffffffffffffffffffffffffffffffff1663eacabe1433866040518363ffffffff1660e01b8152600401620004be92919062002480565b6020604051808303816000875af1158015620004de573d6000803e3d6000fd5b505050506040513d601f19601f82011682018060405250810190620005049190620022dd565b90506040518060e001604052808281526020018581526020013073ffffffffffffffffffffffffffffffffffffffff1681526020013373ffffffffffffffffffffffffffffffffffffffff168152602001848152602001600115158152602001600073ffffffffffffffffffffffffffffffffffffffff1681525060066000838152602001908152602001600020600082015181600001556020820151816001019081620005b39190620026e0565b5060408201518160020160006101000a81548173ffffffffffffffffffffffffffffffffffffffff021916908373ffffffffffffffffffffffffffffffffffffffff16021790555060608201518160030160006101000a81548173ffffffffffffffffffffffffffffffffffffffff021916908373ffffffffffffffffffffffffffffffffffffffff1602179055506080820151816004015560a08201518160050160006101000a81548160ff02191690831515021790555060c08201518160050160016101000a81548173ffffffffffffffffffffffffffffffffffffffff021916908373ffffffffffffffffffffffffffffffffffffffff16021790555090505060016000815480929190620006cb90620027f6565b9190505550620006dc8183620011bf565b60008054906101000a900473ffffffffffffffffffffffffffffffffffffffff1673ffffffffffffffffffffffffffffffffffffffff1663beabacc83330846040518463ffffffff1660e01b81526004016200073b9392919062002843565b600060405180830381600087803b1580156200075657600080fd5b505af11580156200076b573d6000803e3d6000fd5b50505050807f3af611a76998e60ab88414e453c169bbc063742ab49d1747b08221e1588dbc40853033876001604051620007aa95949392919062002891565b60405180910390a2600360009054906101000a900473ffffffffffffffffffffffffffffffffffffffff1673ffffffffffffffffffffffffffffffffffffffff166108fc6004549081150290604051600060405180830381858888f193505050501580156200081d573d6000803e3d6000fd5b5050505050565b60006006600084815260200190815260200160002090506000808260050160019054906101000a900473ffffffffffffffffffffffffffffffffffffffff16905060008173ffffffffffffffffffffffffffffffffffffffff166318160ddd6040518163ffffffff1660e01b8152600401602060405180830381865afa158015620008b3573d6000803e3d6000fd5b505050506040513d601f19601f82011682018060405250810190620008d99190620022dd565b90508085101562000af757808460040154620008f6919062002924565b925084836200090691906200295c565b34146200094a576040517f08c379a00000000000000000000000000000000000000000000000000000000081526004016200094190620029f7565b60405180910390fd5b60008273ffffffffffffffffffffffffffffffffffffffff1663dd62ed3e8660020160009054906101000a900473ffffffffffffffffffffffffffffffffffffffff16306040518363ffffffff1660e01b8152600401620009ad92919062002a3e565b602060405180830381865afa158015620009cb573d6000803e3d6000fd5b505050506040513d601f19601f82011682018060405250810190620009f19190620022dd565b90508581101562000a39576040517f08c379a000000000000000000000000000000000000000000000000000000000815260040162000a309062002ae1565b60405180910390fd5b8273ffffffffffffffffffffffffffffffffffffffff166323b872dd8660020160009054906101000a900473ffffffffffffffffffffffffffffffffffffffff1633896040518463ffffffff1660e01b815260040162000a9c9392919062002b03565b6020604051808303816000875af115801562000abc573d6000803e3d6000fd5b505050506040513d601f19601f8201168201806040525081019062000ae2919062002b71565b5062000af03388886200138e565b5062000ec9565b80850362000e8b5780846004015462000b11919062002924565b9250848362000b2191906200295c565b341462000b65576040517f08c379a000000000000000000000000000000000000000000000000000000000815260040162000b5c90620029f7565b60405180910390fd5b60008054906101000a900473ffffffffffffffffffffffffffffffffffffffff1673ffffffffffffffffffffffffffffffffffffffff1663beabacc83033896040518463ffffffff1660e01b815260040162000bc49392919062002843565b600060405180830381600087803b15801562000bdf57600080fd5b505af115801562000bf4573d6000803e3d6000fd5b5050505060008273ffffffffffffffffffffffffffffffffffffffff1663dd62ed3e8660020160009054906101000a900473ffffffffffffffffffffffffffffffffffffffff16306040518363ffffffff1660e01b815260040162000c5b92919062002a3e565b602060405180830381865afa15801562000c79573d6000803e3d6000fd5b505050506040513d601f19601f8201168201806040525081019062000c9f9190620022dd565b90508581101562000ce7576040517f08c379a000000000000000000000000000000000000000000000000000000000815260040162000cde9062002ae1565b60405180910390fd5b8273ffffffffffffffffffffffffffffffffffffffff166323b872dd8660020160009054906101000a900473ffffffffffffffffffffffffffffffffffffffff1633896040518463ffffffff1660e01b815260040162000d4a9392919062002b03565b6020604051808303816000875af115801562000d6a573d6000803e3d6000fd5b505050506040513d601f19601f8201168201806040525081019062000d90919062002b71565b5060008560050160006101000a81548160ff021916908315150217905550338560030160006101000a81548173ffffffffffffffffffffffffffffffffffffffff021916908373ffffffffffffffffffffffffffffffffffffffff1602179055506002600081548092919062000e0690620027f6565b91905055508460030160009054906101000a900473ffffffffffffffffffffffffffffffffffffffff1673ffffffffffffffffffffffffffffffffffffffff166108fc349081150290604051600060405180830381858888f1935050505015801562000e76573d6000803e3d6000fd5b5062000e8433888862001589565b5062000ec8565b6040517f08c379a000000000000000000000000000000000000000000000000000000000815260040162000ebf9062002c19565b60405180910390fd5b5b505050505050565b60008054906101000a900473ffffffffffffffffffffffffffffffffffffffff1681565b60606000600154905060008167ffffffffffffffff81111562000f1d5762000f1c62001d0a565b5b60405190808252806020026020018201604052801562000f5a57816020015b62000f46620019f5565b81526020019060019003908162000f3c5790505b5090506000805b83811015620011b557600060018262000f7b919062002c3b565b90506000600660008381526020019081526020016000209050806040518060e00160405290816000820154815260200160018201805462000fbc90620024e3565b80601f016020809104026020016040519081016040528092919081815260200182805462000fea90620024e3565b80156200103b5780601f106200100f576101008083540402835291602001916200103b565b820191906000526020600020905b8154815290600101906020018083116200101d57829003601f168201915b505050505081526020016002820160009054906101000a900473ffffffffffffffffffffffffffffffffffffffff1673ffffffffffffffffffffffffffffffffffffffff1673ffffffffffffffffffffffffffffffffffffffff1681526020016003820160009054906101000a900473ffffffffffffffffffffffffffffffffffffffff1673ffffffffffffffffffffffffffffffffffffffff1673ffffffffffffffffffffffffffffffffffffffff168152602001600482015481526020016005820160009054906101000a900460ff161515151581526020016005820160019054906101000a900473ffffffffffffffffffffffffffffffffffffffff1673ffffffffffffffffffffffffffffffffffffffff1673ffffffffffffffffffffffffffffffffffffffff168152505085858151811062001181576200118062002c76565b5b60200260200101819052506001846200119b919062002c3b565b935050508080620011ac90620027f6565b91505062000f61565b5081935050505090565b600073ffffffffffffffffffffffffffffffffffffffff166006600084815260200190815260200160002060050160019054906101000a900473ffffffffffffffffffffffffffffffffffffffff1673ffffffffffffffffffffffffffffffffffffffff161462001267576040517f08c379a00000000000000000000000000000000000000000000000000000000081526004016200125e9062002cf5565b60405180910390fd5b600081604051620012789062001a76565b62001284919062001cd2565b604051809103906000f080158015620012a1573d6000803e3d6000fd5b509050806006600085815260200190815260200160002060050160016101000a81548173ffffffffffffffffffffffffffffffffffffffff021916908373ffffffffffffffffffffffffffffffffffffffff1602179055508073ffffffffffffffffffffffffffffffffffffffff1663a9059cbb30846040518363ffffffff1660e01b81526004016200133692919062002d17565b6020604051808303816000875af115801562001356573d6000803e3d6000fd5b505050506040513d601f19601f820116820180604052508101906200137c919062002b71565b5062001389818362001967565b505050565b6000805b600560008673ffffffffffffffffffffffffffffffffffffffff1673ffffffffffffffffffffffffffffffffffffffff16815260200190815260200160002080549050811015620014e85783600560008773ffffffffffffffffffffffffffffffffffffffff1673ffffffffffffffffffffffffffffffffffffffff168152602001908152602001600020828154811062001432576200143162002c76565b5b90600052602060002090600202016000015403620014d25782600560008773ffffffffffffffffffffffffffffffffffffffff1673ffffffffffffffffffffffffffffffffffffffff16815260200190815260200160002082815481106200149f576200149e62002c76565b5b90600052602060002090600202016001016000828254620014c1919062002c3b565b9250508190555060019150620014e8565b8080620014df90620027f6565b91505062001392565b50806200158357600560008573ffffffffffffffffffffffffffffffffffffffff1673ffffffffffffffffffffffffffffffffffffffff1681526020019081526020016000206040518060400160405280858152602001848152509080600181540180825580915050600190039060005260206000209060020201600090919091909150600082015181600001556020820151816001015550505b50505050565b60005b600560008573ffffffffffffffffffffffffffffffffffffffff1673ffffffffffffffffffffffffffffffffffffffff16815260200190815260200160002080549050811015620019615782600560008673ffffffffffffffffffffffffffffffffffffffff1673ffffffffffffffffffffffffffffffffffffffff16815260200190815260200160002082815481106200162c576200162b62002c76565b5b906000526020600020906002020160000154036200194b5781600560008673ffffffffffffffffffffffffffffffffffffffff1673ffffffffffffffffffffffffffffffffffffffff168152602001908152602001600020828154811062001699576200169862002c76565b5b90600052602060002090600202016001015410620019455781600560008673ffffffffffffffffffffffffffffffffffffffff1673ffffffffffffffffffffffffffffffffffffffff168152602001908152602001600020828154811062001706576200170562002c76565b5b9060005260206000209060020201600101600082825462001728919062002d44565b925050819055506000600560008673ffffffffffffffffffffffffffffffffffffffff1673ffffffffffffffffffffffffffffffffffffffff168152602001908152602001600020828154811062001785576200178462002c76565b5b906000526020600020906002020160010154036200194457600560008573ffffffffffffffffffffffffffffffffffffffff1673ffffffffffffffffffffffffffffffffffffffff1681526020019081526020016000206001600560008773ffffffffffffffffffffffffffffffffffffffff1673ffffffffffffffffffffffffffffffffffffffff168152602001908152602001600020805490506200182d919062002d44565b8154811062001841576200184062002c76565b5b9060005260206000209060020201600560008673ffffffffffffffffffffffffffffffffffffffff1673ffffffffffffffffffffffffffffffffffffffff1681526020019081526020016000208281548110620018a357620018a262002c76565b5b90600052602060002090600202016000820154816000015560018201548160010155905050600560008573ffffffffffffffffffffffffffffffffffffffff1673ffffffffffffffffffffffffffffffffffffffff1681526020019081526020016000208054806200191a576200191962002d7f565b5b60019003818190600052602060002090600202016000808201600090556001820160009055505090555b5b62001961565b80806200195890620027f6565b9150506200158c565b50505050565b60008290508073ffffffffffffffffffffffffffffffffffffffff1663095ea7b330846040518363ffffffff1660e01b8152600401620019a992919062002d17565b6020604051808303816000875af1158015620019c9573d6000803e3d6000fd5b505050506040513d601f19601f82011682018060405250810190620019ef919062002b71565b50505050565b6040518060e001604052806000815260200160608152602001600073ffffffffffffffffffffffffffffffffffffffff168152602001600073ffffffffffffffffffffffffffffffffffffffff16815260200160008152602001600015158152602001600073ffffffffffffffffffffffffffffffffffffffff1681525090565b6117048062002daf83390190565b6000604051905090565b600080fd5b600080fd5b6000819050919050565b62001aad8162001a98565b811462001ab957600080fd5b50565b60008135905062001acd8162001aa2565b92915050565b60006020828403121562001aec5762001aeb62001a8e565b5b600062001afc8482850162001abc565b91505092915050565b600081519050919050565b600082825260208201905092915050565b6000819050602082019050919050565b62001b3c8162001a98565b82525050565b60408201600082015162001b5a600085018262001b31565b50602082015162001b6f602085018262001b31565b50505050565b600062001b83838362001b42565b60408301905092915050565b6000602082019050919050565b600062001ba98262001b05565b62001bb5818562001b10565b935062001bc28362001b21565b8060005b8381101562001bf957815162001bdd888262001b75565b975062001bea8362001b8f565b92505060018101905062001bc6565b5085935050505092915050565b6000602082019050818103600083015262001c22818462001b9c565b905092915050565b600073ffffffffffffffffffffffffffffffffffffffff82169050919050565b600062001c578262001c2a565b9050919050565b62001c698162001c4a565b811462001c7557600080fd5b50565b60008135905062001c898162001c5e565b92915050565b60006020828403121562001ca85762001ca762001a8e565b5b600062001cb88482850162001c78565b91505092915050565b62001ccc8162001a98565b82525050565b600060208201905062001ce9600083018462001cc1565b92915050565b600080fd5b600080fd5b6000601f19601f8301169050919050565b7f4e487b7100000000000000000000000000000000000000000000000000000000600052604160045260246000fd5b62001d448262001cf9565b810181811067ffffffffffffffff8211171562001d665762001d6562001d0a565b5b80604052505050565b600062001d7b62001a84565b905062001d89828262001d39565b919050565b600067ffffffffffffffff82111562001dac5762001dab62001d0a565b5b62001db78262001cf9565b9050602081019050919050565b82818337600083830152505050565b600062001dea62001de48462001d8e565b62001d6f565b90508281526020810184848401111562001e095762001e0862001cf4565b5b62001e1684828562001dc4565b509392505050565b600082601f83011262001e365762001e3562001cef565b5b813562001e4884826020860162001dd3565b91505092915050565b60008060006060848603121562001e6d5762001e6c62001a8e565b5b600084013567ffffffffffffffff81111562001e8e5762001e8d62001a93565b5b62001e9c8682870162001e1e565b935050602062001eaf8682870162001abc565b925050604062001ec28682870162001abc565b9150509250925092565b6000806040838503121562001ee65762001ee562001a8e565b5b600062001ef68582860162001abc565b925050602062001f098582860162001abc565b9150509250929050565b6000819050919050565b600062001f3e62001f3862001f328462001c2a565b62001f13565b62001c2a565b9050919050565b600062001f528262001f1d565b9050919050565b600062001f668262001f45565b9050919050565b62001f788162001f59565b82525050565b600060208201905062001f95600083018462001f6d565b92915050565b600081519050919050565b600082825260208201905092915050565b6000819050602082019050919050565b600081519050919050565b600082825260208201905092915050565b60005b838110156200200357808201518184015260208101905062001fe6565b60008484015250505050565b60006200201c8262001fc7565b62002028818562001fd2565b93506200203a81856020860162001fe3565b620020458162001cf9565b840191505092915050565b60006200205d8262001c2a565b9050919050565b6200206f8162002050565b82525050565b60008115159050919050565b6200208c8162002075565b82525050565b6200209d8162001c4a565b82525050565b600060e083016000830151620020bd600086018262001b31565b5060208301518482036020860152620020d782826200200f565b9150506040830151620020ee604086018262002064565b50606083015162002103606086018262002064565b50608083015162002118608086018262001b31565b5060a08301516200212d60a086018262002081565b5060c08301516200214260c086018262002092565b508091505092915050565b60006200215b8383620020a3565b905092915050565b6000602082019050919050565b60006200217d8262001f9b565b62002189818562001fa6565b9350836020820285016200219d8562001fb7565b8060005b85811015620021df5784840389528151620021bd85826200214d565b9450620021ca8362002163565b925060208a01995050600181019050620021a1565b50829750879550505050505092915050565b600060208201905081810360008301526200220d818462002170565b905092915050565b600082825260208201905092915050565b7f4f6e6c7920746865206f776e65722063616e206c69737420746865206974656d600082015250565b60006200225e60208362002215565b91506200226b8262002226565b602082019050919050565b6000602082019050818103600083015262002291816200224f565b9050919050565b620022a38162001c4a565b82525050565b6000602082019050620022c0600083018462002298565b92915050565b600081519050620022d78162001aa2565b92915050565b600060208284031215620022f657620022f562001a8e565b5b60006200230684828501620022c6565b91505092915050565b7f486f706566756c6c792073656e64696e672074686520636f727265637420707260008201527f6963650000000000000000000000000000000000000000000000000000000000602082015250565b60006200236d60238362002215565b91506200237a826200230f565b604082019050919050565b60006020820190508181036000830152620023a0816200235e565b9050919050565b7f4d616b652073757265207468652070726963652069736e2774206e656761746960008201527f7665000000000000000000000000000000000000000000000000000000000000602082015250565b60006200240560228362002215565b91506200241282620023a7565b604082019050919050565b600060208201905081810360008301526200243881620023f6565b9050919050565b60006200244c8262001fc7565b62002458818562002215565b93506200246a81856020860162001fe3565b620024758162001cf9565b840191505092915050565b600060408201905062002497600083018562002298565b8181036020830152620024ab81846200243f565b90509392505050565b7f4e487b7100000000000000000000000000000000000000000000000000000000600052602260045260246000fd5b60006002820490506001821680620024fc57607f821691505b602082108103620025125762002511620024b4565b5b50919050565b60008190508160005260206000209050919050565b60006020601f8301049050919050565b600082821b905092915050565b6000600883026200257c7fffffffffffffffffffffffffffffffffffffffffffffffffffffffffffffffff826200253d565b6200258886836200253d565b95508019841693508086168417925050509392505050565b6000620025c1620025bb620025b58462001a98565b62001f13565b62001a98565b9050919050565b6000819050919050565b620025dd83620025a0565b620025f5620025ec82620025c8565b8484546200254a565b825550505050565b600090565b6200260c620025fd565b62002619818484620025d2565b505050565b5b8181101562002641576200263560008262002602565b6001810190506200261f565b5050565b601f82111562002690576200265a8162002518565b62002665846200252d565b8101602085101562002675578190505b6200268d62002684856200252d565b8301826200261e565b50505b505050565b600082821c905092915050565b6000620026b56000198460080262002695565b1980831691505092915050565b6000620026d08383620026a2565b9150826002028217905092915050565b620026eb8262001fc7565b67ffffffffffffffff81111562002707576200270662001d0a565b5b620027138254620024e3565b6200272082828562002645565b600060209050601f83116001811462002758576000841562002743578287015190505b6200274f8582620026c2565b865550620027bf565b601f198416620027688662002518565b60005b8281101562002792578489015182556001820191506020850194506020810190506200276b565b86831015620027b25784890151620027ae601f891682620026a2565b8355505b6001600288020188555050505b505050505050565b7f4e487b7100000000000000000000000000000000000000000000000000000000600052601160045260246000fd5b6000620028038262001a98565b91507fffffffffffffffffffffffffffffffffffffffffffffffffffffffffffffffff8203620028385762002837620027c7565b5b600182019050919050565b60006060820190506200285a600083018662002298565b62002869602083018562002298565b62002878604083018462001cc1565b949350505050565b6200288b8162002075565b82525050565b600060a0820190508181036000830152620028ad81886200243f565b9050620028be602083018762002298565b620028cd604083018662002298565b620028dc606083018562001cc1565b620028eb608083018462002880565b9695505050505050565b7f4e487b7100000000000000000000000000000000000000000000000000000000600052601260045260246000fd5b6000620029318262001a98565b91506200293e8362001a98565b925082620029515762002950620028f5565b5b828204905092915050565b6000620029698262001a98565b9150620029768362001a98565b9250828202620029868162001a98565b91508282048414831517620029a0576200299f620027c7565b5b5092915050565b7f496e636f7272656374204554482076616c75652073656e740000000000000000600082015250565b6000620029df60188362002215565b9150620029ec82620029a7565b602082019050919050565b6000602082019050818103600083015262002a1281620029d0565b9050919050565b600062002a268262001f45565b9050919050565b62002a388162002a19565b82525050565b600060408201905062002a55600083018562002a2d565b62002a64602083018462002298565b9392505050565b7f436f6e7472616374206e6f7420617070726f76656420746f207472616e73666560008201527f722074686520726571756972656420616d6f756e74206f6620746f6b656e7300602082015250565b600062002ac9603f8362002215565b915062002ad68262002a6b565b604082019050919050565b6000602082019050818103600083015262002afc8162002aba565b9050919050565b600060608201905062002b1a600083018662002a2d565b62002b29602083018562002298565b62002b38604083018462001cc1565b949350505050565b62002b4b8162002075565b811462002b5757600080fd5b50565b60008151905062002b6b8162002b40565b92915050565b60006020828403121562002b8a5762002b8962001a8e565b5b600062002b9a8482850162002b5a565b91505092915050565b7f526571756573746564206672616374696f6e20616d6f756e742065786365656460008201527f7320746f74616c20737570706c79000000000000000000000000000000000000602082015250565b600062002c01602e8362002215565b915062002c0e8262002ba3565b604082019050919050565b6000602082019050818103600083015262002c348162002bf2565b9050919050565b600062002c488262001a98565b915062002c558362001a98565b925082820190508082111562002c705762002c6f620027c7565b5b92915050565b7f4e487b7100000000000000000000000000000000000000000000000000000000600052603260045260246000fd5b7f416c7265616479206672616374696f6e616c697a656400000000000000000000600082015250565b600062002cdd60168362002215565b915062002cea8262002ca5565b602082019050919050565b6000602082019050818103600083015262002d108162002cce565b9050919050565b600060408201905062002d2e600083018562002298565b62002d3d602083018462001cc1565b9392505050565b600062002d518262001a98565b915062002d5e8362001a98565b925082820390508181111562002d795762002d78620027c7565b5b92915050565b7f4e487b7100000000000000000000000000000000000000000000000000000000600052603160045260246000fdfe60806040523480156200001157600080fd5b5060405162001704380380620017048339818101604052810190620000379190620003df565b6040518060400160405280600d81526020017f4672616374696f6e616c4e4654000000000000000000000000000000000000008152506040518060400160405280600481526020017f464e4654000000000000000000000000000000000000000000000000000000008152508160039081620000b4919062000681565b508060049081620000c6919062000681565b505050620000db3382620000e260201b60201c565b506200089f565b600073ffffffffffffffffffffffffffffffffffffffff168273ffffffffffffffffffffffffffffffffffffffff1603620001575760006040517fec442f050000000000000000000000000000000000000000000000000000000081526004016200014e9190620007ad565b60405180910390fd5b6200016b600083836200016f60201b60201c565b5050565b600073ffffffffffffffffffffffffffffffffffffffff168373ffffffffffffffffffffffffffffffffffffffff1603620001c5578060026000828254620001b89190620007f9565b925050819055506200029b565b60008060008573ffffffffffffffffffffffffffffffffffffffff1673ffffffffffffffffffffffffffffffffffffffff1681526020019081526020016000205490508181101562000254578381836040517fe450d38c0000000000000000000000000000000000000000000000000000000081526004016200024b9392919062000845565b60405180910390fd5b8181036000808673ffffffffffffffffffffffffffffffffffffffff1673ffffffffffffffffffffffffffffffffffffffff16815260200190815260200160002081905550505b600073ffffffffffffffffffffffffffffffffffffffff168273ffffffffffffffffffffffffffffffffffffffff1603620002e6578060026000828254039250508190555062000333565b806000808473ffffffffffffffffffffffffffffffffffffffff1673ffffffffffffffffffffffffffffffffffffffff168152602001908152602001600020600082825401925050819055505b8173ffffffffffffffffffffffffffffffffffffffff168373ffffffffffffffffffffffffffffffffffffffff167fddf252ad1be2c89b69c2b068fc378daa952ba7f163c4a11628f55a4df523b3ef8360405162000392919062000882565b60405180910390a3505050565b600080fd5b6000819050919050565b620003b981620003a4565b8114620003c557600080fd5b50565b600081519050620003d981620003ae565b92915050565b600060208284031215620003f857620003f76200039f565b5b60006200040884828501620003c8565b91505092915050565b600081519050919050565b7f4e487b7100000000000000000000000000000000000000000000000000000000600052604160045260246000fd5b7f4e487b7100000000000000000000000000000000000000000000000000000000600052602260045260246000fd5b600060028204905060018216806200049357607f821691505b602082108103620004a957620004a86200044b565b5b50919050565b60008190508160005260206000209050919050565b60006020601f8301049050919050565b600082821b905092915050565b600060088302620005137fffffffffffffffffffffffffffffffffffffffffffffffffffffffffffffffff82620004d4565b6200051f8683620004d4565b95508019841693508086168417925050509392505050565b6000819050919050565b6000620005626200055c6200055684620003a4565b62000537565b620003a4565b9050919050565b6000819050919050565b6200057e8362000541565b620005966200058d8262000569565b848454620004e1565b825550505050565b600090565b620005ad6200059e565b620005ba81848462000573565b505050565b5b81811015620005e257620005d6600082620005a3565b600181019050620005c0565b5050565b601f8211156200063157620005fb81620004af565b6200060684620004c4565b8101602085101562000616578190505b6200062e6200062585620004c4565b830182620005bf565b50505b505050565b600082821c905092915050565b6000620006566000198460080262000636565b1980831691505092915050565b600062000671838362000643565b9150826002028217905092915050565b6200068c8262000411565b67ffffffffffffffff811115620006a857620006a76200041c565b5b620006b482546200047a565b620006c1828285620005e6565b600060209050601f831160018114620006f95760008415620006e4578287015190505b620006f0858262000663565b86555062000760565b601f1984166200070986620004af565b60005b8281101562000733578489015182556001820191506020850194506020810190506200070c565b868310156200075357848901516200074f601f89168262000643565b8355505b6001600288020188555050505b505050505050565b600073ffffffffffffffffffffffffffffffffffffffff82169050919050565b6000620007958262000768565b9050919050565b620007a78162000788565b82525050565b6000602082019050620007c460008301846200079c565b92915050565b7f4e487b7100000000000000000000000000000000000000000000000000000000600052601160045260246000fd5b60006200080682620003a4565b91506200081383620003a4565b92508282019050808211156200082e576200082d620007ca565b5b92915050565b6200083f81620003a4565b82525050565b60006060820190506200085c60008301866200079c565b6200086b602083018562000834565b6200087a604083018462000834565b949350505050565b600060208201905062000899600083018462000834565b92915050565b610e5580620008af6000396000f3fe608060405234801561001057600080fd5b50600436106100935760003560e01c8063313ce56711610066578063313ce5671461013457806370a082311461015257806395d89b4114610182578063a9059cbb146101a0578063dd62ed3e146101d057610093565b806306fdde0314610098578063095ea7b3146100b657806318160ddd146100e657806323b872dd14610104575b600080fd5b6100a0610200565b6040516100ad9190610aa9565b60405180910390f35b6100d060048036038101906100cb9190610b64565b610292565b6040516100dd9190610bbf565b60405180910390f35b6100ee6102b5565b6040516100fb9190610be9565b60405180910390f35b61011e60048036038101906101199190610c04565b6102bf565b60405161012b9190610bbf565b60405180910390f35b61013c6102ee565b6040516101499190610c73565b60405180910390f35b61016c60048036038101906101679190610c8e565b6102f7565b6040516101799190610be9565b60405180910390f35b61018a61033f565b6040516101979190610aa9565b60405180910390f35b6101ba60048036038101906101b59190610b64565b6103d1565b6040516101c79190610bbf565b60405180910390f35b6101ea60048036038101906101e59190610cbb565b6103f4565b6040516101f79190610be9565b60405180910390f35b60606003805461020f90610d2a565b80601f016020809104026020016040519081016040528092919081815260200182805461023b90610d2a565b80156102885780601f1061025d57610100808354040283529160200191610288565b820191906000526020600020905b81548152906001019060200180831161026b57829003601f168201915b5050505050905090565b60008061029d61047b565b90506102aa818585610483565b600191505092915050565b6000600254905090565b6000806102ca61047b565b90506102d7858285610495565b6102e2858585610529565b60019150509392505050565b60006012905090565b60008060008373ffffffffffffffffffffffffffffffffffffffff1673ffffffffffffffffffffffffffffffffffffffff168152602001908152602001600020549050919050565b60606004805461034e90610d2a565b80601f016020809104026020016040519081016040528092919081815260200182805461037a90610d2a565b80156103c75780601f1061039c576101008083540402835291602001916103c7565b820191906000526020600020905b8154815290600101906020018083116103aa57829003601f168201915b5050505050905090565b6000806103dc61047b565b90506103e9818585610529565b600191505092915050565b6000600160008473ffffffffffffffffffffffffffffffffffffffff1673ffffffffffffffffffffffffffffffffffffffff16815260200190815260200160002060008373ffffffffffffffffffffffffffffffffffffffff1673ffffffffffffffffffffffffffffffffffffffff16815260200190815260200160002054905092915050565b600033905090565b610490838383600161061d565b505050565b60006104a184846103f4565b90507fffffffffffffffffffffffffffffffffffffffffffffffffffffffffffffffff81146105235781811015610513578281836040517ffb8f41b200000000000000000000000000000000000000000000000000000000815260040161050a93929190610d6a565b60405180910390fd5b6105228484848403600061061d565b5b50505050565b600073ffffffffffffffffffffffffffffffffffffffff168373ffffffffffffffffffffffffffffffffffffffff160361059b5760006040517f96c6fd1e0000000000000000000000000000000000000000000000000000000081526004016105929190610da1565b60405180910390fd5b600073ffffffffffffffffffffffffffffffffffffffff168273ffffffffffffffffffffffffffffffffffffffff160361060d5760006040517fec442f050000000000000000000000000000000000000000000000000000000081526004016106049190610da1565b60405180910390fd5b6106188383836107f4565b505050565b600073ffffffffffffffffffffffffffffffffffffffff168473ffffffffffffffffffffffffffffffffffffffff160361068f5760006040517fe602df050000000000000000000000000000000000000000000000000000000081526004016106869190610da1565b60405180910390fd5b600073ffffffffffffffffffffffffffffffffffffffff168373ffffffffffffffffffffffffffffffffffffffff16036107015760006040517f94280d620000000000000000000000000000000000000000000000000000000081526004016106f89190610da1565b60405180910390fd5b81600160008673ffffffffffffffffffffffffffffffffffffffff1673ffffffffffffffffffffffffffffffffffffffff16815260200190815260200160002060008573ffffffffffffffffffffffffffffffffffffffff1673ffffffffffffffffffffffffffffffffffffffff1681526020019081526020016000208190555080156107ee578273ffffffffffffffffffffffffffffffffffffffff168473ffffffffffffffffffffffffffffffffffffffff167f8c5be1e5ebec7d5bd14f71427d1e84f3dd0314c0f7b2291e5b200ac8c7c3b925846040516107e59190610be9565b60405180910390a35b50505050565b600073ffffffffffffffffffffffffffffffffffffffff168373ffffffffffffffffffffffffffffffffffffffff160361084657806002600082825461083a9190610deb565b92505081905550610919565b60008060008573ffffffffffffffffffffffffffffffffffffffff1673ffffffffffffffffffffffffffffffffffffffff168152602001908152602001600020549050818110156108d2578381836040517fe450d38c0000000000000000000000000000000000000000000000000000000081526004016108c993929190610d6a565b60405180910390fd5b8181036000808673ffffffffffffffffffffffffffffffffffffffff1673ffffffffffffffffffffffffffffffffffffffff16815260200190815260200160002081905550505b600073ffffffffffffffffffffffffffffffffffffffff168273ffffffffffffffffffffffffffffffffffffffff160361096257806002600082825403925050819055506109af565b806000808473ffffffffffffffffffffffffffffffffffffffff1673ffffffffffffffffffffffffffffffffffffffff168152602001908152602001600020600082825401925050819055505b8173ffffffffffffffffffffffffffffffffffffffff168373ffffffffffffffffffffffffffffffffffffffff167fddf252ad1be2c89b69c2b068fc378daa952ba7f163c4a11628f55a4df523b3ef83604051610a0c9190610be9565b60405180910390a3505050565b600081519050919050565b600082825260208201905092915050565b60005b83811015610a53578082015181840152602081019050610a38565b60008484015250505050565b6000601f19601f8301169050919050565b6000610a7b82610a19565b610a858185610a24565b9350610a95818560208601610a35565b610a9e81610a5f565b840191505092915050565b60006020820190508181036000830152610ac38184610a70565b905092915050565b600080fd5b600073ffffffffffffffffffffffffffffffffffffffff82169050919050565b6000610afb82610ad0565b9050919050565b610b0b81610af0565b8114610b1657600080fd5b50565b600081359050610b2881610b02565b92915050565b6000819050919050565b610b4181610b2e565b8114610b4c57600080fd5b50565b600081359050610b5e81610b38565b92915050565b60008060408385031215610b7b57610b7a610acb565b5b6000610b8985828601610b19565b9250506020610b9a85828601610b4f565b9150509250929050565b60008115159050919050565b610bb981610ba4565b82525050565b6000602082019050610bd46000830184610bb0565b92915050565b610be381610b2e565b82525050565b6000602082019050610bfe6000830184610bda565b92915050565b600080600060608486031215610c1d57610c1c610acb565b5b6000610c2b86828701610b19565b9350506020610c3c86828701610b19565b9250506040610c4d86828701610b4f565b9150509250925092565b600060ff82169050919050565b610c6d81610c57565b82525050565b6000602082019050610c886000830184610c64565b92915050565b600060208284031215610ca457610ca3610acb565b5b6000610cb284828501610b19565b91505092915050565b60008060408385031215610cd257610cd1610acb565b5b6000610ce085828601610b19565b9250506020610cf185828601610b19565b9150509250929050565b7f4e487b7100000000000000000000000000000000000000000000000000000000600052602260045260246000fd5b60006002820490506001821680610d4257607f821691505b602082108103610d5557610d54610cfb565b5b50919050565b610d6481610af0565b82525050565b6000606082019050610d7f6000830186610d5b565b610d8c6020830185610bda565b610d996040830184610bda565b949350505050565b6000602082019050610db66000830184610d5b565b92915050565b7f4e487b7100000000000000000000000000000000000000000000000000000000600052601160045260246000fd5b6000610df682610b2e565b9150610e0183610b2e565b9250828201905080821115610e1957610e18610dbc565b5b9291505056fea2646970667358221220051429403fe69e302f31db7ed5d1df41734560e159964258a5a22655c9e36d1364736f6c63430008140033a264697066735822122074cd49e366d4dbd54a58754ed2a63f680b6929f6ccadcaaa2dcd6d3a68b93a5464736f6c63430008140033",
  "linkReferences": {},
  "deployedLinkReferences": {}
}